{
  "_format": "hh-sol-artifact-1",
  "contractName": "SimpleERC1155",
  "sourceName": "contracts/SimpleERC1155.sol",
  "abi": [
    {
      "inputs": [
        {
          "internalType": "string",
          "name": "baseURI",
          "type": "string"
        }
      ],
      "stateMutability": "nonpayable",
      "type": "constructor"
    },
    {
      "anonymous": false,
      "inputs": [
        {
          "indexed": true,
          "internalType": "address",
          "name": "account",
          "type": "address"
        },
        {
          "indexed": true,
          "internalType": "address",
          "name": "operator",
          "type": "address"
        },
        {
          "indexed": false,
          "internalType": "bool",
          "name": "approved",
          "type": "bool"
        }
      ],
      "name": "ApprovalForAll",
      "type": "event"
    },
    {
      "anonymous": false,
      "inputs": [
        {
          "indexed": true,
          "internalType": "address",
          "name": "operator",
          "type": "address"
        },
        {
          "indexed": true,
          "internalType": "address",
          "name": "from",
          "type": "address"
        },
        {
          "indexed": true,
          "internalType": "address",
          "name": "to",
          "type": "address"
        },
        {
          "indexed": false,
          "internalType": "uint256[]",
          "name": "ids",
          "type": "uint256[]"
        },
        {
          "indexed": false,
          "internalType": "uint256[]",
          "name": "values",
          "type": "uint256[]"
        }
      ],
      "name": "TransferBatch",
      "type": "event"
    },
    {
      "anonymous": false,
      "inputs": [
        {
          "indexed": true,
          "internalType": "address",
          "name": "operator",
          "type": "address"
        },
        {
          "indexed": true,
          "internalType": "address",
          "name": "from",
          "type": "address"
        },
        {
          "indexed": true,
          "internalType": "address",
          "name": "to",
          "type": "address"
        },
        {
          "indexed": false,
          "internalType": "uint256",
          "name": "id",
          "type": "uint256"
        },
        {
          "indexed": false,
          "internalType": "uint256",
          "name": "value",
          "type": "uint256"
        }
      ],
      "name": "TransferSingle",
      "type": "event"
    },
    {
      "anonymous": false,
      "inputs": [
        {
          "indexed": false,
          "internalType": "string",
          "name": "value",
          "type": "string"
        },
        {
          "indexed": true,
          "internalType": "uint256",
          "name": "id",
          "type": "uint256"
        }
      ],
      "name": "URI",
      "type": "event"
    },
    {
      "inputs": [
        {
          "internalType": "address",
          "name": "account",
          "type": "address"
        },
        {
          "internalType": "uint256",
          "name": "id",
          "type": "uint256"
        }
      ],
      "name": "balanceOf",
      "outputs": [
        {
          "internalType": "uint256",
          "name": "",
          "type": "uint256"
        }
      ],
      "stateMutability": "view",
      "type": "function"
    },
    {
      "inputs": [
        {
          "internalType": "address[]",
          "name": "accounts",
          "type": "address[]"
        },
        {
          "internalType": "uint256[]",
          "name": "ids",
          "type": "uint256[]"
        }
      ],
      "name": "balanceOfBatch",
      "outputs": [
        {
          "internalType": "uint256[]",
          "name": "",
          "type": "uint256[]"
        }
      ],
      "stateMutability": "view",
      "type": "function"
    },
    {
      "inputs": [
        {
          "internalType": "address",
          "name": "account",
          "type": "address"
        },
        {
          "internalType": "address",
          "name": "operator",
          "type": "address"
        }
      ],
      "name": "isApprovedForAll",
      "outputs": [
        {
          "internalType": "bool",
          "name": "",
          "type": "bool"
        }
      ],
      "stateMutability": "view",
      "type": "function"
    },
    {
      "inputs": [
        {
          "internalType": "address",
          "name": "to",
          "type": "address"
        },
        {
          "internalType": "uint256",
          "name": "id",
          "type": "uint256"
        },
        {
          "internalType": "uint256",
          "name": "amount",
          "type": "uint256"
        },
        {
          "internalType": "bytes",
          "name": "data",
          "type": "bytes"
        }
      ],
      "name": "mint",
      "outputs": [],
      "stateMutability": "nonpayable",
      "type": "function"
    },
    {
      "inputs": [
        {
          "internalType": "address",
          "name": "to",
          "type": "address"
        },
        {
          "internalType": "uint256[]",
          "name": "ids",
          "type": "uint256[]"
        },
        {
          "internalType": "uint256[]",
          "name": "amounts",
          "type": "uint256[]"
        },
        {
          "internalType": "bytes",
          "name": "data",
          "type": "bytes"
        }
      ],
      "name": "mintBatch",
      "outputs": [],
      "stateMutability": "nonpayable",
      "type": "function"
    },
    {
      "inputs": [],
      "name": "name",
      "outputs": [
        {
          "internalType": "string",
          "name": "",
          "type": "string"
        }
      ],
      "stateMutability": "view",
      "type": "function"
    },
    {
      "inputs": [
        {
          "internalType": "address",
          "name": "from",
          "type": "address"
        },
        {
          "internalType": "address",
          "name": "to",
          "type": "address"
        },
        {
          "internalType": "uint256[]",
          "name": "ids",
          "type": "uint256[]"
        },
        {
          "internalType": "uint256[]",
          "name": "amounts",
          "type": "uint256[]"
        },
        {
          "internalType": "bytes",
          "name": "data",
          "type": "bytes"
        }
      ],
      "name": "safeBatchTransferFrom",
      "outputs": [],
      "stateMutability": "nonpayable",
      "type": "function"
    },
    {
      "inputs": [
        {
          "internalType": "address",
          "name": "from",
          "type": "address"
        },
        {
          "internalType": "address",
          "name": "to",
          "type": "address"
        },
        {
          "internalType": "uint256",
          "name": "id",
          "type": "uint256"
        },
        {
          "internalType": "uint256",
          "name": "amount",
          "type": "uint256"
        },
        {
          "internalType": "bytes",
          "name": "data",
          "type": "bytes"
        }
      ],
      "name": "safeTransferFrom",
      "outputs": [],
      "stateMutability": "nonpayable",
      "type": "function"
    },
    {
      "inputs": [
        {
          "internalType": "address",
          "name": "operator",
          "type": "address"
        },
        {
          "internalType": "bool",
          "name": "approved",
          "type": "bool"
        }
      ],
      "name": "setApprovalForAll",
      "outputs": [],
      "stateMutability": "nonpayable",
      "type": "function"
    },
    {
      "inputs": [
        {
          "internalType": "bytes4",
          "name": "interfaceId",
          "type": "bytes4"
        }
      ],
      "name": "supportsInterface",
      "outputs": [
        {
          "internalType": "bool",
          "name": "",
          "type": "bool"
        }
      ],
      "stateMutability": "view",
      "type": "function"
    },
    {
      "inputs": [],
      "name": "symbol",
      "outputs": [
        {
          "internalType": "string",
          "name": "",
          "type": "string"
        }
      ],
      "stateMutability": "view",
      "type": "function"
    },
    {
      "inputs": [
        {
          "internalType": "uint256",
          "name": "id",
          "type": "uint256"
        }
      ],
      "name": "uri",
      "outputs": [
        {
          "internalType": "string",
          "name": "",
          "type": "string"
        }
      ],
      "stateMutability": "view",
      "type": "function"
    }
  ],
  "bytecode": "0x608060405234620002825762001a19803803806200001d8162000287565b9283398101906020918282820312620002825781516001600160401b039283821162000282570191601f9180838501121562000282578351938285116200025857601f1994620000738582018716880162000287565b928184528782840101116200028257869160005b8281106200026e575050906000918301015280519182116200025857620000b0600254620002ad565b8381116200021a575b508493838311600114620001b3575092819293600092620001a7575b50508160011b916000199060031b1c1916176002555b620000f8600354620002ad565b81811162000183575b507f53574150532054657374204552433131353500000000000000000000000000246003556004546200013490620002ad565b908082116200015f575b600e665354453131353560c81b016004556040516117159081620003048239f35b6200017a926004600052600020910160051c810190620002ea565b3880806200013e565b620001a09060036000528284600020910160051c810190620002ea565b3862000101565b015190503880620000d5565b8216936002600052856000209160005b8787821062000203575050836001959610620001e9575b505050811b01600255620000eb565b015160001960f88460031b161c19169055388080620001da565b6001849582939585015181550194019201620001c3565b62000247906002600052866000208580860160051c8201928987106200024e575b0160051c0190620002ea565b38620000b9565b925081926200023b565b634e487b7160e01b600052604160045260246000fd5b818101840151858201850152830162000087565b600080fd5b6040519190601f01601f191682016001600160401b038111838210176200025857604052565b90600182811c92168015620002df575b6020831014620002c957565b634e487b7160e01b600052602260045260246000fd5b91607f1691620002bd565b818110620002f6575050565b60008155600101620002ea56fe60406080815260048036101561001457600080fd5b600091823560e01c8062fdd58e1461106457806301ffc9a714610ff657806306fdde0314610f015780630e89341c14610dcf5780631f7fdffa14610bcb5780632eb2c2d61461091d5780634e1273f41461077f578063731133e9146105f157806395d89b41146104d3578063a22cb465146103f7578063e985e9c5146103a55763f242432a146100a357600080fd5b346103a15760a03660031901126103a1576100bc611094565b836100c56110af565b916044359060643560843567ffffffffffffffff811161039d576100ec90369089016111f3565b926001600160a01b0392831692338414801561037e575b61010c90611342565b86169061011a8215156113a5565b6101238161159d565b5061012d8361159d565b5080865260209686885288872085885288528389882054610150828210156113ff565b838952888a528a8920878a528a520389882055818752868852888720838852885288872061017f85825461145e565b905582858a51848152868b8201527fc3d58168c5ae7397731d063d5bbf3d657854427343f4c083240f7aacaa2d0f628c3392a43b6101bb578580f35b889587946101fc8a519788968795869463f23a6e6160e01b9c8d8752339087015260248601526044850152606484015260a0608484015260a483019061113c565b03925af186918161034f575b506102da57505060019061021a611510565b6308c379a0146102a7575b5061023a5750505b3880808381808080808580f35b5162461bcd60e51b8152915081906102a390820160809060208152603460208201527f455243313135353a207472616e7366657220746f206e6f6e2d455243313135356040820152732932b1b2b4bb32b91034b6b83632b6b2b73a32b960611b60608201520190565b0390fd5b6102af61152e565b806102ba5750610225565b6102a38591855193849362461bcd60e51b8552840152602483019061113c565b6001600160e01b0319160390506102f257505061022d565b5162461bcd60e51b8152915081906102a390820160809060208152602860208201527f455243313135353a204552433131353552656365697665722072656a656374656040820152676420746f6b656e7360c01b60608201520190565b610370919250843d8611610377575b61036881836110f7565b8101906114f0565b9038610208565b503d61035e565b508386526001602090815288872033885290528786205460ff16610103565b8480fd5b8280fd5b8382346103f357806003193601126103f35760ff816020936103c5611094565b6103cd6110af565b6001600160a01b0391821683526001875283832091168252855220549151911615158152f35b5080fd5b50346103a157806003193601126103a157610410611094565b906024359182151580930361039d576001600160a01b03169233841461047f5750338452600160205280842083855260205280842060ff1981541660ff8416179055519081527f17307eab39ab6107e8899845ad3d59bd9653f200f220920489ca2b5937696c3160203392a380f35b6020608492519162461bcd60e51b8352820152602960248201527f455243313135353a2073657474696e6720617070726f76616c20737461747573604482015268103337b91039b2b63360b91b6064820152fd5b5082346105ee57806003193601126105ee5781519181845492600184811c918186169586156105e4575b60209687851081146105d1579087899a92868b999a9b5291826000146105a757505060011461054c575b858861054889610539848a03856110f7565b5192828493845283019061113c565b0390f35b815286935091907f8a35acfbc15ff81a39ae7d344fd709f28e8600b4aa8c65c6b64bfe7fe36bd19b5b82841061058f575050508201018161053961054888610527565b8054848a018601528895508794909301928101610575565b60ff19168882015294151560051b8701909401945085935061053992506105489150899050610527565b634e487b7160e01b835260228a52602483fd5b92607f16926104fd565b80fd5b50346103a15760803660031901126103a15761060b611094565b6044358460243560643567ffffffffffffffff81116103a15761063190369088016111f3565b6001600160a01b0385166106468115156115c2565b61064f8361159d565b506106598561159d565b50828452602095848752878520828652875287852061067987825461145e565b905581858951868152888a8201527fc3d58168c5ae7397731d063d5bbf3d657854427343f4c083240f7aacaa2d0f628b3392a43b6106b5578380f35b87946106f894879489519687958694859363f23a6e6160e01b9b8c865233908601528560248601526044850152606484015260a0608484015260a483019061113c565b03925af1869181610760575b50610748575050600190610716611510565b6308c379a014610735575b5061023a5750505b38808080848180808380f35b61073d61152e565b806102ba5750610721565b6001600160e01b0319160390506102f2575050610729565b610778919250843d86116103775761036881836110f7565b9038610704565b5090346103a157816003193601126103a157803567ffffffffffffffff80821161039d573660238301121561039d5781830135906107bc82611161565b926107c9865194856110f7565b82845260209260248486019160051b8301019136831161091957602401905b8282106108f6575050506024359081116108f2576108099036908501611179565b92825184510361089f575081519461082086611161565b9561082d865197886110f7565b80875261083c601f1991611161565b0136838801375b825181101561088d57610888906108786001600160a01b036108658387611318565b51166108718388611318565b519061126e565b6108828289611318565b526112f3565b610843565b8451828152806105488185018961123a565b60849185519162461bcd60e51b8352820152602960248201527f455243313135353a206163636f756e747320616e6420696473206c656e677468604482015268040dad2e6dac2e8c6d60bb1b6064820152fd5b8580fd5b81356001600160a01b03811681036109155781529084019084016107e8565b8980fd5b8880fd5b5090346103a1576003199160a036840112610bc75761093a611094565b926109436110af565b9367ffffffffffffffff93604435858111610bc3576109659036908301611179565b906064358681116109195761097d9036908301611179565b956084359081116109195761099590369083016111f3565b936001600160a01b03938416933385148015610ba4575b6109b590611342565b6109c2845189511461146b565b8816946109d08615156113a5565b895b8a8551821015610a56579089610a4a8a610a51946109fb856109f4818d611318565b5195611318565b51938082526020908282528383208d84528252858d8585205490610a21838310156113ff565b838652858552868620908652845203848420558252818152828220908d8352522091825461145e565b90556112f3565b6109d2565b50509094939596929197848789517f4a39dc06d4c0dbc64b70af90fd698a233a518aa5d07e595d983b8c0526c8f7fb339180610a938a8a836114c8565b0390a43b610a9f578880f35b8651948593849363bc197c8160e01b98898652338c87015260248601526044850160a0905260a48501610ad19161123a565b82858203016064860152610ae49161123a565b90838203016084840152610af79161113c565b0381885a94602095f1859181610b84575b50610b6e5750506001610b19611510565b6308c379a014610b37575b61023a5750505b38808080808080808880f35b610b3f61152e565b80610b4a5750610b24565b90506102a391602094505193849362461bcd60e51b8552840152602483019061113c565b6001600160e01b031916036102f2575050610b2b565b610b9d91925060203d81116103775761036881836110f7565b9038610b08565b50848a5260016020908152878b20338c529052868a205460ff166109ac565b8780fd5b8380fd5b508290346103f357600319916080368401126105ee57610be9611094565b9267ffffffffffffffff602435818111610bc757610c0a9036908801611179565b9560443582811161039d57610c229036908301611179565b9160643590811161039d57610c3a90369083016111f3565b6001600160a01b03871693610c508515156115c2565b610c5d895185511461146b565b855b8951811015610ca45780610c76610c9f9287611318565b51610c81828d611318565b51895260208981528a8a2090898b5252610a4a8a8a2091825461145e565b610c5f565b5085989491939297828789517f4a39dc06d4c0dbc64b70af90fd698a233a518aa5d07e595d983b8c0526c8f7fb339180610cdf8a8d836114c8565b0390a43b610ceb578580f35b8795610d3c95610d4b610d2c936020978b51998a988997889663bc197c8160e01b9e8f8952339089015288602489015260a0604489015260a488019061123a565b908487830301606488015261123a565b9184830301608485015261113c565b03925af1859181610daf575b50610d995750506001610d68611510565b6308c379a014610d86575b61023a5750505b81808281808080808580f35b610d8e61152e565b80610b4a5750610d73565b6001600160e01b031916036102f2575050610d7a565b610dc891925060203d81116103775761036881836110f7565b9086610d57565b5090346103a157602092836003193601126105ee578251918160025492600184811c91818616958615610ef7575b8984108714610ee45783885289880196908115610ec65750600114610e73575b610e53896105488a610539838c8c610e418d610e3b848f03856110f7565b35611618565b90855198899351809286860190611119565b8201610e6782518093868085019101611119565b010380875201856110f7565b9250600283527f405787fa12a823e0f2b7631cc41b3ba8828b3321ca811111fa75cd3aa3bb5ace5b828410610eb357505050830185018383610e41610e1d565b80548785018a0152928801928101610e9b565b60ff19168752505050151560051b8401860190508383610e41610e1d565b634e487b7160e01b825260228652602482fd5b92607f1692610dfd565b5082346105ee57806003193601126105ee578151918160035492600184811c91818616958615610fec575b60209687851081146105d1578899509688969785829a529182600014610fc5575050600114610f69575b50505061054892916105399103856110f7565b9190869350600383527fc2575a0e9e593c00f959f8c92f12db2869c3395a3b0502d05e2516446f71f85b5b828410610fad5750505082010181610539610548610f56565b8054848a018601528895508794909301928101610f94565b60ff19168782015293151560051b8601909301935084925061053991506105489050610f56565b92607f1692610f2c565b5090346103a15760203660031901126103a157359063ffffffff60e01b82168092036103a15760209250636cdb3d1360e11b8214918215611053575b8215611042575b50519015158152f35b6301ffc9a760e01b14915038611039565b6303a24d0760e21b81149250611032565b8382346103f357806003193601126103f35760209061108d611084611094565b6024359061126e565b9051908152f35b600435906001600160a01b03821682036110aa57565b600080fd5b602435906001600160a01b03821682036110aa57565b6040810190811067ffffffffffffffff8211176110e157604052565b634e487b7160e01b600052604160045260246000fd5b90601f8019910116810190811067ffffffffffffffff8211176110e157604052565b60005b83811061112c5750506000910152565b818101518382015260200161111c565b9060209161115581518092818552858086019101611119565b601f01601f1916010190565b67ffffffffffffffff81116110e15760051b60200190565b81601f820112156110aa5780359161119083611161565b9261119e60405194856110f7565b808452602092838086019260051b8201019283116110aa578301905b8282106111c8575050505090565b813581529083019083016111ba565b67ffffffffffffffff81116110e157601f01601f191660200190565b81601f820112156110aa5780359061120a826111d7565b9261121860405194856110f7565b828452602083830101116110aa57816000926020809301838601378301015290565b90815180825260208080930193019160005b82811061125a575050505090565b83518552938101939281019260010161124c565b6001600160a01b031690811561129b57600052600060205260406000209060005260205260406000205490565b60405162461bcd60e51b815260206004820152602a60248201527f455243313135353a2061646472657373207a65726f206973206e6f742061207660448201526930b634b21037bbb732b960b11b6064820152608490fd5b60001981146113025760010190565b634e487b7160e01b600052601160045260246000fd5b805182101561132c5760209160051b010190565b634e487b7160e01b600052603260045260246000fd5b1561134957565b60405162461bcd60e51b815260206004820152602e60248201527f455243313135353a2063616c6c6572206973206e6f7420746f6b656e206f776e60448201526d195c881bdc88185c1c1c9bdd995960921b6064820152608490fd5b156113ac57565b60405162461bcd60e51b815260206004820152602560248201527f455243313135353a207472616e7366657220746f20746865207a65726f206164604482015264647265737360d81b6064820152608490fd5b1561140657565b60405162461bcd60e51b815260206004820152602a60248201527f455243313135353a20696e73756666696369656e742062616c616e636520666f60448201526939103a3930b739b332b960b11b6064820152608490fd5b9190820180921161130257565b1561147257565b60405162461bcd60e51b815260206004820152602860248201527f455243313135353a2069647320616e6420616d6f756e7473206c656e677468206044820152670dad2e6dac2e8c6d60c31b6064820152608490fd5b90916114df6114ed9360408452604084019061123a565b91602081840391015261123a565b90565b908160209103126110aa57516001600160e01b0319811681036110aa5790565b60009060033d1161151d57565b905060046000803e60005160e01c90565b600060443d106114ed57604051600319913d83016004833e815167ffffffffffffffff918282113d60248401111761158c57818401948551938411611594573d8501016020848701011161158c57506114ed929101602001906110f7565b949350505050565b50949350505050565b604051906115aa826110c5565b6001825260208201602036823782511561132c575290565b156115c957565b60405162461bcd60e51b815260206004820152602160248201527f455243313135353a206d696e7420746f20746865207a65726f206164647265736044820152607360f81b6064820152608490fd5b80156116c15780816000925b6116ab5750611632826111d7565b9161164060405193846110f7565b808352601f1961164f826111d7565b01908260209236848701375b6116655750505090565b6000198101908111611302578092600a916030838306810180911161130257865182101561132c5760f81b6001600160f81b03191660001a90860184015304918261165b565b90916116b8600a916112f3565b92910480611624565b506040516116ce816110c5565b60018152600360fc1b60208201529056fea2646970667358221220cc9f3fbdd32832e1c0c61438433b72d990a3fedffdf0f7a4a74f2bca2ab0e59d64736f6c63430008130033",
  "linkReferences": {},
  "deployedLinkReferences": {}
}