{
  "_format": "hh-sol-artifact-1",
  "contractName": "MultiPartyNFTSwap",
  "sourceName": "contracts/MultiPartyNFTSwap.sol",
  "abi": [
    {
      "anonymous": false,
      "inputs": [
        {
          "indexed": false,
          "internalType": "uint256",
          "name": "amount",
          "type": "uint256"
        },
        {
          "indexed": true,
          "internalType": "address",
          "name": "recipient",
          "type": "address"
        }
      ],
      "name": "ETHRescued",
      "type": "event"
    },
    {
      "anonymous": false,
      "inputs": [
        {
          "indexed": true,
          "internalType": "address",
          "name": "admin",
          "type": "address"
        },
        {
          "indexed": false,
          "internalType": "uint256",
          "name": "timestamp",
          "type": "uint256"
        }
      ],
      "name": "EmergencyPauseActivated",
      "type": "event"
    },
    {
      "anonymous": false,
      "inputs": [
        {
          "indexed": true,
          "internalType": "address",
          "name": "admin",
          "type": "address"
        },
        {
          "indexed": false,
          "internalType": "uint256",
          "name": "timestamp",
          "type": "uint256"
        }
      ],
      "name": "EmergencyPauseDeactivated",
      "type": "event"
    },
    {
      "anonymous": false,
      "inputs": [
        {
          "indexed": false,
          "internalType": "uint8",
          "name": "version",
          "type": "uint8"
        }
      ],
      "name": "Initialized",
      "type": "event"
    },
    {
      "anonymous": false,
      "inputs": [
        {
          "indexed": false,
          "internalType": "uint256",
          "name": "oldValue",
          "type": "uint256"
        },
        {
          "indexed": false,
          "internalType": "uint256",
          "name": "newValue",
          "type": "uint256"
        }
      ],
      "name": "MaxParticipantsUpdated",
      "type": "event"
    },
    {
      "anonymous": false,
      "inputs": [
        {
          "indexed": true,
          "internalType": "address",
          "name": "previousOwner",
          "type": "address"
        },
        {
          "indexed": true,
          "internalType": "address",
          "name": "newOwner",
          "type": "address"
        }
      ],
      "name": "OwnershipTransferred",
      "type": "event"
    },
    {
      "anonymous": false,
      "inputs": [
        {
          "indexed": false,
          "internalType": "address",
          "name": "account",
          "type": "address"
        }
      ],
      "name": "Paused",
      "type": "event"
    },
    {
      "anonymous": false,
      "inputs": [
        {
          "indexed": true,
          "internalType": "bytes32",
          "name": "swapId",
          "type": "bytes32"
        },
        {
          "indexed": false,
          "internalType": "uint256",
          "name": "feePercentage",
          "type": "uint256"
        }
      ],
      "name": "PlatformFeeCollected",
      "type": "event"
    },
    {
      "anonymous": false,
      "inputs": [
        {
          "indexed": false,
          "internalType": "uint256",
          "name": "oldFeePercentage",
          "type": "uint256"
        },
        {
          "indexed": false,
          "internalType": "address",
          "name": "oldFeeRecipient",
          "type": "address"
        },
        {
          "indexed": false,
          "internalType": "uint256",
          "name": "newFeePercentage",
          "type": "uint256"
        },
        {
          "indexed": false,
          "internalType": "address",
          "name": "newFeeRecipient",
          "type": "address"
        }
      ],
      "name": "PlatformFeeUpdated",
      "type": "event"
    },
    {
      "anonymous": false,
      "inputs": [
        {
          "indexed": true,
          "internalType": "bytes32",
          "name": "swapId",
          "type": "bytes32"
        },
        {
          "indexed": true,
          "internalType": "address",
          "name": "participant",
          "type": "address"
        }
      ],
      "name": "SwapApproved",
      "type": "event"
    },
    {
      "anonymous": false,
      "inputs": [
        {
          "indexed": true,
          "internalType": "bytes32",
          "name": "swapId",
          "type": "bytes32"
        },
        {
          "indexed": true,
          "internalType": "address",
          "name": "canceller",
          "type": "address"
        },
        {
          "indexed": false,
          "internalType": "string",
          "name": "reason",
          "type": "string"
        }
      ],
      "name": "SwapCancelled",
      "type": "event"
    },
    {
      "anonymous": false,
      "inputs": [
        {
          "indexed": true,
          "internalType": "bytes32",
          "name": "swapId",
          "type": "bytes32"
        },
        {
          "indexed": true,
          "internalType": "address",
          "name": "initiator",
          "type": "address"
        },
        {
          "indexed": false,
          "internalType": "uint256",
          "name": "participantCount",
          "type": "uint256"
        },
        {
          "indexed": false,
          "internalType": "uint256",
          "name": "expiresAt",
          "type": "uint256"
        }
      ],
      "name": "SwapCreated",
      "type": "event"
    },
    {
      "anonymous": false,
      "inputs": [
        {
          "indexed": false,
          "internalType": "uint256",
          "name": "oldMinDuration",
          "type": "uint256"
        },
        {
          "indexed": false,
          "internalType": "uint256",
          "name": "oldMaxDuration",
          "type": "uint256"
        },
        {
          "indexed": false,
          "internalType": "uint256",
          "name": "newMinDuration",
          "type": "uint256"
        },
        {
          "indexed": false,
          "internalType": "uint256",
          "name": "newMaxDuration",
          "type": "uint256"
        }
      ],
      "name": "SwapDurationLimitsUpdated",
      "type": "event"
    },
    {
      "anonymous": false,
      "inputs": [
        {
          "indexed": true,
          "internalType": "bytes32",
          "name": "swapId",
          "type": "bytes32"
        },
        {
          "indexed": false,
          "internalType": "uint256",
          "name": "participantCount",
          "type": "uint256"
        },
        {
          "indexed": false,
          "internalType": "uint256",
          "name": "nftCount",
          "type": "uint256"
        }
      ],
      "name": "SwapExecuted",
      "type": "event"
    },
    {
      "anonymous": false,
      "inputs": [
        {
          "indexed": true,
          "internalType": "bytes32",
          "name": "swapId",
          "type": "bytes32"
        },
        {
          "indexed": false,
          "internalType": "uint256",
          "name": "expiredAt",
          "type": "uint256"
        }
      ],
      "name": "SwapExpired",
      "type": "event"
    },
    {
      "anonymous": false,
      "inputs": [
        {
          "indexed": true,
          "internalType": "address",
          "name": "token",
          "type": "address"
        },
        {
          "indexed": false,
          "internalType": "uint256",
          "name": "amount",
          "type": "uint256"
        },
        {
          "indexed": true,
          "internalType": "address",
          "name": "recipient",
          "type": "address"
        }
      ],
      "name": "TokensRescued",
      "type": "event"
    },
    {
      "anonymous": false,
      "inputs": [
        {
          "indexed": false,
          "internalType": "address",
          "name": "account",
          "type": "address"
        }
      ],
      "name": "Unpaused",
      "type": "event"
    },
    {
      "inputs": [
        {
          "internalType": "bytes32",
          "name": "swapId",
          "type": "bytes32"
        }
      ],
      "name": "approveSwap",
      "outputs": [],
      "stateMutability": "nonpayable",
      "type": "function"
    },
    {
      "inputs": [
        {
          "internalType": "bytes32[]",
          "name": "swapIds",
          "type": "bytes32[]"
        }
      ],
      "name": "batchCancelExpiredSwaps",
      "outputs": [],
      "stateMutability": "nonpayable",
      "type": "function"
    },
    {
      "inputs": [
        {
          "internalType": "bytes32",
          "name": "swapId",
          "type": "bytes32"
        },
        {
          "internalType": "string",
          "name": "reason",
          "type": "string"
        }
      ],
      "name": "cancelSwap",
      "outputs": [],
      "stateMutability": "nonpayable",
      "type": "function"
    },
    {
      "inputs": [
        {
          "internalType": "bytes32",
          "name": "swapId",
          "type": "bytes32"
        },
        {
          "components": [
            {
              "internalType": "address",
              "name": "wallet",
              "type": "address"
            },
            {
              "components": [
                {
                  "internalType": "address",
                  "name": "contractAddress",
                  "type": "address"
                },
                {
                  "internalType": "uint256",
                  "name": "tokenId",
                  "type": "uint256"
                },
                {
                  "internalType": "address",
                  "name": "currentOwner",
                  "type": "address"
                },
                {
                  "internalType": "bool",
                  "name": "isERC1155",
                  "type": "bool"
                },
                {
                  "internalType": "uint256",
                  "name": "amount",
                  "type": "uint256"
                }
              ],
              "internalType": "struct MultiPartyNFTSwap.NFTAsset[]",
              "name": "givingNFTs",
              "type": "tuple[]"
            },
            {
              "components": [
                {
                  "internalType": "address",
                  "name": "contractAddress",
                  "type": "address"
                },
                {
                  "internalType": "uint256",
                  "name": "tokenId",
                  "type": "uint256"
                },
                {
                  "internalType": "address",
                  "name": "currentOwner",
                  "type": "address"
                },
                {
                  "internalType": "bool",
                  "name": "isERC1155",
                  "type": "bool"
                },
                {
                  "internalType": "uint256",
                  "name": "amount",
                  "type": "uint256"
                }
              ],
              "internalType": "struct MultiPartyNFTSwap.NFTAsset[]",
              "name": "receivingNFTs",
              "type": "tuple[]"
            },
            {
              "internalType": "bool",
              "name": "hasApproved",
              "type": "bool"
            }
          ],
          "internalType": "struct MultiPartyNFTSwap.SwapParticipant[]",
          "name": "participants",
          "type": "tuple[]"
        },
        {
          "internalType": "uint256",
          "name": "duration",
          "type": "uint256"
        }
      ],
      "name": "createSwap",
      "outputs": [],
      "stateMutability": "nonpayable",
      "type": "function"
    },
    {
      "inputs": [],
      "name": "emergencyPause",
      "outputs": [],
      "stateMutability": "nonpayable",
      "type": "function"
    },
    {
      "inputs": [],
      "name": "emergencyUnpause",
      "outputs": [],
      "stateMutability": "nonpayable",
      "type": "function"
    },
    {
      "inputs": [
        {
          "internalType": "bytes32",
          "name": "swapId",
          "type": "bytes32"
        }
      ],
      "name": "executeSwap",
      "outputs": [],
      "stateMutability": "nonpayable",
      "type": "function"
    },
    {
      "inputs": [],
      "name": "feeRecipient",
      "outputs": [
        {
          "internalType": "address",
          "name": "",
          "type": "address"
        }
      ],
      "stateMutability": "view",
      "type": "function"
    },
    {
      "inputs": [
        {
          "internalType": "bytes32",
          "name": "swapId",
          "type": "bytes32"
        }
      ],
      "name": "getSwapDetails",
      "outputs": [
        {
          "internalType": "enum MultiPartyNFTSwap.SwapStatus",
          "name": "status",
          "type": "uint8"
        },
        {
          "internalType": "uint256",
          "name": "participantCount",
          "type": "uint256"
        },
        {
          "internalType": "uint256",
          "name": "createdAt",
          "type": "uint256"
        },
        {
          "internalType": "uint256",
          "name": "expiresAt",
          "type": "uint256"
        },
        {
          "internalType": "address",
          "name": "initiator",
          "type": "address"
        }
      ],
      "stateMutability": "view",
      "type": "function"
    },
    {
      "inputs": [
        {
          "internalType": "bytes32",
          "name": "swapId",
          "type": "bytes32"
        }
      ],
      "name": "getSwapParticipants",
      "outputs": [
        {
          "components": [
            {
              "internalType": "address",
              "name": "wallet",
              "type": "address"
            },
            {
              "components": [
                {
                  "internalType": "address",
                  "name": "contractAddress",
                  "type": "address"
                },
                {
                  "internalType": "uint256",
                  "name": "tokenId",
                  "type": "uint256"
                },
                {
                  "internalType": "address",
                  "name": "currentOwner",
                  "type": "address"
                },
                {
                  "internalType": "bool",
                  "name": "isERC1155",
                  "type": "bool"
                },
                {
                  "internalType": "uint256",
                  "name": "amount",
                  "type": "uint256"
                }
              ],
              "internalType": "struct MultiPartyNFTSwap.NFTAsset[]",
              "name": "givingNFTs",
              "type": "tuple[]"
            },
            {
              "components": [
                {
                  "internalType": "address",
                  "name": "contractAddress",
                  "type": "address"
                },
                {
                  "internalType": "uint256",
                  "name": "tokenId",
                  "type": "uint256"
                },
                {
                  "internalType": "address",
                  "name": "currentOwner",
                  "type": "address"
                },
                {
                  "internalType": "bool",
                  "name": "isERC1155",
                  "type": "bool"
                },
                {
                  "internalType": "uint256",
                  "name": "amount",
                  "type": "uint256"
                }
              ],
              "internalType": "struct MultiPartyNFTSwap.NFTAsset[]",
              "name": "receivingNFTs",
              "type": "tuple[]"
            },
            {
              "internalType": "bool",
              "name": "hasApproved",
              "type": "bool"
            }
          ],
          "internalType": "struct MultiPartyNFTSwap.SwapParticipant[]",
          "name": "",
          "type": "tuple[]"
        }
      ],
      "stateMutability": "view",
      "type": "function"
    },
    {
      "inputs": [
        {
          "internalType": "bytes32",
          "name": "swapId",
          "type": "bytes32"
        }
      ],
      "name": "getSwapStatus",
      "outputs": [
        {
          "internalType": "enum MultiPartyNFTSwap.SwapStatus",
          "name": "status",
          "type": "uint8"
        },
        {
          "internalType": "bool",
          "name": "allApproved",
          "type": "bool"
        },
        {
          "internalType": "uint256",
          "name": "approvalCount",
          "type": "uint256"
        },
        {
          "internalType": "uint256",
          "name": "totalParticipants",
          "type": "uint256"
        }
      ],
      "stateMutability": "view",
      "type": "function"
    },
    {
      "inputs": [
        {
          "internalType": "address",
          "name": "user",
          "type": "address"
        }
      ],
      "name": "getUserActiveSwaps",
      "outputs": [
        {
          "internalType": "bytes32[]",
          "name": "",
          "type": "bytes32[]"
        }
      ],
      "stateMutability": "view",
      "type": "function"
    },
    {
      "inputs": [],
      "name": "getVersion",
      "outputs": [
        {
          "internalType": "string",
          "name": "",
          "type": "string"
        }
      ],
      "stateMutability": "pure",
      "type": "function"
    },
    {
      "inputs": [
        {
          "internalType": "address",
          "name": "_owner",
          "type": "address"
        },
        {
          "internalType": "address",
          "name": "_feeRecipient",
          "type": "address"
        }
      ],
      "name": "initialize",
      "outputs": [],
      "stateMutability": "nonpayable",
      "type": "function"
    },
    {
      "inputs": [
        {
          "internalType": "bytes32",
          "name": "swapId",
          "type": "bytes32"
        },
        {
          "internalType": "address",
          "name": "wallet",
          "type": "address"
        }
      ],
      "name": "isParticipant",
      "outputs": [
        {
          "internalType": "bool",
          "name": "",
          "type": "bool"
        }
      ],
      "stateMutability": "view",
      "type": "function"
    },
    {
      "inputs": [],
      "name": "maxParticipants",
      "outputs": [
        {
          "internalType": "uint256",
          "name": "",
          "type": "uint256"
        }
      ],
      "stateMutability": "view",
      "type": "function"
    },
    {
      "inputs": [],
      "name": "maxSwapDuration",
      "outputs": [
        {
          "internalType": "uint256",
          "name": "",
          "type": "uint256"
        }
      ],
      "stateMutability": "view",
      "type": "function"
    },
    {
      "inputs": [],
      "name": "minSwapDuration",
      "outputs": [
        {
          "internalType": "uint256",
          "name": "",
          "type": "uint256"
        }
      ],
      "stateMutability": "view",
      "type": "function"
    },
    {
      "inputs": [
        {
          "internalType": "address",
          "name": "operator",
          "type": "address"
        },
        {
          "internalType": "address",
          "name": "from",
          "type": "address"
        },
        {
          "internalType": "uint256[]",
          "name": "ids",
          "type": "uint256[]"
        },
        {
          "internalType": "uint256[]",
          "name": "values",
          "type": "uint256[]"
        },
        {
          "internalType": "bytes",
          "name": "data",
          "type": "bytes"
        }
      ],
      "name": "onERC1155BatchReceived",
      "outputs": [
        {
          "internalType": "bytes4",
          "name": "",
          "type": "bytes4"
        }
      ],
      "stateMutability": "pure",
      "type": "function"
    },
    {
      "inputs": [
        {
          "internalType": "address",
          "name": "operator",
          "type": "address"
        },
        {
          "internalType": "address",
          "name": "from",
          "type": "address"
        },
        {
          "internalType": "uint256",
          "name": "id",
          "type": "uint256"
        },
        {
          "internalType": "uint256",
          "name": "value",
          "type": "uint256"
        },
        {
          "internalType": "bytes",
          "name": "data",
          "type": "bytes"
        }
      ],
      "name": "onERC1155Received",
      "outputs": [
        {
          "internalType": "bytes4",
          "name": "",
          "type": "bytes4"
        }
      ],
      "stateMutability": "pure",
      "type": "function"
    },
    {
      "inputs": [
        {
          "internalType": "address",
          "name": "operator",
          "type": "address"
        },
        {
          "internalType": "address",
          "name": "from",
          "type": "address"
        },
        {
          "internalType": "uint256",
          "name": "tokenId",
          "type": "uint256"
        },
        {
          "internalType": "bytes",
          "name": "data",
          "type": "bytes"
        }
      ],
      "name": "onERC721Received",
      "outputs": [
        {
          "internalType": "bytes4",
          "name": "",
          "type": "bytes4"
        }
      ],
      "stateMutability": "pure",
      "type": "function"
    },
    {
      "inputs": [],
      "name": "owner",
      "outputs": [
        {
          "internalType": "address",
          "name": "",
          "type": "address"
        }
      ],
      "stateMutability": "view",
      "type": "function"
    },
    {
      "inputs": [],
      "name": "paused",
      "outputs": [
        {
          "internalType": "bool",
          "name": "",
          "type": "bool"
        }
      ],
      "stateMutability": "view",
      "type": "function"
    },
    {
      "inputs": [],
      "name": "platformFeePercentage",
      "outputs": [
        {
          "internalType": "uint256",
          "name": "",
          "type": "uint256"
        }
      ],
      "stateMutability": "view",
      "type": "function"
    },
    {
      "inputs": [],
      "name": "renounceOwnership",
      "outputs": [],
      "stateMutability": "nonpayable",
      "type": "function"
    },
    {
      "inputs": [
        {
          "internalType": "address",
          "name": "token",
          "type": "address"
        },
        {
          "internalType": "uint256",
          "name": "amount",
          "type": "uint256"
        }
      ],
      "name": "rescueERC20",
      "outputs": [],
      "stateMutability": "nonpayable",
      "type": "function"
    },
    {
      "inputs": [],
      "name": "rescueETH",
      "outputs": [],
      "stateMutability": "nonpayable",
      "type": "function"
    },
    {
      "inputs": [
        {
          "internalType": "uint256",
          "name": "_maxParticipants",
          "type": "uint256"
        }
      ],
      "name": "setMaxParticipants",
      "outputs": [],
      "stateMutability": "nonpayable",
      "type": "function"
    },
    {
      "inputs": [
        {
          "internalType": "uint256",
          "name": "_feePercentage",
          "type": "uint256"
        },
        {
          "internalType": "address",
          "name": "_feeRecipient",
          "type": "address"
        }
      ],
      "name": "setPlatformFee",
      "outputs": [],
      "stateMutability": "nonpayable",
      "type": "function"
    },
    {
      "inputs": [
        {
          "internalType": "uint256",
          "name": "_minDuration",
          "type": "uint256"
        },
        {
          "internalType": "uint256",
          "name": "_maxDuration",
          "type": "uint256"
        }
      ],
      "name": "setSwapDurationLimits",
      "outputs": [],
      "stateMutability": "nonpayable",
      "type": "function"
    },
    {
      "inputs": [
        {
          "internalType": "bytes4",
          "name": "interfaceId",
          "type": "bytes4"
        }
      ],
      "name": "supportsInterface",
      "outputs": [
        {
          "internalType": "bool",
          "name": "",
          "type": "bool"
        }
      ],
      "stateMutability": "view",
      "type": "function"
    },
    {
      "inputs": [
        {
          "internalType": "bytes32",
          "name": "",
          "type": "bytes32"
        }
      ],
      "name": "swapExists",
      "outputs": [
        {
          "internalType": "bool",
          "name": "",
          "type": "bool"
        }
      ],
      "stateMutability": "view",
      "type": "function"
    },
    {
      "inputs": [
        {
          "internalType": "bytes32",
          "name": "",
          "type": "bytes32"
        }
      ],
      "name": "swaps",
      "outputs": [
        {
          "internalType": "bytes32",
          "name": "swapId",
          "type": "bytes32"
        },
        {
          "internalType": "uint256",
          "name": "createdAt",
          "type": "uint256"
        },
        {
          "internalType": "uint256",
          "name": "expiresAt",
          "type": "uint256"
        },
        {
          "internalType": "enum MultiPartyNFTSwap.SwapStatus",
          "name": "status",
          "type": "uint8"
        },
        {
          "internalType": "address",
          "name": "initiator",
          "type": "address"
        }
      ],
      "stateMutability": "view",
      "type": "function"
    },
    {
      "inputs": [
        {
          "internalType": "address",
          "name": "newOwner",
          "type": "address"
        }
      ],
      "name": "transferOwnership",
      "outputs": [],
      "stateMutability": "nonpayable",
      "type": "function"
    },
    {
      "inputs": [
        {
          "internalType": "address",
          "name": "",
          "type": "address"
        },
        {
          "internalType": "uint256",
          "name": "",
          "type": "uint256"
        }
      ],
      "name": "userActiveSwaps",
      "outputs": [
        {
          "internalType": "bytes32",
          "name": "",
          "type": "bytes32"
        }
      ],
      "stateMutability": "view",
      "type": "function"
    }
  ],
  "bytecode": "0x6080806040523461001657613896908161001c8239f35b600080fdfe608080604052600436101561001357600080fd5b60003560e01c90816301ffc9a714612d1c575080630d8e6e2c14612c83578063118c12de14612bcf578063150b7a0214612b7957806320800a0014612ad657806324924bf714612ab85780632bf7299b14612a105780632d53ca96146129df5780633b1cc44e1461292757806346904840146128fe578063485cc9551461274b5780634a4e3bd51461268b5780634c000575146125d257806351858e271461254c5780635c975abb146125295780636bfec360146124a35780636e492d1c146123be578063715018a6146123615780637444ddfc146121975780638cd4426d146120475780638da5cb5b1461201e57806392654efa14611987578063999dc5c1146119695780639fe797771461194b578063b1ff6e0a146117bb578063b4d884f6146116f3578063bc197c8114611668578063c44a892314611638578063cdd78cfc1461161a578063ce44c3641461058d578063e35468cb1461034c578063eb84e7f2146102e2578063f23a6e611461028c578063f2f93de2146102345763f2fde38b146101a057600080fd5b3461022f57602036600319011261022f576101b9612d87565b6101c1612ecd565b6001600160a01b038116156101db576101d990612f25565b005b60405162461bcd60e51b815260206004820152602660248201527f4f776e61626c653a206e6577206f776e657220697320746865207a65726f206160448201526564647265737360d01b6064820152608490fd5b600080fd5b3461022f57604036600319011261022f5761024d612d87565b6001600160a01b0316600090815260cb602052604090208054602435919082101561022f5760209161027e91612e9f565b90546040519160031b1c8152f35b3461022f5760a036600319011261022f576102a5612d87565b506102ae612d9d565b506084356001600160401b03811161022f576102ce903690600401612dc7565b505060405163f23a6e6160e01b8152602090f35b3461022f57602036600319011261022f5760043560005260c960205260a060406000208054906002810154906004600382015491015491604051938452602084015260408301526103396060830160ff8316612df4565b60081c6000196001841b01166080820152f35b3461022f5760208060031936011261022f57600435908160005260ca815260ff9161037d836040600020541661315c565b8060005260c9825260039061039a8260406000200154421061319e565b6103a43382613754565b15610548576103b1613106565b6103b96130c2565b8060005260c983526040600020916004830192858454166005811015610532576104ed57600094600196879687809401935b61043e575b505050505061042791925033817fbfece94188ca5510ff29b3892f68dc16c81be915972f251498a734915bae128e600080a3613377565b61043057508055005b805460ff1916821790558055005b83548110156104e8576104518185613050565b50546001600160a01b031633146104715761046b9061301f565b876103eb565b9380959697506104818585613050565b500154166104b1575061042793929161049991613050565b5001805460ff191685179055839291858080806103f0565b6064906040519062461bcd60e51b82526004820152601060248201526f105b1c9958591e48185c1c1c9bdd995960821b6044820152fd5b6103f0565b60405162461bcd60e51b815260048101869052601a60248201527f53776170206e6f7420696e2063726561746564207374617475730000000000006044820152606490fd5b634e487b7160e01b600052602160045260246000fd5b60405162461bcd60e51b815260048101849052601e60248201527f4e6f742061207061727469636970616e7420696e2074686973207377617000006044820152606490fd5b3461022f57606036600319011261022f576024356001600160401b03811161022f576105bd903690600401612e01565b6105c5613106565b6105cd6130c2565b60043560005260ca60205260ff604060002054166115df576002811061159a576105fb60cc54821115612fce565b60ce54604435106115605760cd54604435116115275760005b818110610f62575060005b818110610ebd5750906000805b838110610e9d575061063d906135a6565b6000805b848110610e6f5750610652906135a6565b600080805b868310610d86575050506000935b82518510156107c65760009360005b83518110156107bc576001600160a01b0380610690898861361a565b5151169061069e838761361a565b5151161480610797575b80610772575b80610749575b6106c6576106c19061301f565b610674565b50949091935060015b156106e5576106dd9061301f565b939290610665565b60405162461bcd60e51b815260206004820152603660248201527f556e62616c616e636564207472616465202d20676976656e204e465420686173604482015275081b9bc81b585d18da1a5b99c81c9958da5c1a595b9d60521b6064820152608490fd5b506060610756888761361a565b51015115156060610767838761361a565b5101511515146106b4565b50608080610780898861361a565b5101519061078e838761361a565b510151146106ae565b5060206107a4888761361a565b51015160206107b3838761361a565b510151146106a8565b50949091936106cf565b916000935b825185101561092b5760009360005b8351811015610921576001600160a01b03806107f6898861361a565b51511690610804838761361a565b51511614806108fc575b806108d7575b806108ae575b61082c576108279061301f565b6107da565b50949091935060015b1561084b576108439061301f565b9392906107cb565b60405162461bcd60e51b815260206004820152603560248201527f556e62616c616e636564207472616465202d207265636569766564204e4654206044820152743430b99037379036b0ba31b434b7339033b4bb32b960591b6064820152608490fd5b5060606108bb888761361a565b510151151560606108cc838761361a565b51015115151461081a565b506080806108e5898861361a565b510151906108f3838761361a565b51015114610814565b506020610909888761361a565b5101516020610918838761361a565b5101511461080e565b5094909193610835565b8360043560005260c96020526040600020600435815542600282015561095360443542613012565b60038201556004810180546001600160a81b0319163360081b610100600160a81b031617905560005b8281106109df575060039060043560005260ca6020526040600020600160ff198254161790550154604051918252602082015233907f65b0c4090dd7502e249bb7170070a58ae3bd4d30790e87091ce732a3b9e0ef06604060043592a360018055005b6109ea81848661302e565b6001830154600160401b811015610b5c57806001610a119201600186015560018501613050565b610d70576001600160a01b03610a268361306c565b82546001600160a01b0319169116178155610a446020830183613080565b90600160401b8211610b5c576001830154826001850155808310610d0f575b50600183016000526020600020906000905b838210610c7c5750505050610a8d6040830183613080565b90600160401b8211610b5c576002830154826002850155808310610c05575b50600283016000526020600020906000905b838210610b72575050505060606003610ad9920192016130b5565b151560ff8019835416911617905560018060a01b03610b01610afc83868861302e565b61306c565b1660005260cb6020526040600020908154600160401b811015610b5c57610b3481610b57946001610b5094018155612e9f565b6004929192359083549060031b91821b91600019901b19161790565b905561301f565b61097c565b634e487b7160e01b600052604160045260246000fd5b6001906004906001600160a01b03610b898261306c565b166001600160601b0360a01b8654161785556020810135838601556002850190838060a01b03610bbb6040830161306c565b16918054610bcb606084016130b5565b15159360a09460ff60a01b90861b16916affffffffffffffffffffff60a81b16171790556080810135600387015501930191019091610abe565b6001600160fe1b038181168203610c665783168303610c66576002840160005260206000208360021b81015b8260021b82018110610c44575050610aac565b8060006004925560006001820155600060028201556000600382015501610c31565b634e487b7160e01b600052601160045260246000fd5b6001906004906001600160a01b03610c938261306c565b166001600160601b0360a01b8654161785556020810135838601556002850190838060a01b03610cc56040830161306c565b16918054610cd5606084016130b5565b15159360a09460ff60a01b90861b16916affffffffffffffffffffff60a81b16171790556080810135600387015501930191019091610a75565b6001600160fe1b038181168203610c665783168303610c66576001840160005260206000208360021b81015b8260021b82018110610d4e575050610a63565b8060006004925560006001820155600060028201556000600382015501610d3b565b634e487b7160e01b600052600060045260246000fd5b60009692969591949395945b87610dab610da182878761302e565b6020810190613080565b9050871015610e0257610dfc91610ddb610dd689610dd0610da1610df6968b8b61302e565b906131dd565b61323c565b610de5828961361a565b52610df0818861361a565b5061301f565b9561301f565b94610d92565b5094509094926000915b610e24610e1a89868a61302e565b6040810190613080565b9050831015610e5557610e49610e4f91610ddb610dd686610dd0610e1a8e8b8f61302e565b9261301f565b91610e0c565b92939596610e659195925061301f565b9195949295610657565b90610e8f610e9591610e87610e1a8589899a9961302e565b919050613012565b9161301f565b939293610641565b90610e8f610eb591610e87610da1858888999861302e565b92919261062c565b610ecb610da182848661302e565b9050151580610f4a575b15610ee857610ee39061301f565b61061f565b60405162461bcd60e51b815260206004820152603460248201527f556e62616c616e636564207472616465202d207061727469636970616e74206d604482015273757374206769766520616e64207265636569766560601b6064820152608490fd5b50610f59610e1a82848661302e565b90501515610ed5565b6001600160a01b03610f78610afc83858761302e565b16156114e257610f8c610da182848661302e565b90501561148e57610fa1610e1a82848661302e565b9050156114375760018101808211610c66575b8281106113b6575060005b610fcd610da183858761302e565b90508110156113a757610feb610dd682610dd0610da186888a61302e565b80519091906001600160a01b03161561136b5760608201511561119d5781516001600160a01b031691611059906020611028610afc87898b61302e565b82820151604051627eeac760e11b81526001600160a01b039092166004830152602482015292839081906044820190565b0381875afa91821561111757600092611168575b5060800151116111235760206110bd9261108b610afc86888a61302e565b60405163e985e9c560e01b81526001600160a01b03909116600482015230602482015293849190829081906044820190565b03915afa918215611117576110e3926110de916000916110e8575b506132d1565b61301f565b610fbf565b61110a915060203d602011611110575b611102818361321b565b8101906132b9565b876110d8565b503d6110f8565b6040513d6000823e3d90fd5b60405162461bcd60e51b815260206004820152601860248201527f496e73756666696369656e74204e46542062616c616e636500000000000000006044820152606490fd5b9091506020813d602011611195575b816111846020938361321b565b8101031261022f575190608061106d565b3d9150611177565b60018060a01b038251166020830151604051906331a9108f60e11b82526004820152602081602481855afa9081156111175760009161134c575b506001600160a01b036111ee610afc87898b61302e565b166001600160a01b039091160361130757611242926020611213610afc87898b61302e565b60405163e985e9c560e01b81526001600160a01b03909116600482015230602482015294859081906044820190565b0381855afa938415611117576000946112e6575b50831561126c575b50506110de6110e3926132d1565b602091935081015160246040518095819363020604bf60e21b835260048301525afa918215611117576110e3926110de916000916112b7575b506001600160a01b031630149261125e565b6112d9915060203d6020116112df575b6112d1818361321b565b81019061329a565b876112a5565b503d6112c7565b61130091945060203d60201161111057611102818361321b565b9287611256565b60405162461bcd60e51b815260206004820152601c60248201527f5061727469636970616e7420646f6573206e6f74206f776e204e4654000000006044820152606490fd5b611365915060203d6020116112df576112d1818361321b565b876111d7565b60405162461bcd60e51b8152602060048201526014602482015273125b9d985b1a59081391950818dbdb9d1c9858dd60621b6044820152606490fd5b506113b19061301f565b610614565b6113c4610afc83858761302e565b6001600160a01b036113da610afc84878961302e565b6001600160a01b039092169116146113fa576113f59061301f565b610fb4565b60405162461bcd60e51b8152602060048201526015602482015274111d5c1b1a58d85d19481c185c9d1a58da5c185b9d605a1b6044820152606490fd5b60405162461bcd60e51b815260206004820152602960248201527f5061727469636970616e74206d7573742072656365697665206174206c6561736044820152681d081bdb994813919560ba1b6064820152608490fd5b60405162461bcd60e51b815260206004820152602660248201527f5061727469636970616e74206d7573742067697665206174206c65617374206f6044820152651b994813919560d21b6064820152608490fd5b60405162461bcd60e51b815260206004820152601b60248201527f496e76616c6964207061727469636970616e74206164647265737300000000006044820152606490fd5b60405162461bcd60e51b81526020600482015260116024820152704475726174696f6e20746f6f206c6f6e6760781b6044820152606490fd5b60405162461bcd60e51b8152602060048201526012602482015271111d5c985d1a5bdb881d1bdbc81cda1bdc9d60721b6044820152606490fd5b60405162461bcd60e51b815260206004820152601f60248201527f4d696e696d756d2032207061727469636970616e7473207265717569726564006044820152606490fd5b60405162461bcd60e51b81526020600482015260136024820152725377617020616c72656164792065786973747360681b6044820152606490fd5b3461022f57600036600319011261022f57602060cf54604051908152f35b3461022f57604036600319011261022f57602061165e611656612d9d565b600435613754565b6040519015158152f35b3461022f5760a036600319011261022f57611681612d87565b5061168a612d9d565b506001600160401b0360443581811161022f576116ab903690600401612e01565b505060643581811161022f576116c5903690600401612e01565b505060843590811161022f576116df903690600401612dc7565b505060405163bc197c8160e01b8152602090f35b3461022f57604036600319011261022f5760043561170f612d9d565b611717612ecd565b6101f48211611787577f75fb21c92262816a2d319654f21a740da5dda05951b9650bb4506b67335896709160809160cf549160d054918160cf5560018060a01b0380911692836001600160601b0360a01b82161760d05560405194855216602084015260408301526060820152a1005b60405162461bcd60e51b815260206004820152600c60248201526b08ccaca40e8dede40d0d2ced60a31b6044820152606490fd5b3461022f5760208060031936011261022f576004358060005260ca825260ff906117eb826040600020541661315c565b60005260c98252600191826040600020019081546118088161358f565b93611816604051958661321b565b8185528285018094600052836000206000915b8483106118d45750505050506040519384938285019083865251809152604085019260408260051b87010194936000905b8382106118675787870388f35b918496819592949698508190603f198b820301855289519060018060a01b0382511681526118b66118a48484015160808087860152840190612e31565b60408401518382036040850152612e31565b9160608091015115159101529801920192018796959391949261185a565b6040989697959851608081018181106001600160401b03821117610b5c5760405282546001600160a01b0316815287916004918b91906119158686016137c8565b83820152611925600287016137c8565b604082015287600387015416151560608201528152019201920191909794969597611829565b3461022f57600036600319011261022f57602060cd54604051908152f35b3461022f57600036600319011261022f57602060ce54604051908152f35b3461022f57602036600319011261022f5760043560005260ca6020526119b460ff6040600020541661315c565b60043560005260c96020526119d2600360406000200154421061319e565b6119da613106565b6119e26130c2565b60043560005260c9602052604060002060ff600482015416600581101561053257600103611fd95760043560005260c960205260406000206000906001810154915b828110611c955760048035600090815260c960205260408120918201805460ff19166002179055855b6001830154821015611c0057611a668260018501613050565b509260005b600185018054821015611beb5781611a8291613050565b50805460018201549192916001600160a01b0391821691611aa6828460043561362e565b16908115611ba657600285015460a09390841c60ff1615611b4e5750508354885460018601546003909601546001600160a01b03928316949290911690843b1561022f5760009460c4938692604051998a978896637921219560e11b8852600488015260248701526044860152606485015260848401528160a48401525af191821561111757611b3a92611b3f575061301f565b611a6b565b611b48906131ed565b86610df0565b89549195506001600160a01b039091169250803b1561022f57600092836064926040519788958694632142170760e11b86526004860152602485015260448401525af191821561111757611b3a92611b3f575061301f565b60405162461bcd60e51b815260206004820152601a60248201527f4e6f20726563697069656e7420666f756e6420666f72204e46540000000000006044820152606490fd5b505091611bf991935061301f565b9091611a4d565b60019060cf54151580611c83575b611c73575b6004818101805460ff19166002179055611c2d90356133ca565b0154611c3a600435613538565b60405191825260208201527f40cad0fc6608ab3d2ae001f577ab42bcfb812d314e78770986cfc1d2025fbe12604060043592a260018055005b611c7e6004356136df565b611c13565b50818060a01b0360d054161515611c0e565b611ca28160018401613050565b50600181015460005b818110611cc357505050611cbe9061301f565b611a24565b611cd08160018501613050565b509060ff600283015460a01c16600014611e3457815484546001840154604051627eeac760e11b81526001600160a01b039283166004820181905260248201929092529094919092169190602082604481865afa91821561111757600092611dff575b506003015411611dae5760405163e985e9c560e01b81526001600160a01b03939093166004840152306024840152602090839060449082905afa91821561111757611d8a926110de91600091611d8f575b5061331d565b611cab565b611da8915060203d60201161111057611102818361321b565b8a611d84565b60405162461bcd60e51b8152602060048201526024808201527f4e46542062616c616e6365206368616e676564206265666f72652065786563756044820152633a34b7b760e11b6064820152608490fd5b9091506020813d602011611e2c575b81611e1b6020938361321b565b8101031261022f5751906003611d33565b3d9150611e0e565b81546001909201546040516331a9108f60e11b815260048101829052926001600160a01b031690602084602481855afa93841561111757600094611fb8575b5085546001600160a01b039081169416849003611f645760405163e985e9c560e01b81526001600160a01b03949094166004850152306024850152602084604481855afa93841561111757600094611f43575b508315611edc575b50506110de611d8a9261331d565b602091935060246040518095819363020604bf60e21b835260048301525afa91821561111757611d8a926110de91600091611f24575b506001600160a01b0316301492611ece565b611f3d915060203d6020116112df576112d1818361321b565b8a611f12565b611f5d91945060203d60201161111057611102818361321b565b928a611ec6565b60405162461bcd60e51b815260206004820152602660248201527f4e4654206f776e657273686970206368616e676564206265666f72652065786560448201526531baba34b7b760d11b6064820152608490fd5b611fd291945060203d6020116112df576112d1818361321b565b928a611e73565b60405162461bcd60e51b815260206004820152601760248201527f53776170206e6f742066756c6c7920617070726f7665640000000000000000006044820152606490fd5b3461022f57600036600319011261022f576097546040516001600160a01b039091168152602090f35b3461022f57604036600319011261022f57612060612d87565b6024359061206c612ecd565b6001600160a01b0390811690811561215a5782156121155760975460405163a9059cbb60e01b81529082166001600160a01b0316600482015260248101849052906020826044816000875af1908115611117577ffb475a842bad10d3800b61bd1a92e716051afba979b124b583bd99a2d1d7bfd5926020926120f8575b506097541693604051908152a3005b61210e90833d811161111057611102818361321b565b50856120e9565b60405162461bcd60e51b815260206004820152601d60248201527f416d6f756e74206d7573742062652067726561746572207468616e20300000006044820152606490fd5b60405162461bcd60e51b8152602060048201526015602482015274496e76616c696420746f6b656e206164647265737360581b6044820152606490fd5b3461022f57604036600319011261022f576004356024356001600160401b03811161022f576121ca903690600401612dc7565b91908160005260209060ca82526121e860ff6040600020541661315c565b6121f0613106565b8260005260c982526040600020600481019081549060ff82166005811015610532578015908115612356575b50156123115761222c3387613754565b908115612302575b5080156122ee575b156122a95760ff191660031790557f29adbae4ff5b8c2237359749739c137328cb4681c1fff7cfd20fa91fef97439291908490612278856133ca565b816040519380855284015260408301376000604085830101526040813395601f80199101168101030190a360018055005b60405162461bcd60e51b815260048101859052601860248201527f4e6f7420617574686f72697a656420746f2063616e63656c00000000000000006044820152606490fd5b506097546001600160a01b0316331461223c565b60039150015442101587612234565b60405162461bcd60e51b815260048101869052601b60248201527f43616e6e6f742063616e63656c206578656375746564207377617000000000006044820152606490fd5b60019150148861221c565b3461022f57600036600319011261022f5761237a612ecd565b609780546001600160a01b031981169091556000906001600160a01b03167f8be0079c531659141344cd1fd0a4f28419497f9722a3daafe3b4186f6b6457e08280a3005b3461022f5760208060031936011261022f576004356001600160401b03811161022f576123ef903690600401612e01565b909160005b8281106123fd57005b806124299160051b8501358060005260ca845260ff604060002054168061248d575b61242e575061301f565b6123f4565b60c98085526004604060002001600460ff1982541617905561244f826133ca565b8160005284527fb48ef62ffb44e6804bf61ba9e20b5439e423723b6c24763e06d8024f3bc2bba084600360406000200154604051908152a285610df0565b5060c9845260036040600020015442101561241f565b3461022f57602036600319011261022f576004358060005260ca6020526124d160ff6040600020541661315c565b60005260c960205260a0604060002060048101546001820154916003600282015491015490604051936125078560ff8616612df4565b60208501526040840152606083015260081c6000196001841b01166080820152f35b3461022f57600036600319011261022f57602060ff606554166040519015158152f35b3461022f57600036600319011261022f57612565612ecd565b61256d6130c2565b600160ff1960655416176065557f62e78cea01bee320cd4e420270b5ea74000d11b0c9f74754ebdbfc544b05a2586020604051338152a16040514281527f9506e519f3e4ce17dda1136d3ba3d3465dc873c49a6191e0fd209f33959a00cd60203392a2005b3461022f57602036600319011261022f576004358060005260ca60205260ff90612602826040600020541661315c565b60005260c960205260406000209060009060009060018401938454925b83811061265257506080945060040154169161263e6040518094612df4565b818114602084015260408301526060820152f35b82600361265f8389613050565b50015416612676575b6126719061301f565b61261f565b936126836126719161301f565b949050612668565b3461022f57600036600319011261022f576126a4612ecd565b60655460ff81161561270f5760ff19166065557f5db9ee0a495bf2e6ff9c91a7834c1ba4fdd244a5e8aa4e537bd38aeae4b073aa6020604051338152a16040514281527fdb5c0bc39850eb0ddb99fae67eecd7ee594120d92d1c0db6c3252252a4fc335660203392a2005b60405162461bcd60e51b815260206004820152601460248201527314185d5cd8589b194e881b9bdd081c185d5cd95960621b6044820152606490fd5b3461022f57604036600319011261022f57612764612d87565b61276c612d9d565b60005460ff8160081c1615928380946128f1575b80156128da575b1561287e576127ee6127fc9260ff19908660018383161760005561286c575b5060ff60005460081c16906127ba82612f6e565b6127c382612f6e565b600180556127d082612f6e565b6127d982612f6e565b606554166065556127e981612f6e565b612f6e565b6127f733612f25565b612f25565b60018060a01b03166001600160601b0360a01b60d054161760d055600a60cc556201518060cd55610e1060ce55600060cf5561283457005b61ff0019600054166000557f7f26b83ff96e1f2b6a682f133852f6798a09c465da95921460cefb3847402498602060405160018152a1005b61ffff191661010117600055866127a6565b60405162461bcd60e51b815260206004820152602e60248201527f496e697469616c697a61626c653a20636f6e747261637420697320616c72656160448201526d191e481a5b9a5d1a585b1a5e995960921b6064820152608490fd5b50303b1580156127875750600160ff831614612787565b50600160ff831610612780565b3461022f57600036600319011261022f5760d0546040516001600160a01b039091168152602090f35b3461022f57604036600319011261022f57600435602435612946612ecd565b8082101561299a577fa2fefb4d31c92ab985fd34ade48d3864316cba244f7126a2779e83b082c162209160809160ce549160cd548160ce558260cd55604051938452602084015260408301526060820152a1005b60405162461bcd60e51b815260206004820152601760248201527f496e76616c6964206475726174696f6e206c696d6974730000000000000000006044820152606490fd5b3461022f57602036600319011261022f5760043560005260ca602052602060ff604060002054166040519015158152f35b3461022f57602036600319011261022f57600435612a2c612ecd565b60028110612a7a57604081612a6560327f43f71dfd216eaaf2f75bdb23d66ae4f5b7e2975e422538b68ef11b46b3874098941115612fce565b60cc54908060cc5582519182526020820152a1005b60405162461bcd60e51b81526020600482015260166024820152754d696e696d756d2032207061727469636970616e747360501b6044820152606490fd5b3461022f57600036600319011261022f57602060cc54604051908152f35b3461022f57600036600319011261022f57612aef612ecd565b478015612b415760018060a01b03600080808085856097541682f1156111175760207fcd7fef3a642dcf99ce1004b2a15d31e91398f01974500b64eab8fc50fef2d3b1916097541692604051908152a2005b60405162461bcd60e51b815260206004820152601060248201526f4e6f2045544820746f2072657363756560801b6044820152606490fd5b3461022f57608036600319011261022f57612b92612d87565b50612b9b612d9d565b506064356001600160401b03811161022f57612bbb903690600401612dc7565b5050604051630a85bd0160e11b8152602090f35b3461022f5760208060031936011261022f576001600160a01b03612bf1612d87565b1660005260cb8152604060002060405190818382549182815201908192600052846000209060005b86828210612c6f578686612c2f8288038361321b565b604051928392818401908285525180915260408401929160005b828110612c5857505050500390f35b835185528695509381019392810192600101612c49565b835485529093019260019283019201612c19565b3461022f57600036600319011261022f57604051604081018181106001600160401b03821117610b5c57604052600d81526020906c0c4b8c4b8c0b585d591a5d1959609a1b82820152604051828193825282519081818401526000935b828510612d03575050604092506000838284010152601f80199101168101030190f35b8481018201518686016040015293810193859350612ce0565b3461022f57602036600319011261022f576004359063ffffffff60e01b821680920361022f57602091630a85bd0160e11b8114908115612d76575b8115612d65575b5015158152f35b6301ffc9a760e01b14905083612d5e565b630271189760e51b81149150612d57565b600435906001600160a01b038216820361022f57565b602435906001600160a01b038216820361022f57565b35906001600160a01b038216820361022f57565b9181601f8401121561022f578235916001600160401b03831161022f576020838186019501011161022f57565b9060058210156105325752565b9181601f8401121561022f578235916001600160401b03831161022f576020808501948460051b01011161022f57565b90815180825260208080930193019160005b828110612e51575050505090565b835180516001600160a01b0390811687528184015187850152604080830151909116908701526060808201511515908701526080908101519086015260a09094019392810192600101612e43565b8054821015612eb75760005260206000200190600090565b634e487b7160e01b600052603260045260246000fd5b6097546001600160a01b03163303612ee157565b606460405162461bcd60e51b815260206004820152602060248201527f4f776e61626c653a2063616c6c6572206973206e6f7420746865206f776e65726044820152fd5b609780546001600160a01b039283166001600160a01b0319821681179092559091167f8be0079c531659141344cd1fd0a4f28419497f9722a3daafe3b4186f6b6457e0600080a3565b15612f7557565b60405162461bcd60e51b815260206004820152602b60248201527f496e697469616c697a61626c653a20636f6e7472616374206973206e6f74206960448201526a6e697469616c697a696e6760a81b6064820152608490fd5b15612fd557565b60405162461bcd60e51b8152602060048201526015602482015274546f6f206d616e79207061727469636970616e747360581b6044820152606490fd5b91908201809211610c6657565b6000198114610c665760010190565b9190811015612eb75760051b81013590607e198136030182121561022f570190565b8054821015612eb75760005260206000209060021b0190600090565b356001600160a01b038116810361022f5790565b903590601e198136030182121561022f57018035906001600160401b03821161022f576020019160a082023603831361022f57565b35801515810361022f5790565b60ff606554166130ce57565b60405162461bcd60e51b815260206004820152601060248201526f14185d5cd8589b194e881c185d5cd95960821b6044820152606490fd5b600260015414613117576002600155565b60405162461bcd60e51b815260206004820152601f60248201527f5265656e7472616e637947756172643a207265656e7472616e742063616c6c006044820152606490fd5b1561316357565b60405162461bcd60e51b815260206004820152601360248201527214ddd85c08191bd95cc81b9bdd08195e1a5cdd606a1b6044820152606490fd5b156131a557565b60405162461bcd60e51b815260206004820152601060248201526f14ddd85c081a185cc8195e1c1a5c995960821b6044820152606490fd5b9190811015612eb75760a0020190565b6001600160401b038111610b5c57604052565b60a081019081106001600160401b03821117610b5c57604052565b90601f801991011681019081106001600160401b03821117610b5c57604052565b60a08136031261022f576040519061325382613200565b61325c81612db3565b82526020810135602083015261327460408201612db3565b6040830152606081013590811515820361022f5760809160608401520135608082015290565b9081602091031261022f57516001600160a01b038116810361022f5790565b9081602091031261022f5751801515810361022f5790565b156132d857565b60405162461bcd60e51b815260206004820152601960248201527f4e4654206e6f7420617070726f76656420666f722073776170000000000000006044820152606490fd5b1561332457565b60405162461bcd60e51b815260206004820152602560248201527f4e465420617070726f76616c207265766f6b6564206265666f726520657865636044820152643aba34b7b760d91b6064820152608490fd5b600090815260c96020526040812060010180549190815b83811061339e5750505050600190565b60ff60036133ac8385613050565b50015416156133c3576133be9061301f565b61338e565b5050905090565b60009080825260209060c98252604080842092849360019485809201915b6133f6575b50505050505050565b815481101561353357969594939291906134108882613050565b50546001600160a01b0316865260cb825282862086865b613444575b505061343a8596979861301f565b90919293946133e8565b81548082101561352d57869061345a8385612e9f565b929054600393841b1c1461348a5750509561347c8198999a939495969761301f565b909695949392999897613427565b90929160001991828101908111613519576134b86134ab6134cf9286612e9f565b905490871b1c9285612e9f565b819391549060031b91821b91600019901b19161790565b90558154801561350557918161343a94928a9b9c9d9401926134f18484612e9f565b81939154921b1b191690555598979661342c565b634e487b7160e01b8a52603160045260248afd5b634e487b7160e01b8b52601160045260248bfd5b5061342c565b6133ed565b60005260c9602052604060002060009081906001809101908154915b828410613562575050505090565b9091929361358161358791846135788886613050565b50015490613012565b9461301f565b929190613554565b6001600160401b038111610b5c5760051b60200190565b906135b08261358f565b6040906135bf8251918261321b565b83815280936135d0601f199161358f565b019160005b8381106135e25750505050565b60209082516135f081613200565b600081528260008183015260008583015260006060830152600060808301528286010152016135d5565b8051821015612eb75760209160051b010190565b91600092835260c96020526040832091839260018091018054945b8581106136595750505050505090565b6136638183613050565b508790600281018054925b83811061368757505050506136829061301f565b613649565b6136918183613050565b5060018060a01b03908a8983835416848d161492836136d2575b5050506136c157506136bc9061301f565b61366e565b9a5050509650505050505050541690565b01541490508a89386136ab565b60cf5480158015613741575b61373d578160005260c960205261370182613538565b8082810204821490151715610c665760207ff45996501352220c0143bb7d4599e869f72ce0391bcdcf0c0ca59bd0810dd45a91604051908152a2565b5050565b5060d0546001600160a01b0316156136eb565b90600091825260ca60205260ff604083205416156137c45760c960205260408220829160018092018054935b84811061378f57505050505090565b6137998183613050565b50546001600160a01b038481169116146137bb576137b69061301f565b613780565b50505091505090565b5090565b9081546137d48161358f565b926040936137e48551918261321b565b828152809460208092019260005281600020906000935b85851061380a57505050505050565b600484600192845161381b81613200565b60ff858060a01b03808954168352868901548584015260028901549081168884015260a01c1615156060820152600387015460808201528152019301940193916137fb56fea2646970667358221220dcc4e6529bba83ca6c11a10fbf385179f32145a19acae9b638ca340bbed8689364736f6c63430008130033",
  "linkReferences": {},
  "deployedLinkReferences": {}
}