{
  "_format": "hh-sol-artifact-1",
  "contractName": "SimpleERC721",
  "sourceName": "contracts/SimpleERC721.sol",
  "abi": [
    {
      "inputs": [
        {
          "internalType": "string",
          "name": "name",
          "type": "string"
        },
        {
          "internalType": "string",
          "name": "symbol",
          "type": "string"
        }
      ],
      "stateMutability": "nonpayable",
      "type": "constructor"
    },
    {
      "anonymous": false,
      "inputs": [
        {
          "indexed": true,
          "internalType": "address",
          "name": "owner",
          "type": "address"
        },
        {
          "indexed": true,
          "internalType": "address",
          "name": "approved",
          "type": "address"
        },
        {
          "indexed": true,
          "internalType": "uint256",
          "name": "tokenId",
          "type": "uint256"
        }
      ],
      "name": "Approval",
      "type": "event"
    },
    {
      "anonymous": false,
      "inputs": [
        {
          "indexed": true,
          "internalType": "address",
          "name": "owner",
          "type": "address"
        },
        {
          "indexed": true,
          "internalType": "address",
          "name": "operator",
          "type": "address"
        },
        {
          "indexed": false,
          "internalType": "bool",
          "name": "approved",
          "type": "bool"
        }
      ],
      "name": "ApprovalForAll",
      "type": "event"
    },
    {
      "anonymous": false,
      "inputs": [
        {
          "indexed": true,
          "internalType": "address",
          "name": "from",
          "type": "address"
        },
        {
          "indexed": true,
          "internalType": "address",
          "name": "to",
          "type": "address"
        },
        {
          "indexed": true,
          "internalType": "uint256",
          "name": "tokenId",
          "type": "uint256"
        }
      ],
      "name": "Transfer",
      "type": "event"
    },
    {
      "inputs": [
        {
          "internalType": "address",
          "name": "to",
          "type": "address"
        },
        {
          "internalType": "uint256",
          "name": "tokenId",
          "type": "uint256"
        }
      ],
      "name": "approve",
      "outputs": [],
      "stateMutability": "nonpayable",
      "type": "function"
    },
    {
      "inputs": [
        {
          "internalType": "address",
          "name": "owner",
          "type": "address"
        }
      ],
      "name": "balanceOf",
      "outputs": [
        {
          "internalType": "uint256",
          "name": "",
          "type": "uint256"
        }
      ],
      "stateMutability": "view",
      "type": "function"
    },
    {
      "inputs": [
        {
          "internalType": "address[]",
          "name": "recipients",
          "type": "address[]"
        }
      ],
      "name": "batchMint",
      "outputs": [],
      "stateMutability": "nonpayable",
      "type": "function"
    },
    {
      "inputs": [
        {
          "internalType": "uint256",
          "name": "tokenId",
          "type": "uint256"
        }
      ],
      "name": "getApproved",
      "outputs": [
        {
          "internalType": "address",
          "name": "",
          "type": "address"
        }
      ],
      "stateMutability": "view",
      "type": "function"
    },
    {
      "inputs": [
        {
          "internalType": "address",
          "name": "owner",
          "type": "address"
        },
        {
          "internalType": "address",
          "name": "operator",
          "type": "address"
        }
      ],
      "name": "isApprovedForAll",
      "outputs": [
        {
          "internalType": "bool",
          "name": "",
          "type": "bool"
        }
      ],
      "stateMutability": "view",
      "type": "function"
    },
    {
      "inputs": [
        {
          "internalType": "address",
          "name": "to",
          "type": "address"
        },
        {
          "internalType": "uint256",
          "name": "tokenId",
          "type": "uint256"
        }
      ],
      "name": "mint",
      "outputs": [],
      "stateMutability": "nonpayable",
      "type": "function"
    },
    {
      "inputs": [
        {
          "internalType": "address",
          "name": "to",
          "type": "address"
        }
      ],
      "name": "mintNext",
      "outputs": [
        {
          "internalType": "uint256",
          "name": "",
          "type": "uint256"
        }
      ],
      "stateMutability": "nonpayable",
      "type": "function"
    },
    {
      "inputs": [],
      "name": "name",
      "outputs": [
        {
          "internalType": "string",
          "name": "",
          "type": "string"
        }
      ],
      "stateMutability": "view",
      "type": "function"
    },
    {
      "inputs": [
        {
          "internalType": "uint256",
          "name": "tokenId",
          "type": "uint256"
        }
      ],
      "name": "ownerOf",
      "outputs": [
        {
          "internalType": "address",
          "name": "",
          "type": "address"
        }
      ],
      "stateMutability": "view",
      "type": "function"
    },
    {
      "inputs": [
        {
          "internalType": "address",
          "name": "from",
          "type": "address"
        },
        {
          "internalType": "address",
          "name": "to",
          "type": "address"
        },
        {
          "internalType": "uint256",
          "name": "tokenId",
          "type": "uint256"
        }
      ],
      "name": "safeTransferFrom",
      "outputs": [],
      "stateMutability": "nonpayable",
      "type": "function"
    },
    {
      "inputs": [
        {
          "internalType": "address",
          "name": "from",
          "type": "address"
        },
        {
          "internalType": "address",
          "name": "to",
          "type": "address"
        },
        {
          "internalType": "uint256",
          "name": "tokenId",
          "type": "uint256"
        },
        {
          "internalType": "bytes",
          "name": "data",
          "type": "bytes"
        }
      ],
      "name": "safeTransferFrom",
      "outputs": [],
      "stateMutability": "nonpayable",
      "type": "function"
    },
    {
      "inputs": [
        {
          "internalType": "address",
          "name": "operator",
          "type": "address"
        },
        {
          "internalType": "bool",
          "name": "approved",
          "type": "bool"
        }
      ],
      "name": "setApprovalForAll",
      "outputs": [],
      "stateMutability": "nonpayable",
      "type": "function"
    },
    {
      "inputs": [
        {
          "internalType": "bytes4",
          "name": "interfaceId",
          "type": "bytes4"
        }
      ],
      "name": "supportsInterface",
      "outputs": [
        {
          "internalType": "bool",
          "name": "",
          "type": "bool"
        }
      ],
      "stateMutability": "view",
      "type": "function"
    },
    {
      "inputs": [],
      "name": "symbol",
      "outputs": [
        {
          "internalType": "string",
          "name": "",
          "type": "string"
        }
      ],
      "stateMutability": "view",
      "type": "function"
    },
    {
      "inputs": [
        {
          "internalType": "uint256",
          "name": "tokenId",
          "type": "uint256"
        }
      ],
      "name": "tokenURI",
      "outputs": [
        {
          "internalType": "string",
          "name": "",
          "type": "string"
        }
      ],
      "stateMutability": "view",
      "type": "function"
    },
    {
      "inputs": [
        {
          "internalType": "address",
          "name": "from",
          "type": "address"
        },
        {
          "internalType": "address",
          "name": "to",
          "type": "address"
        },
        {
          "internalType": "uint256",
          "name": "tokenId",
          "type": "uint256"
        }
      ],
      "name": "transferFrom",
      "outputs": [],
      "stateMutability": "nonpayable",
      "type": "function"
    }
  ],
  "bytecode": "0x6080604052346200031c5762001586803803806200001d8162000321565b9283398101906040818303126200031c5780516001600160401b03908181116200031c57836200004f91840162000347565b91602093848201518381116200031c576200006b920162000347565b825190828211620003065760008054926001958685811c95168015620002fb575b88861014620002e7578190601f9586811162000294575b5088908683116001146200023057849262000224575b5050600019600383901b1c191690861b1781555b8151938411620002105784548581811c9116801562000205575b87821014620001f157838111620001a9575b50859284116001146200014457839495509262000138575b5050600019600383901b1c191690821b1781555b6006556040516111cc9081620003ba8239f35b01519050388062000111565b9190601f1984169585845280842093905b878210620001915750508385961062000177575b505050811b01815562000125565b015160001960f88460031b161c1916905538808062000169565b80878596829496860151815501950193019062000155565b8582528682208480870160051c820192898810620001e7575b0160051c019086905b828110620001db575050620000f9565b838155018690620001cb565b92508192620001c2565b634e487b7160e01b82526022600452602482fd5b90607f1690620000e7565b634e487b7160e01b81526041600452602490fd5b015190503880620000b9565b8480528985208994509190601f198416865b8c8282106200027d575050841162000263575b505050811b018155620000cd565b015160001960f88460031b161c1916905538808062000255565b8385015186558c9790950194938401930162000242565b9091508380528884208680850160051c8201928b8610620002dd575b918a91869594930160051c01915b828110620002ce575050620000a3565b8681558594508a9101620002be565b92508192620002b0565b634e487b7160e01b83526022600452602483fd5b94607f16946200008c565b634e487b7160e01b600052604160045260246000fd5b600080fd5b6040519190601f01601f191682016001600160401b038111838210176200030657604052565b919080601f840112156200031c5782516001600160401b03811162000306576020906200037d601f8201601f1916830162000321565b928184528282870101116200031c5760005b818110620003a557508260009394955001015290565b85810183015184820184015282016200038f56fe6040608081526004908136101561001557600080fd5b600091823560e01c908163016ea35a1461095457816301ffc9a7146108e657816306fdde031461081b578163081812fc146107fb578163095ea7b31461068d57816323b872dd1461066357816340c10f191461063e57816342842e0e146105f05781636352211e146105bf57816370a082311461052957816395d89b4114610422578163a22cb46514610356578163b88d4fde146102cc578163c87b56dd146101cc578163d67b06c114610123575063e985e9c5146100d357600080fd5b3461011f578060031936011261011f5760ff816020936100f1610992565b6100f96109ad565b6001600160a01b0391821683526005875283832091168252855220549151911615158152f35b5080fd5b83903461011f57602036600319011261011f57803567ffffffffffffffff918282116101c857366023830112156101c8578101359182116101c4576024906005368385831b840101116101c057845b84811061017d578580f35b80821b8301840135906001600160a01b03821682036101bc57600680546101b7936101b2926101ab83611085565b9055610f8c565b611085565b610172565b8680fd5b8480fd5b8280fd5b8380fd5b8391503461011f57602091826003193601126102c9575080356000818152600260205260409020549091906001600160a01b0316156102765750610212610272916110aa565b92610263603a825180967f68747470733a2f2f6170692e73776170732e636f6d2f6e66742f00000000000087830152610253815180928986860191016109c3565b810103601a810187520185610a40565b519282849384528301906109e6565b0390f35b835162461bcd60e51b8152908101839052602760248201527f4552433732313a2055524920717565727920666f72206e6f6e6578697374656e6044820152663a103a37b5b2b760c91b6064820152608490fd5b80fd5b919050346101c45760803660031901126101c4576102e8610992565b6102f06109ad565b846064359467ffffffffffffffff861161011f573660238701121561011f578501359461032861031f87610a78565b95519586610a40565b858552366024878301011161011f578561035396602460209301838801378501015260443591610ba6565b80f35b919050346101c457806003193601126101c457610371610992565b90602435918215158093036101c0576001600160a01b0316923384146103e05750338452600560205280842083855260205280842060ff1981541660ff8416179055519081527f17307eab39ab6107e8899845ad3d59bd9653f200f220920489ca2b5937696c3160203392a380f35b6020606492519162461bcd60e51b8352820152601960248201527f4552433732313a20617070726f766520746f2063616c6c6572000000000000006044820152fd5b8284346102c957806003193601126102c9578151918160019283549384811c9181861695861561051f575b602096878510811461050c578899509688969785829a5291826000146104e557505060011461048a575b5050506102729291610263910385610a40565b91908693508083527fb10e2d527612073b26eecdfd717e6a320cf44b4afac2b0732d9fcbe2b7fa0cf65b8284106104cd5750505082010181610263610272610477565b8054848a0186015288955087949093019281016104b4565b60ff19168782015293151560051b8601909301935084925061026391506102729050610477565b634e487b7160e01b835260228a52602483fd5b92607f169261044d565b8391503461011f57602036600319011261011f576001600160a01b0361054d610992565b1690811561056a5760208480858581526003845220549051908152f35b608490602085519162461bcd60e51b8352820152602960248201527f4552433732313a2061646472657373207a65726f206973206e6f7420612076616044820152683634b21037bbb732b960b91b6064820152fd5b8284346102c95760203660031901126102c957506105df60209235610ae0565b90516001600160a01b039091168152f35b83833461011f5761060036610a0b565b91835193602085019085821067ffffffffffffffff83111761062b5761035396975052858452610ba6565b634e487b7160e01b875260418852602487fd5b50503461011f573660031901126102c95761035361065a610992565b60243590610f8c565b83346102c95761035361067536610a0b565b916106886106838433610c41565b610b44565b610d09565b9050346101c457816003193601126101c4576106a7610992565b6024359290916001600160a01b03919082806106c287610ae0565b169416938085146107ae5780331490811561078f575b501561072757848652602052842080546001600160a01b031916831790556106ff83610ae0565b167f8c5be1e5ebec7d5bd14f71427d1e84f3dd0314c0f7b2291e5b200ac8c7c3b9258480a480f35b6020608492519162461bcd60e51b8352820152603d60248201527f4552433732313a20617070726f76652063616c6c6572206973206e6f7420746f60448201527f6b656e206f776e6572206f7220617070726f76656420666f7220616c6c0000006064820152fd5b90508652600560205281862033875260205260ff8287205416386106d8565b506020608492519162461bcd60e51b8352820152602160248201527f4552433732313a20617070726f76616c20746f2063757272656e74206f776e656044820152603960f91b6064820152fd5b8284346102c95760203660031901126102c957506105df60209235610b06565b8284346102c957806003193601126102c95781519181825492600184811c918186169586156108dc575b602096878510811461050c578899509688969785829a5291826000146104e5575050600114610881575050506102729291610263910385610a40565b91908693508280527f290decd9548b62a8d60345a988386fc84ba6bc95484008f6362f93160ef3e5635b8284106108c45750505082010181610263610272610477565b8054848a0186015288955087949093019281016108ab565b92607f1692610845565b9050346101c45760203660031901126101c457359063ffffffff60e01b82168092036101c457602092506380ac58cd60e01b8214918215610943575b8215610932575b50519015158152f35b6301ffc9a760e01b14915038610929565b635b5e139f60e01b81149250610922565b50503461011f57602036600319011261011f57602090610972610992565b9061098c600654809361098482611085565b600655610f8c565b51908152f35b600435906001600160a01b03821682036109a857565b600080fd5b602435906001600160a01b03821682036109a857565b60005b8381106109d65750506000910152565b81810151838201526020016109c6565b906020916109ff815180928185528580860191016109c3565b601f01601f1916010190565b60609060031901126109a8576001600160a01b039060043582811681036109a8579160243590811681036109a8579060443590565b90601f8019910116810190811067ffffffffffffffff821117610a6257604052565b634e487b7160e01b600052604160045260246000fd5b67ffffffffffffffff8111610a6257601f01601f191660200190565b15610a9b57565b60405162461bcd60e51b815260206004820152601860248201527f4552433732313a20696e76616c696420746f6b656e20494400000000000000006044820152606490fd5b6000908152600260205260409020546001600160a01b0316610b03811515610a94565b90565b600081815260026020526040902054610b29906001600160a01b03161515610a94565b6000908152600460205260409020546001600160a01b031690565b15610b4b57565b60405162461bcd60e51b815260206004820152602d60248201527f4552433732313a2063616c6c6572206973206e6f7420746f6b656e206f776e6560448201526c1c881bdc88185c1c1c9bdd9959609a1b6064820152608490fd5b90610bca939291610bba6106838433610c41565b610bc5838383610d09565b610e1f565b15610bd157565b60405162461bcd60e51b815280610bea60048201610bee565b0390fd5b60809060208152603260208201527f4552433732313a207472616e7366657220746f206e6f6e20455243373231526560408201527131b2b4bb32b91034b6b83632b6b2b73a32b960711b60608201520190565b906001600160a01b038080610c5584610ae0565b16931691838314938415610c88575b508315610c72575b50505090565b610c7e91929350610b06565b1614388080610c6c565b909350600052600560205260406000208260005260205260ff604060002054169238610c64565b15610cb657565b60405162461bcd60e51b815260206004820152602560248201527f4552433732313a207472616e736665722066726f6d20696e636f72726563742060448201526437bbb732b960d91b6064820152608490fd5b90610d3191610d1784610ae0565b6001600160a01b0393918416928492909183168414610caf565b16918215610dce5781610d4e91610d4786610ae0565b1614610caf565b7fddf252ad1be2c89b69c2b068fc378daa952ba7f163c4a11628f55a4df523b3ef60008481526004602052604081206bffffffffffffffffffffffff60a01b9081815416905583825260036020526040822060001981540190558482526040822060018154019055858252600260205284604083209182541617905580a4565b60405162461bcd60e51b8152602060048201526024808201527f4552433732313a207472616e7366657220746f20746865207a65726f206164646044820152637265737360e01b6064820152608490fd5b9293600093909291803b15610f3557948491610e799660405180948193630a85bd0160e11b9788845233600485015260018060a01b0380921660248501526044840152608060648401528260209b8c9760848301906109e6565b0393165af1849181610ef5575b50610ee4575050503d600014610edc573d610ea081610a78565b90610eae6040519283610a40565b81528091833d92013e5b80519182610ed95760405162461bcd60e51b815280610bea60048201610bee565b01fd5b506060610eb8565b6001600160e01b0319161492509050565b9091508581813d8311610f2e575b610f0d8183610a40565b810103126101c057516001600160e01b0319811681036101c0579038610e86565b503d610f03565b505050915050600190565b15610f4757565b60405162461bcd60e51b815260206004820152601c60248201527f4552433732313a20746f6b656e20616c7265616479206d696e746564000000006044820152606490fd5b6001600160a01b0316801561104157600082815260026020526040902054610fc0906001600160a01b031615155b15610f40565b600082815260026020526040902054610fe3906001600160a01b03161515610fba565b600081815260036020526040812060018154019055828152600260205260408120826bffffffffffffffffffffffff60a01b8254161790557fddf252ad1be2c89b69c2b068fc378daa952ba7f163c4a11628f55a4df523b3ef8180a4565b606460405162461bcd60e51b815260206004820152602060248201527f4552433732313a206d696e7420746f20746865207a65726f20616464726573736044820152fd5b60001981146110945760010190565b634e487b7160e01b600052601160045260246000fd5b801561116757600081805b61115357506110c381610a78565b906110d16040519283610a40565b808252601f196110e082610a78565b013660208401375b8092801561114c576000198201918211611094578193600a92603090848406820180921161109457855111156111365760f81b6001600160f81b03191660001a908401601f015304916110e8565b634e487b7160e01b600052603260045260246000fd5b5050905090565b9061115f600a91611085565b9104806110b5565b506040516040810181811067ffffffffffffffff821117610a625760405260018152600360fc1b60208201529056fea26469706673582212203e4ba7f0746cec3c901de5f6c2a1302c5ff11a1693ab6fce363753f8fbb1be2b64736f6c63430008130033",
  "linkReferences": {},
  "deployedLinkReferences": {}
}