{"contracts/MultiPartyNFTSwap.sol":{"MultiPartyNFTSwap":{"abi":[{"anonymous":false,"inputs":[{"indexed":false,"internalType":"uint256","name":"amount","type":"uint256"},{"indexed":true,"internalType":"address","name":"recipient","type":"address"}],"name":"ETHRescued","type":"event"},{"anonymous":false,"inputs":[{"indexed":true,"internalType":"address","name":"admin","type":"address"},{"indexed":false,"internalType":"uint256","name":"timestamp","type":"uint256"}],"name":"EmergencyPauseActivated","type":"event"},{"anonymous":false,"inputs":[{"indexed":true,"internalType":"address","name":"admin","type":"address"},{"indexed":false,"internalType":"uint256","name":"timestamp","type":"uint256"}],"name":"EmergencyPauseDeactivated","type":"event"},{"anonymous":false,"inputs":[{"indexed":false,"internalType":"uint8","name":"version","type":"uint8"}],"name":"Initialized","type":"event"},{"anonymous":false,"inputs":[{"indexed":false,"internalType":"uint256","name":"oldValue","type":"uint256"},{"indexed":false,"internalType":"uint256","name":"newValue","type":"uint256"}],"name":"MaxParticipantsUpdated","type":"event"},{"anonymous":false,"inputs":[{"indexed":true,"internalType":"address","name":"previousOwner","type":"address"},{"indexed":true,"internalType":"address","name":"newOwner","type":"address"}],"name":"OwnershipTransferred","type":"event"},{"anonymous":false,"inputs":[{"indexed":false,"internalType":"address","name":"account","type":"address"}],"name":"Paused","type":"event"},{"anonymous":false,"inputs":[{"indexed":true,"internalType":"bytes32","name":"swapId","type":"bytes32"},{"indexed":false,"internalType":"uint256","name":"feePercentage","type":"uint256"}],"name":"PlatformFeeCollected","type":"event"},{"anonymous":false,"inputs":[{"indexed":false,"internalType":"uint256","name":"oldFeePercentage","type":"uint256"},{"indexed":false,"internalType":"address","name":"oldFeeRecipient","type":"address"},{"indexed":false,"internalType":"uint256","name":"newFeePercentage","type":"uint256"},{"indexed":false,"internalType":"address","name":"newFeeRecipient","type":"address"}],"name":"PlatformFeeUpdated","type":"event"},{"anonymous":false,"inputs":[{"indexed":true,"internalType":"bytes32","name":"swapId","type":"bytes32"},{"indexed":true,"internalType":"address","name":"participant","type":"address"}],"name":"SwapApproved","type":"event"},{"anonymous":false,"inputs":[{"indexed":true,"internalType":"bytes32","name":"swapId","type":"bytes32"},{"indexed":true,"internalType":"address","name":"canceller","type":"address"},{"indexed":false,"internalType":"string","name":"reason","type":"string"}],"name":"SwapCancelled","type":"event"},{"anonymous":false,"inputs":[{"indexed":true,"internalType":"bytes32","name":"swapId","type":"bytes32"},{"indexed":true,"internalType":"address","name":"initiator","type":"address"},{"indexed":false,"internalType":"uint256","name":"participantCount","type":"uint256"},{"indexed":false,"internalType":"uint256","name":"expiresAt","type":"uint256"}],"name":"SwapCreated","type":"event"},{"anonymous":false,"inputs":[{"indexed":false,"internalType":"uint256","name":"oldMinDuration","type":"uint256"},{"indexed":false,"internalType":"uint256","name":"oldMaxDuration","type":"uint256"},{"indexed":false,"internalType":"uint256","name":"newMinDuration","type":"uint256"},{"indexed":false,"internalType":"uint256","name":"newMaxDuration","type":"uint256"}],"name":"SwapDurationLimitsUpdated","type":"event"},{"anonymous":false,"inputs":[{"indexed":true,"internalType":"bytes32","name":"swapId","type":"bytes32"},{"indexed":false,"internalType":"uint256","name":"participantCount","type":"uint256"},{"indexed":false,"internalType":"uint256","name":"nftCount","type":"uint256"}],"name":"SwapExecuted","type":"event"},{"anonymous":false,"inputs":[{"indexed":true,"internalType":"bytes32","name":"swapId","type":"bytes32"},{"indexed":false,"internalType":"uint256","name":"expiredAt","type":"uint256"}],"name":"SwapExpired","type":"event"},{"anonymous":false,"inputs":[{"indexed":true,"internalType":"address","name":"token","type":"address"},{"indexed":false,"internalType":"uint256","name":"amount","type":"uint256"},{"indexed":true,"internalType":"address","name":"recipient","type":"address"}],"name":"TokensRescued","type":"event"},{"anonymous":false,"inputs":[{"indexed":false,"internalType":"address","name":"account","type":"address"}],"name":"Unpaused","type":"event"},{"inputs":[{"internalType":"bytes32","name":"swapId","type":"bytes32"}],"name":"approveSwap","outputs":[],"stateMutability":"nonpayable","type":"function"},{"inputs":[{"internalType":"bytes32[]","name":"swapIds","type":"bytes32[]"}],"name":"batchCancelExpiredSwaps","outputs":[],"stateMutability":"nonpayable","type":"function"},{"inputs":[{"internalType":"bytes32","name":"swapId","type":"bytes32"},{"internalType":"string","name":"reason","type":"string"}],"name":"cancelSwap","outputs":[],"stateMutability":"nonpayable","type":"function"},{"inputs":[{"internalType":"bytes32","name":"swapId","type":"bytes32"},{"components":[{"internalType":"address","name":"wallet","type":"address"},{"components":[{"internalType":"address","name":"contractAddress","type":"address"},{"internalType":"uint256","name":"tokenId","type":"uint256"},{"internalType":"address","name":"currentOwner","type":"address"},{"internalType":"bool","name":"isERC1155","type":"bool"},{"internalType":"uint256","name":"amount","type":"uint256"}],"internalType":"struct MultiPartyNFTSwap.NFTAsset[]","name":"givingNFTs","type":"tuple[]"},{"components":[{"internalType":"address","name":"contractAddress","type":"address"},{"internalType":"uint256","name":"tokenId","type":"uint256"},{"internalType":"address","name":"currentOwner","type":"address"},{"internalType":"bool","name":"isERC1155","type":"bool"},{"internalType":"uint256","name":"amount","type":"uint256"}],"internalType":"struct MultiPartyNFTSwap.NFTAsset[]","name":"receivingNFTs","type":"tuple[]"},{"internalType":"bool","name":"hasApproved","type":"bool"}],"internalType":"struct MultiPartyNFTSwap.SwapParticipant[]","name":"participants","type":"tuple[]"},{"internalType":"uint256","name":"duration","type":"uint256"}],"name":"createSwap","outputs":[],"stateMutability":"nonpayable","type":"function"},{"inputs":[],"name":"emergencyPause","outputs":[],"stateMutability":"nonpayable","type":"function"},{"inputs":[],"name":"emergencyUnpause","outputs":[],"stateMutability":"nonpayable","type":"function"},{"inputs":[{"internalType":"bytes32","name":"swapId","type":"bytes32"}],"name":"executeSwap","outputs":[],"stateMutability":"nonpayable","type":"function"},{"inputs":[],"name":"feeRecipient","outputs":[{"internalType":"address","name":"","type":"address"}],"stateMutability":"view","type":"function"},{"inputs":[{"internalType":"bytes32","name":"swapId","type":"bytes32"}],"name":"getSwapDetails","outputs":[{"internalType":"enum MultiPartyNFTSwap.SwapStatus","name":"status","type":"uint8"},{"internalType":"uint256","name":"participantCount","type":"uint256"},{"internalType":"uint256","name":"createdAt","type":"uint256"},{"internalType":"uint256","name":"expiresAt","type":"uint256"},{"internalType":"address","name":"initiator","type":"address"}],"stateMutability":"view","type":"function"},{"inputs":[{"internalType":"bytes32","name":"swapId","type":"bytes32"}],"name":"getSwapParticipants","outputs":[{"components":[{"internalType":"address","name":"wallet","type":"address"},{"components":[{"internalType":"address","name":"contractAddress","type":"address"},{"internalType":"uint256","name":"tokenId","type":"uint256"},{"internalType":"address","name":"currentOwner","type":"address"},{"internalType":"bool","name":"isERC1155","type":"bool"},{"internalType":"uint256","name":"amount","type":"uint256"}],"internalType":"struct MultiPartyNFTSwap.NFTAsset[]","name":"givingNFTs","type":"tuple[]"},{"components":[{"internalType":"address","name":"contractAddress","type":"address"},{"internalType":"uint256","name":"tokenId","type":"uint256"},{"internalType":"address","name":"currentOwner","type":"address"},{"internalType":"bool","name":"isERC1155","type":"bool"},{"internalType":"uint256","name":"amount","type":"uint256"}],"internalType":"struct MultiPartyNFTSwap.NFTAsset[]","name":"receivingNFTs","type":"tuple[]"},{"internalType":"bool","name":"hasApproved","type":"bool"}],"internalType":"struct MultiPartyNFTSwap.SwapParticipant[]","name":"","type":"tuple[]"}],"stateMutability":"view","type":"function"},{"inputs":[{"internalType":"bytes32","name":"swapId","type":"bytes32"}],"name":"getSwapStatus","outputs":[{"internalType":"enum MultiPartyNFTSwap.SwapStatus","name":"status","type":"uint8"},{"internalType":"bool","name":"allApproved","type":"bool"},{"internalType":"uint256","name":"approvalCount","type":"uint256"},{"internalType":"uint256","name":"totalParticipants","type":"uint256"}],"stateMutability":"view","type":"function"},{"inputs":[{"internalType":"address","name":"user","type":"address"}],"name":"getUserActiveSwaps","outputs":[{"internalType":"bytes32[]","name":"","type":"bytes32[]"}],"stateMutability":"view","type":"function"},{"inputs":[],"name":"getVersion","outputs":[{"internalType":"string","name":"","type":"string"}],"stateMutability":"pure","type":"function"},{"inputs":[{"internalType":"address","name":"_owner","type":"address"},{"internalType":"address","name":"_feeRecipient","type":"address"}],"name":"initialize","outputs":[],"stateMutability":"nonpayable","type":"function"},{"inputs":[{"internalType":"bytes32","name":"swapId","type":"bytes32"},{"internalType":"address","name":"wallet","type":"address"}],"name":"isParticipant","outputs":[{"internalType":"bool","name":"","type":"bool"}],"stateMutability":"view","type":"function"},{"inputs":[],"name":"maxParticipants","outputs":[{"internalType":"uint256","name":"","type":"uint256"}],"stateMutability":"view","type":"function"},{"inputs":[],"name":"maxSwapDuration","outputs":[{"internalType":"uint256","name":"","type":"uint256"}],"stateMutability":"view","type":"function"},{"inputs":[],"name":"minSwapDuration","outputs":[{"internalType":"uint256","name":"","type":"uint256"}],"stateMutability":"view","type":"function"},{"inputs":[{"internalType":"address","name":"operator","type":"address"},{"internalType":"address","name":"from","type":"address"},{"internalType":"uint256[]","name":"ids","type":"uint256[]"},{"internalType":"uint256[]","name":"values","type":"uint256[]"},{"internalType":"bytes","name":"data","type":"bytes"}],"name":"onERC1155BatchReceived","outputs":[{"internalType":"bytes4","name":"","type":"bytes4"}],"stateMutability":"pure","type":"function"},{"inputs":[{"internalType":"address","name":"operator","type":"address"},{"internalType":"address","name":"from","type":"address"},{"internalType":"uint256","name":"id","type":"uint256"},{"internalType":"uint256","name":"value","type":"uint256"},{"internalType":"bytes","name":"data","type":"bytes"}],"name":"onERC1155Received","outputs":[{"internalType":"bytes4","name":"","type":"bytes4"}],"stateMutability":"pure","type":"function"},{"inputs":[{"internalType":"address","name":"operator","type":"address"},{"internalType":"address","name":"from","type":"address"},{"internalType":"uint256","name":"tokenId","type":"uint256"},{"internalType":"bytes","name":"data","type":"bytes"}],"name":"onERC721Received","outputs":[{"internalType":"bytes4","name":"","type":"bytes4"}],"stateMutability":"pure","type":"function"},{"inputs":[],"name":"owner","outputs":[{"internalType":"address","name":"","type":"address"}],"stateMutability":"view","type":"function"},{"inputs":[],"name":"paused","outputs":[{"internalType":"bool","name":"","type":"bool"}],"stateMutability":"view","type":"function"},{"inputs":[],"name":"platformFeePercentage","outputs":[{"internalType":"uint256","name":"","type":"uint256"}],"stateMutability":"view","type":"function"},{"inputs":[],"name":"renounceOwnership","outputs":[],"stateMutability":"nonpayable","type":"function"},{"inputs":[{"internalType":"address","name":"token","type":"address"},{"internalType":"uint256","name":"amount","type":"uint256"}],"name":"rescueERC20","outputs":[],"stateMutability":"nonpayable","type":"function"},{"inputs":[],"name":"rescueETH","outputs":[],"stateMutability":"nonpayable","type":"function"},{"inputs":[{"internalType":"uint256","name":"_maxParticipants","type":"uint256"}],"name":"setMaxParticipants","outputs":[],"stateMutability":"nonpayable","type":"function"},{"inputs":[{"internalType":"uint256","name":"_feePercentage","type":"uint256"},{"internalType":"address","name":"_feeRecipient","type":"address"}],"name":"setPlatformFee","outputs":[],"stateMutability":"nonpayable","type":"function"},{"inputs":[{"internalType":"uint256","name":"_minDuration","type":"uint256"},{"internalType":"uint256","name":"_maxDuration","type":"uint256"}],"name":"setSwapDurationLimits","outputs":[],"stateMutability":"nonpayable","type":"function"},{"inputs":[{"internalType":"bytes4","name":"interfaceId","type":"bytes4"}],"name":"supportsInterface","outputs":[{"internalType":"bool","name":"","type":"bool"}],"stateMutability":"view","type":"function"},{"inputs":[{"internalType":"bytes32","name":"","type":"bytes32"}],"name":"swapExists","outputs":[{"internalType":"bool","name":"","type":"bool"}],"stateMutability":"view","type":"function"},{"inputs":[{"internalType":"bytes32","name":"","type":"bytes32"}],"name":"swaps","outputs":[{"internalType":"bytes32","name":"swapId","type":"bytes32"},{"internalType":"uint256","name":"createdAt","type":"uint256"},{"internalType":"uint256","name":"expiresAt","type":"uint256"},{"internalType":"enum MultiPartyNFTSwap.SwapStatus","name":"status","type":"uint8"},{"internalType":"address","name":"initiator","type":"address"}],"stateMutability":"view","type":"function"},{"inputs":[{"internalType":"address","name":"newOwner","type":"address"}],"name":"transferOwnership","outputs":[],"stateMutability":"nonpayable","type":"function"},{"inputs":[{"internalType":"address","name":"","type":"address"},{"internalType":"uint256","name":"","type":"uint256"}],"name":"userActiveSwaps","outputs":[{"internalType":"bytes32","name":"","type":"bytes32"}],"stateMutability":"view","type":"function"}],"evm":{"bytecode":{"linkReferences":{},"object":"6080806040523461001657613896908161001c8239f35b600080fdfe608080604052600436101561001357600080fd5b60003560e01c90816301ffc9a714612d1c575080630d8e6e2c14612c83578063118c12de14612bcf578063150b7a0214612b7957806320800a0014612ad657806324924bf714612ab85780632bf7299b14612a105780632d53ca96146129df5780633b1cc44e1461292757806346904840146128fe578063485cc9551461274b5780634a4e3bd51461268b5780634c000575146125d257806351858e271461254c5780635c975abb146125295780636bfec360146124a35780636e492d1c146123be578063715018a6146123615780637444ddfc146121975780638cd4426d146120475780638da5cb5b1461201e57806392654efa14611987578063999dc5c1146119695780639fe797771461194b578063b1ff6e0a146117bb578063b4d884f6146116f3578063bc197c8114611668578063c44a892314611638578063cdd78cfc1461161a578063ce44c3641461058d578063e35468cb1461034c578063eb84e7f2146102e2578063f23a6e611461028c578063f2f93de2146102345763f2fde38b146101a057600080fd5b3461022f57602036600319011261022f576101b9612d87565b6101c1612ecd565b6001600160a01b038116156101db576101d990612f25565b005b60405162461bcd60e51b815260206004820152602660248201527f4f776e61626c653a206e6577206f776e657220697320746865207a65726f206160448201526564647265737360d01b6064820152608490fd5b600080fd5b3461022f57604036600319011261022f5761024d612d87565b6001600160a01b0316600090815260cb602052604090208054602435919082101561022f5760209161027e91612e9f565b90546040519160031b1c8152f35b3461022f5760a036600319011261022f576102a5612d87565b506102ae612d9d565b506084356001600160401b03811161022f576102ce903690600401612dc7565b505060405163f23a6e6160e01b8152602090f35b3461022f57602036600319011261022f5760043560005260c960205260a060406000208054906002810154906004600382015491015491604051938452602084015260408301526103396060830160ff8316612df4565b60081c6000196001841b01166080820152f35b3461022f5760208060031936011261022f57600435908160005260ca815260ff9161037d836040600020541661315c565b8060005260c9825260039061039a8260406000200154421061319e565b6103a43382613754565b15610548576103b1613106565b6103b96130c2565b8060005260c983526040600020916004830192858454166005811015610532576104ed57600094600196879687809401935b61043e575b505050505061042791925033817fbfece94188ca5510ff29b3892f68dc16c81be915972f251498a734915bae128e600080a3613377565b61043057508055005b805460ff1916821790558055005b83548110156104e8576104518185613050565b50546001600160a01b031633146104715761046b9061301f565b876103eb565b9380959697506104818585613050565b500154166104b1575061042793929161049991613050565b5001805460ff191685179055839291858080806103f0565b6064906040519062461bcd60e51b82526004820152601060248201526f105b1c9958591e48185c1c1c9bdd995960821b6044820152fd5b6103f0565b60405162461bcd60e51b815260048101869052601a60248201527f53776170206e6f7420696e2063726561746564207374617475730000000000006044820152606490fd5b634e487b7160e01b600052602160045260246000fd5b60405162461bcd60e51b815260048101849052601e60248201527f4e6f742061207061727469636970616e7420696e2074686973207377617000006044820152606490fd5b3461022f57606036600319011261022f576024356001600160401b03811161022f576105bd903690600401612e01565b6105c5613106565b6105cd6130c2565b60043560005260ca60205260ff604060002054166115df576002811061159a576105fb60cc54821115612fce565b60ce54604435106115605760cd54604435116115275760005b818110610f62575060005b818110610ebd5750906000805b838110610e9d575061063d906135a6565b6000805b848110610e6f5750610652906135a6565b600080805b868310610d86575050506000935b82518510156107c65760009360005b83518110156107bc576001600160a01b0380610690898861361a565b5151169061069e838761361a565b5151161480610797575b80610772575b80610749575b6106c6576106c19061301f565b610674565b50949091935060015b156106e5576106dd9061301f565b939290610665565b60405162461bcd60e51b815260206004820152603660248201527f556e62616c616e636564207472616465202d20676976656e204e465420686173604482015275081b9bc81b585d18da1a5b99c81c9958da5c1a595b9d60521b6064820152608490fd5b506060610756888761361a565b51015115156060610767838761361a565b5101511515146106b4565b50608080610780898861361a565b5101519061078e838761361a565b510151146106ae565b5060206107a4888761361a565b51015160206107b3838761361a565b510151146106a8565b50949091936106cf565b916000935b825185101561092b5760009360005b8351811015610921576001600160a01b03806107f6898861361a565b51511690610804838761361a565b51511614806108fc575b806108d7575b806108ae575b61082c576108279061301f565b6107da565b50949091935060015b1561084b576108439061301f565b9392906107cb565b60405162461bcd60e51b815260206004820152603560248201527f556e62616c616e636564207472616465202d207265636569766564204e4654206044820152743430b99037379036b0ba31b434b7339033b4bb32b960591b6064820152608490fd5b5060606108bb888761361a565b510151151560606108cc838761361a565b51015115151461081a565b506080806108e5898861361a565b510151906108f3838761361a565b51015114610814565b506020610909888761361a565b5101516020610918838761361a565b5101511461080e565b5094909193610835565b8360043560005260c96020526040600020600435815542600282015561095360443542613012565b60038201556004810180546001600160a81b0319163360081b610100600160a81b031617905560005b8281106109df575060039060043560005260ca6020526040600020600160ff198254161790550154604051918252602082015233907f65b0c4090dd7502e249bb7170070a58ae3bd4d30790e87091ce732a3b9e0ef06604060043592a360018055005b6109ea81848661302e565b6001830154600160401b811015610b5c57806001610a119201600186015560018501613050565b610d70576001600160a01b03610a268361306c565b82546001600160a01b0319169116178155610a446020830183613080565b90600160401b8211610b5c576001830154826001850155808310610d0f575b50600183016000526020600020906000905b838210610c7c5750505050610a8d6040830183613080565b90600160401b8211610b5c576002830154826002850155808310610c05575b50600283016000526020600020906000905b838210610b72575050505060606003610ad9920192016130b5565b151560ff8019835416911617905560018060a01b03610b01610afc83868861302e565b61306c565b1660005260cb6020526040600020908154600160401b811015610b5c57610b3481610b57946001610b5094018155612e9f565b6004929192359083549060031b91821b91600019901b19161790565b905561301f565b61097c565b634e487b7160e01b600052604160045260246000fd5b6001906004906001600160a01b03610b898261306c565b166001600160601b0360a01b8654161785556020810135838601556002850190838060a01b03610bbb6040830161306c565b16918054610bcb606084016130b5565b15159360a09460ff60a01b90861b16916affffffffffffffffffffff60a81b16171790556080810135600387015501930191019091610abe565b6001600160fe1b038181168203610c665783168303610c66576002840160005260206000208360021b81015b8260021b82018110610c44575050610aac565b8060006004925560006001820155600060028201556000600382015501610c31565b634e487b7160e01b600052601160045260246000fd5b6001906004906001600160a01b03610c938261306c565b166001600160601b0360a01b8654161785556020810135838601556002850190838060a01b03610cc56040830161306c565b16918054610cd5606084016130b5565b15159360a09460ff60a01b90861b16916affffffffffffffffffffff60a81b16171790556080810135600387015501930191019091610a75565b6001600160fe1b038181168203610c665783168303610c66576001840160005260206000208360021b81015b8260021b82018110610d4e575050610a63565b8060006004925560006001820155600060028201556000600382015501610d3b565b634e487b7160e01b600052600060045260246000fd5b60009692969591949395945b87610dab610da182878761302e565b6020810190613080565b9050871015610e0257610dfc91610ddb610dd689610dd0610da1610df6968b8b61302e565b906131dd565b61323c565b610de5828961361a565b52610df0818861361a565b5061301f565b9561301f565b94610d92565b5094509094926000915b610e24610e1a89868a61302e565b6040810190613080565b9050831015610e5557610e49610e4f91610ddb610dd686610dd0610e1a8e8b8f61302e565b9261301f565b91610e0c565b92939596610e659195925061301f565b9195949295610657565b90610e8f610e9591610e87610e1a8589899a9961302e565b919050613012565b9161301f565b939293610641565b90610e8f610eb591610e87610da1858888999861302e565b92919261062c565b610ecb610da182848661302e565b9050151580610f4a575b15610ee857610ee39061301f565b61061f565b60405162461bcd60e51b815260206004820152603460248201527f556e62616c616e636564207472616465202d207061727469636970616e74206d604482015273757374206769766520616e64207265636569766560601b6064820152608490fd5b50610f59610e1a82848661302e565b90501515610ed5565b6001600160a01b03610f78610afc83858761302e565b16156114e257610f8c610da182848661302e565b90501561148e57610fa1610e1a82848661302e565b9050156114375760018101808211610c66575b8281106113b6575060005b610fcd610da183858761302e565b90508110156113a757610feb610dd682610dd0610da186888a61302e565b80519091906001600160a01b03161561136b5760608201511561119d5781516001600160a01b031691611059906020611028610afc87898b61302e565b82820151604051627eeac760e11b81526001600160a01b039092166004830152602482015292839081906044820190565b0381875afa91821561111757600092611168575b5060800151116111235760206110bd9261108b610afc86888a61302e565b60405163e985e9c560e01b81526001600160a01b03909116600482015230602482015293849190829081906044820190565b03915afa918215611117576110e3926110de916000916110e8575b506132d1565b61301f565b610fbf565b61110a915060203d602011611110575b611102818361321b565b8101906132b9565b876110d8565b503d6110f8565b6040513d6000823e3d90fd5b60405162461bcd60e51b815260206004820152601860248201527f496e73756666696369656e74204e46542062616c616e636500000000000000006044820152606490fd5b9091506020813d602011611195575b816111846020938361321b565b8101031261022f575190608061106d565b3d9150611177565b60018060a01b038251166020830151604051906331a9108f60e11b82526004820152602081602481855afa9081156111175760009161134c575b506001600160a01b036111ee610afc87898b61302e565b166001600160a01b039091160361130757611242926020611213610afc87898b61302e565b60405163e985e9c560e01b81526001600160a01b03909116600482015230602482015294859081906044820190565b0381855afa938415611117576000946112e6575b50831561126c575b50506110de6110e3926132d1565b602091935081015160246040518095819363020604bf60e21b835260048301525afa918215611117576110e3926110de916000916112b7575b506001600160a01b031630149261125e565b6112d9915060203d6020116112df575b6112d1818361321b565b81019061329a565b876112a5565b503d6112c7565b61130091945060203d60201161111057611102818361321b565b9287611256565b60405162461bcd60e51b815260206004820152601c60248201527f5061727469636970616e7420646f6573206e6f74206f776e204e4654000000006044820152606490fd5b611365915060203d6020116112df576112d1818361321b565b876111d7565b60405162461bcd60e51b8152602060048201526014602482015273125b9d985b1a59081391950818dbdb9d1c9858dd60621b6044820152606490fd5b506113b19061301f565b610614565b6113c4610afc83858761302e565b6001600160a01b036113da610afc84878961302e565b6001600160a01b039092169116146113fa576113f59061301f565b610fb4565b60405162461bcd60e51b8152602060048201526015602482015274111d5c1b1a58d85d19481c185c9d1a58da5c185b9d605a1b6044820152606490fd5b60405162461bcd60e51b815260206004820152602960248201527f5061727469636970616e74206d7573742072656365697665206174206c6561736044820152681d081bdb994813919560ba1b6064820152608490fd5b60405162461bcd60e51b815260206004820152602660248201527f5061727469636970616e74206d7573742067697665206174206c65617374206f6044820152651b994813919560d21b6064820152608490fd5b60405162461bcd60e51b815260206004820152601b60248201527f496e76616c6964207061727469636970616e74206164647265737300000000006044820152606490fd5b60405162461bcd60e51b81526020600482015260116024820152704475726174696f6e20746f6f206c6f6e6760781b6044820152606490fd5b60405162461bcd60e51b8152602060048201526012602482015271111d5c985d1a5bdb881d1bdbc81cda1bdc9d60721b6044820152606490fd5b60405162461bcd60e51b815260206004820152601f60248201527f4d696e696d756d2032207061727469636970616e7473207265717569726564006044820152606490fd5b60405162461bcd60e51b81526020600482015260136024820152725377617020616c72656164792065786973747360681b6044820152606490fd5b3461022f57600036600319011261022f57602060cf54604051908152f35b3461022f57604036600319011261022f57602061165e611656612d9d565b600435613754565b6040519015158152f35b3461022f5760a036600319011261022f57611681612d87565b5061168a612d9d565b506001600160401b0360443581811161022f576116ab903690600401612e01565b505060643581811161022f576116c5903690600401612e01565b505060843590811161022f576116df903690600401612dc7565b505060405163bc197c8160e01b8152602090f35b3461022f57604036600319011261022f5760043561170f612d9d565b611717612ecd565b6101f48211611787577f75fb21c92262816a2d319654f21a740da5dda05951b9650bb4506b67335896709160809160cf549160d054918160cf5560018060a01b0380911692836001600160601b0360a01b82161760d05560405194855216602084015260408301526060820152a1005b60405162461bcd60e51b815260206004820152600c60248201526b08ccaca40e8dede40d0d2ced60a31b6044820152606490fd5b3461022f5760208060031936011261022f576004358060005260ca825260ff906117eb826040600020541661315c565b60005260c98252600191826040600020019081546118088161358f565b93611816604051958661321b565b8185528285018094600052836000206000915b8483106118d45750505050506040519384938285019083865251809152604085019260408260051b87010194936000905b8382106118675787870388f35b918496819592949698508190603f198b820301855289519060018060a01b0382511681526118b66118a48484015160808087860152840190612e31565b60408401518382036040850152612e31565b9160608091015115159101529801920192018796959391949261185a565b6040989697959851608081018181106001600160401b03821117610b5c5760405282546001600160a01b0316815287916004918b91906119158686016137c8565b83820152611925600287016137c8565b604082015287600387015416151560608201528152019201920191909794969597611829565b3461022f57600036600319011261022f57602060cd54604051908152f35b3461022f57600036600319011261022f57602060ce54604051908152f35b3461022f57602036600319011261022f5760043560005260ca6020526119b460ff6040600020541661315c565b60043560005260c96020526119d2600360406000200154421061319e565b6119da613106565b6119e26130c2565b60043560005260c9602052604060002060ff600482015416600581101561053257600103611fd95760043560005260c960205260406000206000906001810154915b828110611c955760048035600090815260c960205260408120918201805460ff19166002179055855b6001830154821015611c0057611a668260018501613050565b509260005b600185018054821015611beb5781611a8291613050565b50805460018201549192916001600160a01b0391821691611aa6828460043561362e565b16908115611ba657600285015460a09390841c60ff1615611b4e5750508354885460018601546003909601546001600160a01b03928316949290911690843b1561022f5760009460c4938692604051998a978896637921219560e11b8852600488015260248701526044860152606485015260848401528160a48401525af191821561111757611b3a92611b3f575061301f565b611a6b565b611b48906131ed565b86610df0565b89549195506001600160a01b039091169250803b1561022f57600092836064926040519788958694632142170760e11b86526004860152602485015260448401525af191821561111757611b3a92611b3f575061301f565b60405162461bcd60e51b815260206004820152601a60248201527f4e6f20726563697069656e7420666f756e6420666f72204e46540000000000006044820152606490fd5b505091611bf991935061301f565b9091611a4d565b60019060cf54151580611c83575b611c73575b6004818101805460ff19166002179055611c2d90356133ca565b0154611c3a600435613538565b60405191825260208201527f40cad0fc6608ab3d2ae001f577ab42bcfb812d314e78770986cfc1d2025fbe12604060043592a260018055005b611c7e6004356136df565b611c13565b50818060a01b0360d054161515611c0e565b611ca28160018401613050565b50600181015460005b818110611cc357505050611cbe9061301f565b611a24565b611cd08160018501613050565b509060ff600283015460a01c16600014611e3457815484546001840154604051627eeac760e11b81526001600160a01b039283166004820181905260248201929092529094919092169190602082604481865afa91821561111757600092611dff575b506003015411611dae5760405163e985e9c560e01b81526001600160a01b03939093166004840152306024840152602090839060449082905afa91821561111757611d8a926110de91600091611d8f575b5061331d565b611cab565b611da8915060203d60201161111057611102818361321b565b8a611d84565b60405162461bcd60e51b8152602060048201526024808201527f4e46542062616c616e6365206368616e676564206265666f72652065786563756044820152633a34b7b760e11b6064820152608490fd5b9091506020813d602011611e2c575b81611e1b6020938361321b565b8101031261022f5751906003611d33565b3d9150611e0e565b81546001909201546040516331a9108f60e11b815260048101829052926001600160a01b031690602084602481855afa93841561111757600094611fb8575b5085546001600160a01b039081169416849003611f645760405163e985e9c560e01b81526001600160a01b03949094166004850152306024850152602084604481855afa93841561111757600094611f43575b508315611edc575b50506110de611d8a9261331d565b602091935060246040518095819363020604bf60e21b835260048301525afa91821561111757611d8a926110de91600091611f24575b506001600160a01b0316301492611ece565b611f3d915060203d6020116112df576112d1818361321b565b8a611f12565b611f5d91945060203d60201161111057611102818361321b565b928a611ec6565b60405162461bcd60e51b815260206004820152602660248201527f4e4654206f776e657273686970206368616e676564206265666f72652065786560448201526531baba34b7b760d11b6064820152608490fd5b611fd291945060203d6020116112df576112d1818361321b565b928a611e73565b60405162461bcd60e51b815260206004820152601760248201527f53776170206e6f742066756c6c7920617070726f7665640000000000000000006044820152606490fd5b3461022f57600036600319011261022f576097546040516001600160a01b039091168152602090f35b3461022f57604036600319011261022f57612060612d87565b6024359061206c612ecd565b6001600160a01b0390811690811561215a5782156121155760975460405163a9059cbb60e01b81529082166001600160a01b0316600482015260248101849052906020826044816000875af1908115611117577ffb475a842bad10d3800b61bd1a92e716051afba979b124b583bd99a2d1d7bfd5926020926120f8575b506097541693604051908152a3005b61210e90833d811161111057611102818361321b565b50856120e9565b60405162461bcd60e51b815260206004820152601d60248201527f416d6f756e74206d7573742062652067726561746572207468616e20300000006044820152606490fd5b60405162461bcd60e51b8152602060048201526015602482015274496e76616c696420746f6b656e206164647265737360581b6044820152606490fd5b3461022f57604036600319011261022f576004356024356001600160401b03811161022f576121ca903690600401612dc7565b91908160005260209060ca82526121e860ff6040600020541661315c565b6121f0613106565b8260005260c982526040600020600481019081549060ff82166005811015610532578015908115612356575b50156123115761222c3387613754565b908115612302575b5080156122ee575b156122a95760ff191660031790557f29adbae4ff5b8c2237359749739c137328cb4681c1fff7cfd20fa91fef97439291908490612278856133ca565b816040519380855284015260408301376000604085830101526040813395601f80199101168101030190a360018055005b60405162461bcd60e51b815260048101859052601860248201527f4e6f7420617574686f72697a656420746f2063616e63656c00000000000000006044820152606490fd5b506097546001600160a01b0316331461223c565b60039150015442101587612234565b60405162461bcd60e51b815260048101869052601b60248201527f43616e6e6f742063616e63656c206578656375746564207377617000000000006044820152606490fd5b60019150148861221c565b3461022f57600036600319011261022f5761237a612ecd565b609780546001600160a01b031981169091556000906001600160a01b03167f8be0079c531659141344cd1fd0a4f28419497f9722a3daafe3b4186f6b6457e08280a3005b3461022f5760208060031936011261022f576004356001600160401b03811161022f576123ef903690600401612e01565b909160005b8281106123fd57005b806124299160051b8501358060005260ca845260ff604060002054168061248d575b61242e575061301f565b6123f4565b60c98085526004604060002001600460ff1982541617905561244f826133ca565b8160005284527fb48ef62ffb44e6804bf61ba9e20b5439e423723b6c24763e06d8024f3bc2bba084600360406000200154604051908152a285610df0565b5060c9845260036040600020015442101561241f565b3461022f57602036600319011261022f576004358060005260ca6020526124d160ff6040600020541661315c565b60005260c960205260a0604060002060048101546001820154916003600282015491015490604051936125078560ff8616612df4565b60208501526040840152606083015260081c6000196001841b01166080820152f35b3461022f57600036600319011261022f57602060ff606554166040519015158152f35b3461022f57600036600319011261022f57612565612ecd565b61256d6130c2565b600160ff1960655416176065557f62e78cea01bee320cd4e420270b5ea74000d11b0c9f74754ebdbfc544b05a2586020604051338152a16040514281527f9506e519f3e4ce17dda1136d3ba3d3465dc873c49a6191e0fd209f33959a00cd60203392a2005b3461022f57602036600319011261022f576004358060005260ca60205260ff90612602826040600020541661315c565b60005260c960205260406000209060009060009060018401938454925b83811061265257506080945060040154169161263e6040518094612df4565b818114602084015260408301526060820152f35b82600361265f8389613050565b50015416612676575b6126719061301f565b61261f565b936126836126719161301f565b949050612668565b3461022f57600036600319011261022f576126a4612ecd565b60655460ff81161561270f5760ff19166065557f5db9ee0a495bf2e6ff9c91a7834c1ba4fdd244a5e8aa4e537bd38aeae4b073aa6020604051338152a16040514281527fdb5c0bc39850eb0ddb99fae67eecd7ee594120d92d1c0db6c3252252a4fc335660203392a2005b60405162461bcd60e51b815260206004820152601460248201527314185d5cd8589b194e881b9bdd081c185d5cd95960621b6044820152606490fd5b3461022f57604036600319011261022f57612764612d87565b61276c612d9d565b60005460ff8160081c1615928380946128f1575b80156128da575b1561287e576127ee6127fc9260ff19908660018383161760005561286c575b5060ff60005460081c16906127ba82612f6e565b6127c382612f6e565b600180556127d082612f6e565b6127d982612f6e565b606554166065556127e981612f6e565b612f6e565b6127f733612f25565b612f25565b60018060a01b03166001600160601b0360a01b60d054161760d055600a60cc556201518060cd55610e1060ce55600060cf5561283457005b61ff0019600054166000557f7f26b83ff96e1f2b6a682f133852f6798a09c465da95921460cefb3847402498602060405160018152a1005b61ffff191661010117600055866127a6565b60405162461bcd60e51b815260206004820152602e60248201527f496e697469616c697a61626c653a20636f6e747261637420697320616c72656160448201526d191e481a5b9a5d1a585b1a5e995960921b6064820152608490fd5b50303b1580156127875750600160ff831614612787565b50600160ff831610612780565b3461022f57600036600319011261022f5760d0546040516001600160a01b039091168152602090f35b3461022f57604036600319011261022f57600435602435612946612ecd565b8082101561299a577fa2fefb4d31c92ab985fd34ade48d3864316cba244f7126a2779e83b082c162209160809160ce549160cd548160ce558260cd55604051938452602084015260408301526060820152a1005b60405162461bcd60e51b815260206004820152601760248201527f496e76616c6964206475726174696f6e206c696d6974730000000000000000006044820152606490fd5b3461022f57602036600319011261022f5760043560005260ca602052602060ff604060002054166040519015158152f35b3461022f57602036600319011261022f57600435612a2c612ecd565b60028110612a7a57604081612a6560327f43f71dfd216eaaf2f75bdb23d66ae4f5b7e2975e422538b68ef11b46b3874098941115612fce565b60cc54908060cc5582519182526020820152a1005b60405162461bcd60e51b81526020600482015260166024820152754d696e696d756d2032207061727469636970616e747360501b6044820152606490fd5b3461022f57600036600319011261022f57602060cc54604051908152f35b3461022f57600036600319011261022f57612aef612ecd565b478015612b415760018060a01b03600080808085856097541682f1156111175760207fcd7fef3a642dcf99ce1004b2a15d31e91398f01974500b64eab8fc50fef2d3b1916097541692604051908152a2005b60405162461bcd60e51b815260206004820152601060248201526f4e6f2045544820746f2072657363756560801b6044820152606490fd5b3461022f57608036600319011261022f57612b92612d87565b50612b9b612d9d565b506064356001600160401b03811161022f57612bbb903690600401612dc7565b5050604051630a85bd0160e11b8152602090f35b3461022f5760208060031936011261022f576001600160a01b03612bf1612d87565b1660005260cb8152604060002060405190818382549182815201908192600052846000209060005b86828210612c6f578686612c2f8288038361321b565b604051928392818401908285525180915260408401929160005b828110612c5857505050500390f35b835185528695509381019392810192600101612c49565b835485529093019260019283019201612c19565b3461022f57600036600319011261022f57604051604081018181106001600160401b03821117610b5c57604052600d81526020906c0c4b8c4b8c0b585d591a5d1959609a1b82820152604051828193825282519081818401526000935b828510612d03575050604092506000838284010152601f80199101168101030190f35b8481018201518686016040015293810193859350612ce0565b3461022f57602036600319011261022f576004359063ffffffff60e01b821680920361022f57602091630a85bd0160e11b8114908115612d76575b8115612d65575b5015158152f35b6301ffc9a760e01b14905083612d5e565b630271189760e51b81149150612d57565b600435906001600160a01b038216820361022f57565b602435906001600160a01b038216820361022f57565b35906001600160a01b038216820361022f57565b9181601f8401121561022f578235916001600160401b03831161022f576020838186019501011161022f57565b9060058210156105325752565b9181601f8401121561022f578235916001600160401b03831161022f576020808501948460051b01011161022f57565b90815180825260208080930193019160005b828110612e51575050505090565b835180516001600160a01b0390811687528184015187850152604080830151909116908701526060808201511515908701526080908101519086015260a09094019392810192600101612e43565b8054821015612eb75760005260206000200190600090565b634e487b7160e01b600052603260045260246000fd5b6097546001600160a01b03163303612ee157565b606460405162461bcd60e51b815260206004820152602060248201527f4f776e61626c653a2063616c6c6572206973206e6f7420746865206f776e65726044820152fd5b609780546001600160a01b039283166001600160a01b0319821681179092559091167f8be0079c531659141344cd1fd0a4f28419497f9722a3daafe3b4186f6b6457e0600080a3565b15612f7557565b60405162461bcd60e51b815260206004820152602b60248201527f496e697469616c697a61626c653a20636f6e7472616374206973206e6f74206960448201526a6e697469616c697a696e6760a81b6064820152608490fd5b15612fd557565b60405162461bcd60e51b8152602060048201526015602482015274546f6f206d616e79207061727469636970616e747360581b6044820152606490fd5b91908201809211610c6657565b6000198114610c665760010190565b9190811015612eb75760051b81013590607e198136030182121561022f570190565b8054821015612eb75760005260206000209060021b0190600090565b356001600160a01b038116810361022f5790565b903590601e198136030182121561022f57018035906001600160401b03821161022f576020019160a082023603831361022f57565b35801515810361022f5790565b60ff606554166130ce57565b60405162461bcd60e51b815260206004820152601060248201526f14185d5cd8589b194e881c185d5cd95960821b6044820152606490fd5b600260015414613117576002600155565b60405162461bcd60e51b815260206004820152601f60248201527f5265656e7472616e637947756172643a207265656e7472616e742063616c6c006044820152606490fd5b1561316357565b60405162461bcd60e51b815260206004820152601360248201527214ddd85c08191bd95cc81b9bdd08195e1a5cdd606a1b6044820152606490fd5b156131a557565b60405162461bcd60e51b815260206004820152601060248201526f14ddd85c081a185cc8195e1c1a5c995960821b6044820152606490fd5b9190811015612eb75760a0020190565b6001600160401b038111610b5c57604052565b60a081019081106001600160401b03821117610b5c57604052565b90601f801991011681019081106001600160401b03821117610b5c57604052565b60a08136031261022f576040519061325382613200565b61325c81612db3565b82526020810135602083015261327460408201612db3565b6040830152606081013590811515820361022f5760809160608401520135608082015290565b9081602091031261022f57516001600160a01b038116810361022f5790565b9081602091031261022f5751801515810361022f5790565b156132d857565b60405162461bcd60e51b815260206004820152601960248201527f4e4654206e6f7420617070726f76656420666f722073776170000000000000006044820152606490fd5b1561332457565b60405162461bcd60e51b815260206004820152602560248201527f4e465420617070726f76616c207265766f6b6564206265666f726520657865636044820152643aba34b7b760d91b6064820152608490fd5b600090815260c96020526040812060010180549190815b83811061339e5750505050600190565b60ff60036133ac8385613050565b50015416156133c3576133be9061301f565b61338e565b5050905090565b60009080825260209060c98252604080842092849360019485809201915b6133f6575b50505050505050565b815481101561353357969594939291906134108882613050565b50546001600160a01b0316865260cb825282862086865b613444575b505061343a8596979861301f565b90919293946133e8565b81548082101561352d57869061345a8385612e9f565b929054600393841b1c1461348a5750509561347c8198999a939495969761301f565b909695949392999897613427565b90929160001991828101908111613519576134b86134ab6134cf9286612e9f565b905490871b1c9285612e9f565b819391549060031b91821b91600019901b19161790565b90558154801561350557918161343a94928a9b9c9d9401926134f18484612e9f565b81939154921b1b191690555598979661342c565b634e487b7160e01b8a52603160045260248afd5b634e487b7160e01b8b52601160045260248bfd5b5061342c565b6133ed565b60005260c9602052604060002060009081906001809101908154915b828410613562575050505090565b9091929361358161358791846135788886613050565b50015490613012565b9461301f565b929190613554565b6001600160401b038111610b5c5760051b60200190565b906135b08261358f565b6040906135bf8251918261321b565b83815280936135d0601f199161358f565b019160005b8381106135e25750505050565b60209082516135f081613200565b600081528260008183015260008583015260006060830152600060808301528286010152016135d5565b8051821015612eb75760209160051b010190565b91600092835260c96020526040832091839260018091018054945b8581106136595750505050505090565b6136638183613050565b508790600281018054925b83811061368757505050506136829061301f565b613649565b6136918183613050565b5060018060a01b03908a8983835416848d161492836136d2575b5050506136c157506136bc9061301f565b61366e565b9a5050509650505050505050541690565b01541490508a89386136ab565b60cf5480158015613741575b61373d578160005260c960205261370182613538565b8082810204821490151715610c665760207ff45996501352220c0143bb7d4599e869f72ce0391bcdcf0c0ca59bd0810dd45a91604051908152a2565b5050565b5060d0546001600160a01b0316156136eb565b90600091825260ca60205260ff604083205416156137c45760c960205260408220829160018092018054935b84811061378f57505050505090565b6137998183613050565b50546001600160a01b038481169116146137bb576137b69061301f565b613780565b50505091505090565b5090565b9081546137d48161358f565b926040936137e48551918261321b565b828152809460208092019260005281600020906000935b85851061380a57505050505050565b600484600192845161381b81613200565b60ff858060a01b03808954168352868901548584015260028901549081168884015260a01c1615156060820152600387015460808201528152019301940193916137fb56fea2646970667358221220dcc4e6529bba83ca6c11a10fbf385179f32145a19acae9b638ca340bbed8689364736f6c63430008130033","opcodes":"PUSH1 0x80 DUP1 PUSH1 0x40 MSTORE CALLVALUE PUSH2 0x16 JUMPI PUSH2 0x3896 SWAP1 DUP2 PUSH2 0x1C DUP3 CODECOPY RETURN JUMPDEST PUSH1 0x0 DUP1 REVERT INVALID PUSH1 0x80 DUP1 PUSH1 0x40 MSTORE PUSH1 0x4 CALLDATASIZE LT ISZERO PUSH2 0x13 JUMPI PUSH1 0x0 DUP1 REVERT JUMPDEST PUSH1 0x0 CALLDATALOAD PUSH1 0xE0 SHR SWAP1 DUP2 PUSH4 0x1FFC9A7 EQ PUSH2 0x2D1C JUMPI POP DUP1 PUSH4 0xD8E6E2C EQ PUSH2 0x2C83 JUMPI DUP1 PUSH4 0x118C12DE EQ PUSH2 0x2BCF JUMPI DUP1 PUSH4 0x150B7A02 EQ PUSH2 0x2B79 JUMPI DUP1 PUSH4 0x20800A00 EQ PUSH2 0x2AD6 JUMPI DUP1 PUSH4 0x24924BF7 EQ PUSH2 0x2AB8 JUMPI DUP1 PUSH4 0x2BF7299B EQ PUSH2 0x2A10 JUMPI DUP1 PUSH4 0x2D53CA96 EQ PUSH2 0x29DF JUMPI DUP1 PUSH4 0x3B1CC44E EQ PUSH2 0x2927 JUMPI DUP1 PUSH4 0x46904840 EQ PUSH2 0x28FE JUMPI DUP1 PUSH4 0x485CC955 EQ PUSH2 0x274B JUMPI DUP1 PUSH4 0x4A4E3BD5 EQ PUSH2 0x268B JUMPI DUP1 PUSH4 0x4C000575 EQ PUSH2 0x25D2 JUMPI DUP1 PUSH4 0x51858E27 EQ PUSH2 0x254C JUMPI DUP1 PUSH4 0x5C975ABB EQ PUSH2 0x2529 JUMPI DUP1 PUSH4 0x6BFEC360 EQ PUSH2 0x24A3 JUMPI DUP1 PUSH4 0x6E492D1C EQ PUSH2 0x23BE JUMPI DUP1 PUSH4 0x715018A6 EQ PUSH2 0x2361 JUMPI DUP1 PUSH4 0x7444DDFC EQ PUSH2 0x2197 JUMPI DUP1 PUSH4 0x8CD4426D EQ PUSH2 0x2047 JUMPI DUP1 PUSH4 0x8DA5CB5B EQ PUSH2 0x201E JUMPI DUP1 PUSH4 0x92654EFA EQ PUSH2 0x1987 JUMPI DUP1 PUSH4 0x999DC5C1 EQ PUSH2 0x1969 JUMPI DUP1 PUSH4 0x9FE79777 EQ PUSH2 0x194B JUMPI DUP1 PUSH4 0xB1FF6E0A EQ PUSH2 0x17BB JUMPI DUP1 PUSH4 0xB4D884F6 EQ PUSH2 0x16F3 JUMPI DUP1 PUSH4 0xBC197C81 EQ PUSH2 0x1668 JUMPI DUP1 PUSH4 0xC44A8923 EQ PUSH2 0x1638 JUMPI DUP1 PUSH4 0xCDD78CFC EQ PUSH2 0x161A JUMPI DUP1 PUSH4 0xCE44C364 EQ PUSH2 0x58D JUMPI DUP1 PUSH4 0xE35468CB EQ PUSH2 0x34C JUMPI DUP1 PUSH4 0xEB84E7F2 EQ PUSH2 0x2E2 JUMPI DUP1 PUSH4 0xF23A6E61 EQ PUSH2 0x28C JUMPI DUP1 PUSH4 0xF2F93DE2 EQ PUSH2 0x234 JUMPI PUSH4 0xF2FDE38B EQ PUSH2 0x1A0 JUMPI PUSH1 0x0 DUP1 REVERT JUMPDEST CALLVALUE PUSH2 0x22F JUMPI PUSH1 0x20 CALLDATASIZE PUSH1 0x3 NOT ADD SLT PUSH2 0x22F JUMPI PUSH2 0x1B9 PUSH2 0x2D87 JUMP JUMPDEST PUSH2 0x1C1 PUSH2 0x2ECD JUMP JUMPDEST PUSH1 0x1 PUSH1 0x1 PUSH1 0xA0 SHL SUB DUP2 AND ISZERO PUSH2 0x1DB JUMPI PUSH2 0x1D9 SWAP1 PUSH2 0x2F25 JUMP JUMPDEST STOP JUMPDEST PUSH1 0x40 MLOAD PUSH3 0x461BCD PUSH1 0xE5 SHL DUP2 MSTORE PUSH1 0x20 PUSH1 0x4 DUP3 ADD MSTORE PUSH1 0x26 PUSH1 0x24 DUP3 ADD MSTORE PUSH32 0x4F776E61626C653A206E6577206F776E657220697320746865207A65726F2061 PUSH1 0x44 DUP3 ADD MSTORE PUSH6 0x646472657373 PUSH1 0xD0 SHL PUSH1 0x64 DUP3 ADD MSTORE PUSH1 0x84 SWAP1 REVERT JUMPDEST PUSH1 0x0 DUP1 REVERT JUMPDEST CALLVALUE PUSH2 0x22F JUMPI PUSH1 0x40 CALLDATASIZE PUSH1 0x3 NOT ADD SLT PUSH2 0x22F JUMPI PUSH2 0x24D PUSH2 0x2D87 JUMP JUMPDEST PUSH1 0x1 PUSH1 0x1 PUSH1 0xA0 SHL SUB AND PUSH1 0x0 SWAP1 DUP2 MSTORE PUSH1 0xCB PUSH1 0x20 MSTORE PUSH1 0x40 SWAP1 KECCAK256 DUP1 SLOAD PUSH1 0x24 CALLDATALOAD SWAP2 SWAP1 DUP3 LT ISZERO PUSH2 0x22F JUMPI PUSH1 0x20 SWAP2 PUSH2 0x27E SWAP2 PUSH2 0x2E9F JUMP JUMPDEST SWAP1 SLOAD PUSH1 0x40 MLOAD SWAP2 PUSH1 0x3 SHL SHR DUP2 MSTORE RETURN JUMPDEST CALLVALUE PUSH2 0x22F JUMPI PUSH1 0xA0 CALLDATASIZE PUSH1 0x3 NOT ADD SLT PUSH2 0x22F JUMPI PUSH2 0x2A5 PUSH2 0x2D87 JUMP JUMPDEST POP PUSH2 0x2AE PUSH2 0x2D9D JUMP JUMPDEST POP PUSH1 0x84 CALLDATALOAD PUSH1 0x1 PUSH1 0x1 PUSH1 0x40 SHL SUB DUP2 GT PUSH2 0x22F JUMPI PUSH2 0x2CE SWAP1 CALLDATASIZE SWAP1 PUSH1 0x4 ADD PUSH2 0x2DC7 JUMP JUMPDEST POP POP PUSH1 0x40 MLOAD PUSH4 0xF23A6E61 PUSH1 0xE0 SHL DUP2 MSTORE PUSH1 0x20 SWAP1 RETURN JUMPDEST CALLVALUE PUSH2 0x22F JUMPI PUSH1 0x20 CALLDATASIZE PUSH1 0x3 NOT ADD SLT PUSH2 0x22F JUMPI PUSH1 0x4 CALLDATALOAD PUSH1 0x0 MSTORE PUSH1 0xC9 PUSH1 0x20 MSTORE PUSH1 0xA0 PUSH1 0x40 PUSH1 0x0 KECCAK256 DUP1 SLOAD SWAP1 PUSH1 0x2 DUP2 ADD SLOAD SWAP1 PUSH1 0x4 PUSH1 0x3 DUP3 ADD SLOAD SWAP2 ADD SLOAD SWAP2 PUSH1 0x40 MLOAD SWAP4 DUP5 MSTORE PUSH1 0x20 DUP5 ADD MSTORE PUSH1 0x40 DUP4 ADD MSTORE PUSH2 0x339 PUSH1 0x60 DUP4 ADD PUSH1 0xFF DUP4 AND PUSH2 0x2DF4 JUMP JUMPDEST PUSH1 0x8 SHR PUSH1 0x0 NOT PUSH1 0x1 DUP5 SHL ADD AND PUSH1 0x80 DUP3 ADD MSTORE RETURN JUMPDEST CALLVALUE PUSH2 0x22F JUMPI PUSH1 0x20 DUP1 PUSH1 0x3 NOT CALLDATASIZE ADD SLT PUSH2 0x22F JUMPI PUSH1 0x4 CALLDATALOAD SWAP1 DUP2 PUSH1 0x0 MSTORE PUSH1 0xCA DUP2 MSTORE PUSH1 0xFF SWAP2 PUSH2 0x37D DUP4 PUSH1 0x40 PUSH1 0x0 KECCAK256 SLOAD AND PUSH2 0x315C JUMP JUMPDEST DUP1 PUSH1 0x0 MSTORE PUSH1 0xC9 DUP3 MSTORE PUSH1 0x3 SWAP1 PUSH2 0x39A DUP3 PUSH1 0x40 PUSH1 0x0 KECCAK256 ADD SLOAD TIMESTAMP LT PUSH2 0x319E JUMP JUMPDEST PUSH2 0x3A4 CALLER DUP3 PUSH2 0x3754 JUMP JUMPDEST ISZERO PUSH2 0x548 JUMPI PUSH2 0x3B1 PUSH2 0x3106 JUMP JUMPDEST PUSH2 0x3B9 PUSH2 0x30C2 JUMP JUMPDEST DUP1 PUSH1 0x0 MSTORE PUSH1 0xC9 DUP4 MSTORE PUSH1 0x40 PUSH1 0x0 KECCAK256 SWAP2 PUSH1 0x4 DUP4 ADD SWAP3 DUP6 DUP5 SLOAD AND PUSH1 0x5 DUP2 LT ISZERO PUSH2 0x532 JUMPI PUSH2 0x4ED JUMPI PUSH1 0x0 SWAP5 PUSH1 0x1 SWAP7 DUP8 SWAP7 DUP8 DUP1 SWAP5 ADD SWAP4 JUMPDEST PUSH2 0x43E JUMPI JUMPDEST POP POP POP POP POP PUSH2 0x427 SWAP2 SWAP3 POP CALLER DUP2 PUSH32 0xBFECE94188CA5510FF29B3892F68DC16C81BE915972F251498A734915BAE128E PUSH1 0x0 DUP1 LOG3 PUSH2 0x3377 JUMP JUMPDEST PUSH2 0x430 JUMPI POP DUP1 SSTORE STOP JUMPDEST DUP1 SLOAD PUSH1 0xFF NOT AND DUP3 OR SWAP1 SSTORE DUP1 SSTORE STOP JUMPDEST DUP4 SLOAD DUP2 LT ISZERO PUSH2 0x4E8 JUMPI PUSH2 0x451 DUP2 DUP6 PUSH2 0x3050 JUMP JUMPDEST POP SLOAD PUSH1 0x1 PUSH1 0x1 PUSH1 0xA0 SHL SUB AND CALLER EQ PUSH2 0x471 JUMPI PUSH2 0x46B SWAP1 PUSH2 0x301F JUMP JUMPDEST DUP8 PUSH2 0x3EB JUMP JUMPDEST SWAP4 DUP1 SWAP6 SWAP7 SWAP8 POP PUSH2 0x481 DUP6 DUP6 PUSH2 0x3050 JUMP JUMPDEST POP ADD SLOAD AND PUSH2 0x4B1 JUMPI POP PUSH2 0x427 SWAP4 SWAP3 SWAP2 PUSH2 0x499 SWAP2 PUSH2 0x3050 JUMP JUMPDEST POP ADD DUP1 SLOAD PUSH1 0xFF NOT AND DUP6 OR SWAP1 SSTORE DUP4 SWAP3 SWAP2 DUP6 DUP1 DUP1 DUP1 PUSH2 0x3F0 JUMP JUMPDEST PUSH1 0x64 SWAP1 PUSH1 0x40 MLOAD SWAP1 PUSH3 0x461BCD PUSH1 0xE5 SHL DUP3 MSTORE PUSH1 0x4 DUP3 ADD MSTORE PUSH1 0x10 PUSH1 0x24 DUP3 ADD MSTORE PUSH16 0x105B1C9958591E48185C1C1C9BDD9959 PUSH1 0x82 SHL PUSH1 0x44 DUP3 ADD MSTORE REVERT JUMPDEST PUSH2 0x3F0 JUMP JUMPDEST PUSH1 0x40 MLOAD PUSH3 0x461BCD PUSH1 0xE5 SHL DUP2 MSTORE PUSH1 0x4 DUP2 ADD DUP7 SWAP1 MSTORE PUSH1 0x1A PUSH1 0x24 DUP3 ADD MSTORE PUSH32 0x53776170206E6F7420696E206372656174656420737461747573000000000000 PUSH1 0x44 DUP3 ADD MSTORE PUSH1 0x64 SWAP1 REVERT JUMPDEST PUSH4 0x4E487B71 PUSH1 0xE0 SHL PUSH1 0x0 MSTORE PUSH1 0x21 PUSH1 0x4 MSTORE PUSH1 0x24 PUSH1 0x0 REVERT JUMPDEST PUSH1 0x40 MLOAD PUSH3 0x461BCD PUSH1 0xE5 SHL DUP2 MSTORE PUSH1 0x4 DUP2 ADD DUP5 SWAP1 MSTORE PUSH1 0x1E PUSH1 0x24 DUP3 ADD MSTORE PUSH32 0x4E6F742061207061727469636970616E7420696E207468697320737761700000 PUSH1 0x44 DUP3 ADD MSTORE PUSH1 0x64 SWAP1 REVERT JUMPDEST CALLVALUE PUSH2 0x22F JUMPI PUSH1 0x60 CALLDATASIZE PUSH1 0x3 NOT ADD SLT PUSH2 0x22F JUMPI PUSH1 0x24 CALLDATALOAD PUSH1 0x1 PUSH1 0x1 PUSH1 0x40 SHL SUB DUP2 GT PUSH2 0x22F JUMPI PUSH2 0x5BD SWAP1 CALLDATASIZE SWAP1 PUSH1 0x4 ADD PUSH2 0x2E01 JUMP JUMPDEST PUSH2 0x5C5 PUSH2 0x3106 JUMP JUMPDEST PUSH2 0x5CD PUSH2 0x30C2 JUMP JUMPDEST PUSH1 0x4 CALLDATALOAD PUSH1 0x0 MSTORE PUSH1 0xCA PUSH1 0x20 MSTORE PUSH1 0xFF PUSH1 0x40 PUSH1 0x0 KECCAK256 SLOAD AND PUSH2 0x15DF JUMPI PUSH1 0x2 DUP2 LT PUSH2 0x159A JUMPI PUSH2 0x5FB PUSH1 0xCC SLOAD DUP3 GT ISZERO PUSH2 0x2FCE JUMP JUMPDEST PUSH1 0xCE SLOAD PUSH1 0x44 CALLDATALOAD LT PUSH2 0x1560 JUMPI PUSH1 0xCD SLOAD PUSH1 0x44 CALLDATALOAD GT PUSH2 0x1527 JUMPI PUSH1 0x0 JUMPDEST DUP2 DUP2 LT PUSH2 0xF62 JUMPI POP PUSH1 0x0 JUMPDEST DUP2 DUP2 LT PUSH2 0xEBD JUMPI POP SWAP1 PUSH1 0x0 DUP1 JUMPDEST DUP4 DUP2 LT PUSH2 0xE9D JUMPI POP PUSH2 0x63D SWAP1 PUSH2 0x35A6 JUMP JUMPDEST PUSH1 0x0 DUP1 JUMPDEST DUP5 DUP2 LT PUSH2 0xE6F JUMPI POP PUSH2 0x652 SWAP1 PUSH2 0x35A6 JUMP JUMPDEST PUSH1 0x0 DUP1 DUP1 JUMPDEST DUP7 DUP4 LT PUSH2 0xD86 JUMPI POP POP POP PUSH1 0x0 SWAP4 JUMPDEST DUP3 MLOAD DUP6 LT ISZERO PUSH2 0x7C6 JUMPI PUSH1 0x0 SWAP4 PUSH1 0x0 JUMPDEST DUP4 MLOAD DUP2 LT ISZERO PUSH2 0x7BC JUMPI PUSH1 0x1 PUSH1 0x1 PUSH1 0xA0 SHL SUB DUP1 PUSH2 0x690 DUP10 DUP9 PUSH2 0x361A JUMP JUMPDEST MLOAD MLOAD AND SWAP1 PUSH2 0x69E DUP4 DUP8 PUSH2 0x361A JUMP JUMPDEST MLOAD MLOAD AND EQ DUP1 PUSH2 0x797 JUMPI JUMPDEST DUP1 PUSH2 0x772 JUMPI JUMPDEST DUP1 PUSH2 0x749 JUMPI JUMPDEST PUSH2 0x6C6 JUMPI PUSH2 0x6C1 SWAP1 PUSH2 0x301F JUMP JUMPDEST PUSH2 0x674 JUMP JUMPDEST POP SWAP5 SWAP1 SWAP2 SWAP4 POP PUSH1 0x1 JUMPDEST ISZERO PUSH2 0x6E5 JUMPI PUSH2 0x6DD SWAP1 PUSH2 0x301F JUMP JUMPDEST SWAP4 SWAP3 SWAP1 PUSH2 0x665 JUMP JUMPDEST PUSH1 0x40 MLOAD PUSH3 0x461BCD PUSH1 0xE5 SHL DUP2 MSTORE PUSH1 0x20 PUSH1 0x4 DUP3 ADD MSTORE PUSH1 0x36 PUSH1 0x24 DUP3 ADD MSTORE PUSH32 0x556E62616C616E636564207472616465202D20676976656E204E465420686173 PUSH1 0x44 DUP3 ADD MSTORE PUSH22 0x81B9BC81B585D18DA1A5B99C81C9958DA5C1A595B9D PUSH1 0x52 SHL PUSH1 0x64 DUP3 ADD MSTORE PUSH1 0x84 SWAP1 REVERT JUMPDEST POP PUSH1 0x60 PUSH2 0x756 DUP9 DUP8 PUSH2 0x361A JUMP JUMPDEST MLOAD ADD MLOAD ISZERO ISZERO PUSH1 0x60 PUSH2 0x767 DUP4 DUP8 PUSH2 0x361A JUMP JUMPDEST MLOAD ADD MLOAD ISZERO ISZERO EQ PUSH2 0x6B4 JUMP JUMPDEST POP PUSH1 0x80 DUP1 PUSH2 0x780 DUP10 DUP9 PUSH2 0x361A JUMP JUMPDEST MLOAD ADD MLOAD SWAP1 PUSH2 0x78E DUP4 DUP8 PUSH2 0x361A JUMP JUMPDEST MLOAD ADD MLOAD EQ PUSH2 0x6AE JUMP JUMPDEST POP PUSH1 0x20 PUSH2 0x7A4 DUP9 DUP8 PUSH2 0x361A JUMP JUMPDEST MLOAD ADD MLOAD PUSH1 0x20 PUSH2 0x7B3 DUP4 DUP8 PUSH2 0x361A JUMP JUMPDEST MLOAD ADD MLOAD EQ PUSH2 0x6A8 JUMP JUMPDEST POP SWAP5 SWAP1 SWAP2 SWAP4 PUSH2 0x6CF JUMP JUMPDEST SWAP2 PUSH1 0x0 SWAP4 JUMPDEST DUP3 MLOAD DUP6 LT ISZERO PUSH2 0x92B JUMPI PUSH1 0x0 SWAP4 PUSH1 0x0 JUMPDEST DUP4 MLOAD DUP2 LT ISZERO PUSH2 0x921 JUMPI PUSH1 0x1 PUSH1 0x1 PUSH1 0xA0 SHL SUB DUP1 PUSH2 0x7F6 DUP10 DUP9 PUSH2 0x361A JUMP JUMPDEST MLOAD MLOAD AND SWAP1 PUSH2 0x804 DUP4 DUP8 PUSH2 0x361A JUMP JUMPDEST MLOAD MLOAD AND EQ DUP1 PUSH2 0x8FC JUMPI JUMPDEST DUP1 PUSH2 0x8D7 JUMPI JUMPDEST DUP1 PUSH2 0x8AE JUMPI JUMPDEST PUSH2 0x82C JUMPI PUSH2 0x827 SWAP1 PUSH2 0x301F JUMP JUMPDEST PUSH2 0x7DA JUMP JUMPDEST POP SWAP5 SWAP1 SWAP2 SWAP4 POP PUSH1 0x1 JUMPDEST ISZERO PUSH2 0x84B JUMPI PUSH2 0x843 SWAP1 PUSH2 0x301F JUMP JUMPDEST SWAP4 SWAP3 SWAP1 PUSH2 0x7CB JUMP JUMPDEST PUSH1 0x40 MLOAD PUSH3 0x461BCD PUSH1 0xE5 SHL DUP2 MSTORE PUSH1 0x20 PUSH1 0x4 DUP3 ADD MSTORE PUSH1 0x35 PUSH1 0x24 DUP3 ADD MSTORE PUSH32 0x556E62616C616E636564207472616465202D207265636569766564204E465420 PUSH1 0x44 DUP3 ADD MSTORE PUSH21 0x3430B99037379036B0BA31B434B7339033B4BB32B9 PUSH1 0x59 SHL PUSH1 0x64 DUP3 ADD MSTORE PUSH1 0x84 SWAP1 REVERT JUMPDEST POP PUSH1 0x60 PUSH2 0x8BB DUP9 DUP8 PUSH2 0x361A JUMP JUMPDEST MLOAD ADD MLOAD ISZERO ISZERO PUSH1 0x60 PUSH2 0x8CC DUP4 DUP8 PUSH2 0x361A JUMP JUMPDEST MLOAD ADD MLOAD ISZERO ISZERO EQ PUSH2 0x81A JUMP JUMPDEST POP PUSH1 0x80 DUP1 PUSH2 0x8E5 DUP10 DUP9 PUSH2 0x361A JUMP JUMPDEST MLOAD ADD MLOAD SWAP1 PUSH2 0x8F3 DUP4 DUP8 PUSH2 0x361A JUMP JUMPDEST MLOAD ADD MLOAD EQ PUSH2 0x814 JUMP JUMPDEST POP PUSH1 0x20 PUSH2 0x909 DUP9 DUP8 PUSH2 0x361A JUMP JUMPDEST MLOAD ADD MLOAD PUSH1 0x20 PUSH2 0x918 DUP4 DUP8 PUSH2 0x361A JUMP JUMPDEST MLOAD ADD MLOAD EQ PUSH2 0x80E JUMP JUMPDEST POP SWAP5 SWAP1 SWAP2 SWAP4 PUSH2 0x835 JUMP JUMPDEST DUP4 PUSH1 0x4 CALLDATALOAD PUSH1 0x0 MSTORE PUSH1 0xC9 PUSH1 0x20 MSTORE PUSH1 0x40 PUSH1 0x0 KECCAK256 PUSH1 0x4 CALLDATALOAD DUP2 SSTORE TIMESTAMP PUSH1 0x2 DUP3 ADD SSTORE PUSH2 0x953 PUSH1 0x44 CALLDATALOAD TIMESTAMP PUSH2 0x3012 JUMP JUMPDEST PUSH1 0x3 DUP3 ADD SSTORE PUSH1 0x4 DUP2 ADD DUP1 SLOAD PUSH1 0x1 PUSH1 0x1 PUSH1 0xA8 SHL SUB NOT AND CALLER PUSH1 0x8 SHL PUSH2 0x100 PUSH1 0x1 PUSH1 0xA8 SHL SUB AND OR SWAP1 SSTORE PUSH1 0x0 JUMPDEST DUP3 DUP2 LT PUSH2 0x9DF JUMPI POP PUSH1 0x3 SWAP1 PUSH1 0x4 CALLDATALOAD PUSH1 0x0 MSTORE PUSH1 0xCA PUSH1 0x20 MSTORE PUSH1 0x40 PUSH1 0x0 KECCAK256 PUSH1 0x1 PUSH1 0xFF NOT DUP3 SLOAD AND OR SWAP1 SSTORE ADD SLOAD PUSH1 0x40 MLOAD SWAP2 DUP3 MSTORE PUSH1 0x20 DUP3 ADD MSTORE CALLER SWAP1 PUSH32 0x65B0C4090DD7502E249BB7170070A58AE3BD4D30790E87091CE732A3B9E0EF06 PUSH1 0x40 PUSH1 0x4 CALLDATALOAD SWAP3 LOG3 PUSH1 0x1 DUP1 SSTORE STOP JUMPDEST PUSH2 0x9EA DUP2 DUP5 DUP7 PUSH2 0x302E JUMP JUMPDEST PUSH1 0x1 DUP4 ADD SLOAD PUSH1 0x1 PUSH1 0x40 SHL DUP2 LT ISZERO PUSH2 0xB5C JUMPI DUP1 PUSH1 0x1 PUSH2 0xA11 SWAP3 ADD PUSH1 0x1 DUP7 ADD SSTORE PUSH1 0x1 DUP6 ADD PUSH2 0x3050 JUMP JUMPDEST PUSH2 0xD70 JUMPI PUSH1 0x1 PUSH1 0x1 PUSH1 0xA0 SHL SUB PUSH2 0xA26 DUP4 PUSH2 0x306C JUMP JUMPDEST DUP3 SLOAD PUSH1 0x1 PUSH1 0x1 PUSH1 0xA0 SHL SUB NOT AND SWAP2 AND OR DUP2 SSTORE PUSH2 0xA44 PUSH1 0x20 DUP4 ADD DUP4 PUSH2 0x3080 JUMP JUMPDEST SWAP1 PUSH1 0x1 PUSH1 0x40 SHL DUP3 GT PUSH2 0xB5C JUMPI PUSH1 0x1 DUP4 ADD SLOAD DUP3 PUSH1 0x1 DUP6 ADD SSTORE DUP1 DUP4 LT PUSH2 0xD0F JUMPI JUMPDEST POP PUSH1 0x1 DUP4 ADD PUSH1 0x0 MSTORE PUSH1 0x20 PUSH1 0x0 KECCAK256 SWAP1 PUSH1 0x0 SWAP1 JUMPDEST DUP4 DUP3 LT PUSH2 0xC7C JUMPI POP POP POP POP PUSH2 0xA8D PUSH1 0x40 DUP4 ADD DUP4 PUSH2 0x3080 JUMP JUMPDEST SWAP1 PUSH1 0x1 PUSH1 0x40 SHL DUP3 GT PUSH2 0xB5C JUMPI PUSH1 0x2 DUP4 ADD SLOAD DUP3 PUSH1 0x2 DUP6 ADD SSTORE DUP1 DUP4 LT PUSH2 0xC05 JUMPI JUMPDEST POP PUSH1 0x2 DUP4 ADD PUSH1 0x0 MSTORE PUSH1 0x20 PUSH1 0x0 KECCAK256 SWAP1 PUSH1 0x0 SWAP1 JUMPDEST DUP4 DUP3 LT PUSH2 0xB72 JUMPI POP POP POP POP PUSH1 0x60 PUSH1 0x3 PUSH2 0xAD9 SWAP3 ADD SWAP3 ADD PUSH2 0x30B5 JUMP JUMPDEST ISZERO ISZERO PUSH1 0xFF DUP1 NOT DUP4 SLOAD AND SWAP2 AND OR SWAP1 SSTORE PUSH1 0x1 DUP1 PUSH1 0xA0 SHL SUB PUSH2 0xB01 PUSH2 0xAFC DUP4 DUP7 DUP9 PUSH2 0x302E JUMP JUMPDEST PUSH2 0x306C JUMP JUMPDEST AND PUSH1 0x0 MSTORE PUSH1 0xCB PUSH1 0x20 MSTORE PUSH1 0x40 PUSH1 0x0 KECCAK256 SWAP1 DUP2 SLOAD PUSH1 0x1 PUSH1 0x40 SHL DUP2 LT ISZERO PUSH2 0xB5C JUMPI PUSH2 0xB34 DUP2 PUSH2 0xB57 SWAP5 PUSH1 0x1 PUSH2 0xB50 SWAP5 ADD DUP2 SSTORE PUSH2 0x2E9F JUMP JUMPDEST PUSH1 0x4 SWAP3 SWAP2 SWAP3 CALLDATALOAD SWAP1 DUP4 SLOAD SWAP1 PUSH1 0x3 SHL SWAP2 DUP3 SHL SWAP2 PUSH1 0x0 NOT SWAP1 SHL NOT AND OR SWAP1 JUMP JUMPDEST SWAP1 SSTORE PUSH2 0x301F JUMP JUMPDEST PUSH2 0x97C JUMP JUMPDEST PUSH4 0x4E487B71 PUSH1 0xE0 SHL PUSH1 0x0 MSTORE PUSH1 0x41 PUSH1 0x4 MSTORE PUSH1 0x24 PUSH1 0x0 REVERT JUMPDEST PUSH1 0x1 SWAP1 PUSH1 0x4 SWAP1 PUSH1 0x1 PUSH1 0x1 PUSH1 0xA0 SHL SUB PUSH2 0xB89 DUP3 PUSH2 0x306C JUMP JUMPDEST AND PUSH1 0x1 PUSH1 0x1 PUSH1 0x60 SHL SUB PUSH1 0xA0 SHL DUP7 SLOAD AND OR DUP6 SSTORE PUSH1 0x20 DUP2 ADD CALLDATALOAD DUP4 DUP7 ADD SSTORE PUSH1 0x2 DUP6 ADD SWAP1 DUP4 DUP1 PUSH1 0xA0 SHL SUB PUSH2 0xBBB PUSH1 0x40 DUP4 ADD PUSH2 0x306C JUMP JUMPDEST AND SWAP2 DUP1 SLOAD PUSH2 0xBCB PUSH1 0x60 DUP5 ADD PUSH2 0x30B5 JUMP JUMPDEST ISZERO ISZERO SWAP4 PUSH1 0xA0 SWAP5 PUSH1 0xFF PUSH1 0xA0 SHL SWAP1 DUP7 SHL AND SWAP2 PUSH11 0xFFFFFFFFFFFFFFFFFFFFFF PUSH1 0xA8 SHL AND OR OR SWAP1 SSTORE PUSH1 0x80 DUP2 ADD CALLDATALOAD PUSH1 0x3 DUP8 ADD SSTORE ADD SWAP4 ADD SWAP2 ADD SWAP1 SWAP2 PUSH2 0xABE JUMP JUMPDEST PUSH1 0x1 PUSH1 0x1 PUSH1 0xFE SHL SUB DUP2 DUP2 AND DUP3 SUB PUSH2 0xC66 JUMPI DUP4 AND DUP4 SUB PUSH2 0xC66 JUMPI PUSH1 0x2 DUP5 ADD PUSH1 0x0 MSTORE PUSH1 0x20 PUSH1 0x0 KECCAK256 DUP4 PUSH1 0x2 SHL DUP2 ADD JUMPDEST DUP3 PUSH1 0x2 SHL DUP3 ADD DUP2 LT PUSH2 0xC44 JUMPI POP POP PUSH2 0xAAC JUMP JUMPDEST DUP1 PUSH1 0x0 PUSH1 0x4 SWAP3 SSTORE PUSH1 0x0 PUSH1 0x1 DUP3 ADD SSTORE PUSH1 0x0 PUSH1 0x2 DUP3 ADD SSTORE PUSH1 0x0 PUSH1 0x3 DUP3 ADD SSTORE ADD PUSH2 0xC31 JUMP JUMPDEST PUSH4 0x4E487B71 PUSH1 0xE0 SHL PUSH1 0x0 MSTORE PUSH1 0x11 PUSH1 0x4 MSTORE PUSH1 0x24 PUSH1 0x0 REVERT JUMPDEST PUSH1 0x1 SWAP1 PUSH1 0x4 SWAP1 PUSH1 0x1 PUSH1 0x1 PUSH1 0xA0 SHL SUB PUSH2 0xC93 DUP3 PUSH2 0x306C JUMP JUMPDEST AND PUSH1 0x1 PUSH1 0x1 PUSH1 0x60 SHL SUB PUSH1 0xA0 SHL DUP7 SLOAD AND OR DUP6 SSTORE PUSH1 0x20 DUP2 ADD CALLDATALOAD DUP4 DUP7 ADD SSTORE PUSH1 0x2 DUP6 ADD SWAP1 DUP4 DUP1 PUSH1 0xA0 SHL SUB PUSH2 0xCC5 PUSH1 0x40 DUP4 ADD PUSH2 0x306C JUMP JUMPDEST AND SWAP2 DUP1 SLOAD PUSH2 0xCD5 PUSH1 0x60 DUP5 ADD PUSH2 0x30B5 JUMP JUMPDEST ISZERO ISZERO SWAP4 PUSH1 0xA0 SWAP5 PUSH1 0xFF PUSH1 0xA0 SHL SWAP1 DUP7 SHL AND SWAP2 PUSH11 0xFFFFFFFFFFFFFFFFFFFFFF PUSH1 0xA8 SHL AND OR OR SWAP1 SSTORE PUSH1 0x80 DUP2 ADD CALLDATALOAD PUSH1 0x3 DUP8 ADD SSTORE ADD SWAP4 ADD SWAP2 ADD SWAP1 SWAP2 PUSH2 0xA75 JUMP JUMPDEST PUSH1 0x1 PUSH1 0x1 PUSH1 0xFE SHL SUB DUP2 DUP2 AND DUP3 SUB PUSH2 0xC66 JUMPI DUP4 AND DUP4 SUB PUSH2 0xC66 JUMPI PUSH1 0x1 DUP5 ADD PUSH1 0x0 MSTORE PUSH1 0x20 PUSH1 0x0 KECCAK256 DUP4 PUSH1 0x2 SHL DUP2 ADD JUMPDEST DUP3 PUSH1 0x2 SHL DUP3 ADD DUP2 LT PUSH2 0xD4E JUMPI POP POP PUSH2 0xA63 JUMP JUMPDEST DUP1 PUSH1 0x0 PUSH1 0x4 SWAP3 SSTORE PUSH1 0x0 PUSH1 0x1 DUP3 ADD SSTORE PUSH1 0x0 PUSH1 0x2 DUP3 ADD SSTORE PUSH1 0x0 PUSH1 0x3 DUP3 ADD SSTORE ADD PUSH2 0xD3B JUMP JUMPDEST PUSH4 0x4E487B71 PUSH1 0xE0 SHL PUSH1 0x0 MSTORE PUSH1 0x0 PUSH1 0x4 MSTORE PUSH1 0x24 PUSH1 0x0 REVERT JUMPDEST PUSH1 0x0 SWAP7 SWAP3 SWAP7 SWAP6 SWAP2 SWAP5 SWAP4 SWAP6 SWAP5 JUMPDEST DUP8 PUSH2 0xDAB PUSH2 0xDA1 DUP3 DUP8 DUP8 PUSH2 0x302E JUMP JUMPDEST PUSH1 0x20 DUP2 ADD SWAP1 PUSH2 0x3080 JUMP JUMPDEST SWAP1 POP DUP8 LT ISZERO PUSH2 0xE02 JUMPI PUSH2 0xDFC SWAP2 PUSH2 0xDDB PUSH2 0xDD6 DUP10 PUSH2 0xDD0 PUSH2 0xDA1 PUSH2 0xDF6 SWAP7 DUP12 DUP12 PUSH2 0x302E JUMP JUMPDEST SWAP1 PUSH2 0x31DD JUMP JUMPDEST PUSH2 0x323C JUMP JUMPDEST PUSH2 0xDE5 DUP3 DUP10 PUSH2 0x361A JUMP JUMPDEST MSTORE PUSH2 0xDF0 DUP2 DUP9 PUSH2 0x361A JUMP JUMPDEST POP PUSH2 0x301F JUMP JUMPDEST SWAP6 PUSH2 0x301F JUMP JUMPDEST SWAP5 PUSH2 0xD92 JUMP JUMPDEST POP SWAP5 POP SWAP1 SWAP5 SWAP3 PUSH1 0x0 SWAP2 JUMPDEST PUSH2 0xE24 PUSH2 0xE1A DUP10 DUP7 DUP11 PUSH2 0x302E JUMP JUMPDEST PUSH1 0x40 DUP2 ADD SWAP1 PUSH2 0x3080 JUMP JUMPDEST SWAP1 POP DUP4 LT ISZERO PUSH2 0xE55 JUMPI PUSH2 0xE49 PUSH2 0xE4F SWAP2 PUSH2 0xDDB PUSH2 0xDD6 DUP7 PUSH2 0xDD0 PUSH2 0xE1A DUP15 DUP12 DUP16 PUSH2 0x302E JUMP JUMPDEST SWAP3 PUSH2 0x301F JUMP JUMPDEST SWAP2 PUSH2 0xE0C JUMP JUMPDEST SWAP3 SWAP4 SWAP6 SWAP7 PUSH2 0xE65 SWAP2 SWAP6 SWAP3 POP PUSH2 0x301F JUMP JUMPDEST SWAP2 SWAP6 SWAP5 SWAP3 SWAP6 PUSH2 0x657 JUMP JUMPDEST SWAP1 PUSH2 0xE8F PUSH2 0xE95 SWAP2 PUSH2 0xE87 PUSH2 0xE1A DUP6 DUP10 DUP10 SWAP11 SWAP10 PUSH2 0x302E JUMP JUMPDEST SWAP2 SWAP1 POP PUSH2 0x3012 JUMP JUMPDEST SWAP2 PUSH2 0x301F JUMP JUMPDEST SWAP4 SWAP3 SWAP4 PUSH2 0x641 JUMP JUMPDEST SWAP1 PUSH2 0xE8F PUSH2 0xEB5 SWAP2 PUSH2 0xE87 PUSH2 0xDA1 DUP6 DUP9 DUP9 SWAP10 SWAP9 PUSH2 0x302E JUMP JUMPDEST SWAP3 SWAP2 SWAP3 PUSH2 0x62C JUMP JUMPDEST PUSH2 0xECB PUSH2 0xDA1 DUP3 DUP5 DUP7 PUSH2 0x302E JUMP JUMPDEST SWAP1 POP ISZERO ISZERO DUP1 PUSH2 0xF4A JUMPI JUMPDEST ISZERO PUSH2 0xEE8 JUMPI PUSH2 0xEE3 SWAP1 PUSH2 0x301F JUMP JUMPDEST PUSH2 0x61F JUMP JUMPDEST PUSH1 0x40 MLOAD PUSH3 0x461BCD PUSH1 0xE5 SHL DUP2 MSTORE PUSH1 0x20 PUSH1 0x4 DUP3 ADD MSTORE PUSH1 0x34 PUSH1 0x24 DUP3 ADD MSTORE PUSH32 0x556E62616C616E636564207472616465202D207061727469636970616E74206D PUSH1 0x44 DUP3 ADD MSTORE PUSH20 0x757374206769766520616E642072656365697665 PUSH1 0x60 SHL PUSH1 0x64 DUP3 ADD MSTORE PUSH1 0x84 SWAP1 REVERT JUMPDEST POP PUSH2 0xF59 PUSH2 0xE1A DUP3 DUP5 DUP7 PUSH2 0x302E JUMP JUMPDEST SWAP1 POP ISZERO ISZERO PUSH2 0xED5 JUMP JUMPDEST PUSH1 0x1 PUSH1 0x1 PUSH1 0xA0 SHL SUB PUSH2 0xF78 PUSH2 0xAFC DUP4 DUP6 DUP8 PUSH2 0x302E JUMP JUMPDEST AND ISZERO PUSH2 0x14E2 JUMPI PUSH2 0xF8C PUSH2 0xDA1 DUP3 DUP5 DUP7 PUSH2 0x302E JUMP JUMPDEST SWAP1 POP ISZERO PUSH2 0x148E JUMPI PUSH2 0xFA1 PUSH2 0xE1A DUP3 DUP5 DUP7 PUSH2 0x302E JUMP JUMPDEST SWAP1 POP ISZERO PUSH2 0x1437 JUMPI PUSH1 0x1 DUP2 ADD DUP1 DUP3 GT PUSH2 0xC66 JUMPI JUMPDEST DUP3 DUP2 LT PUSH2 0x13B6 JUMPI POP PUSH1 0x0 JUMPDEST PUSH2 0xFCD PUSH2 0xDA1 DUP4 DUP6 DUP8 PUSH2 0x302E JUMP JUMPDEST SWAP1 POP DUP2 LT ISZERO PUSH2 0x13A7 JUMPI PUSH2 0xFEB PUSH2 0xDD6 DUP3 PUSH2 0xDD0 PUSH2 0xDA1 DUP7 DUP9 DUP11 PUSH2 0x302E JUMP JUMPDEST DUP1 MLOAD SWAP1 SWAP2 SWAP1 PUSH1 0x1 PUSH1 0x1 PUSH1 0xA0 SHL SUB AND ISZERO PUSH2 0x136B JUMPI PUSH1 0x60 DUP3 ADD MLOAD ISZERO PUSH2 0x119D JUMPI DUP2 MLOAD PUSH1 0x1 PUSH1 0x1 PUSH1 0xA0 SHL SUB AND SWAP2 PUSH2 0x1059 SWAP1 PUSH1 0x20 PUSH2 0x1028 PUSH2 0xAFC DUP8 DUP10 DUP12 PUSH2 0x302E JUMP JUMPDEST DUP3 DUP3 ADD MLOAD PUSH1 0x40 MLOAD PUSH3 0x7EEAC7 PUSH1 0xE1 SHL DUP2 MSTORE PUSH1 0x1 PUSH1 0x1 PUSH1 0xA0 SHL SUB SWAP1 SWAP3 AND PUSH1 0x4 DUP4 ADD MSTORE PUSH1 0x24 DUP3 ADD MSTORE SWAP3 DUP4 SWAP1 DUP2 SWAP1 PUSH1 0x44 DUP3 ADD SWAP1 JUMP JUMPDEST SUB DUP2 DUP8 GAS STATICCALL SWAP2 DUP3 ISZERO PUSH2 0x1117 JUMPI PUSH1 0x0 SWAP3 PUSH2 0x1168 JUMPI JUMPDEST POP PUSH1 0x80 ADD MLOAD GT PUSH2 0x1123 JUMPI PUSH1 0x20 PUSH2 0x10BD SWAP3 PUSH2 0x108B PUSH2 0xAFC DUP7 DUP9 DUP11 PUSH2 0x302E JUMP JUMPDEST PUSH1 0x40 MLOAD PUSH4 0xE985E9C5 PUSH1 0xE0 SHL DUP2 MSTORE PUSH1 0x1 PUSH1 0x1 PUSH1 0xA0 SHL SUB SWAP1 SWAP2 AND PUSH1 0x4 DUP3 ADD MSTORE ADDRESS PUSH1 0x24 DUP3 ADD MSTORE SWAP4 DUP5 SWAP2 SWAP1 DUP3 SWAP1 DUP2 SWAP1 PUSH1 0x44 DUP3 ADD SWAP1 JUMP JUMPDEST SUB SWAP2 GAS STATICCALL SWAP2 DUP3 ISZERO PUSH2 0x1117 JUMPI PUSH2 0x10E3 SWAP3 PUSH2 0x10DE SWAP2 PUSH1 0x0 SWAP2 PUSH2 0x10E8 JUMPI JUMPDEST POP PUSH2 0x32D1 JUMP JUMPDEST PUSH2 0x301F JUMP JUMPDEST PUSH2 0xFBF JUMP JUMPDEST PUSH2 0x110A SWAP2 POP PUSH1 0x20 RETURNDATASIZE PUSH1 0x20 GT PUSH2 0x1110 JUMPI JUMPDEST PUSH2 0x1102 DUP2 DUP4 PUSH2 0x321B JUMP JUMPDEST DUP2 ADD SWAP1 PUSH2 0x32B9 JUMP JUMPDEST DUP8 PUSH2 0x10D8 JUMP JUMPDEST POP RETURNDATASIZE PUSH2 0x10F8 JUMP JUMPDEST PUSH1 0x40 MLOAD RETURNDATASIZE PUSH1 0x0 DUP3 RETURNDATACOPY RETURNDATASIZE SWAP1 REVERT JUMPDEST PUSH1 0x40 MLOAD PUSH3 0x461BCD PUSH1 0xE5 SHL DUP2 MSTORE PUSH1 0x20 PUSH1 0x4 DUP3 ADD MSTORE PUSH1 0x18 PUSH1 0x24 DUP3 ADD MSTORE PUSH32 0x496E73756666696369656E74204E46542062616C616E63650000000000000000 PUSH1 0x44 DUP3 ADD MSTORE PUSH1 0x64 SWAP1 REVERT JUMPDEST SWAP1 SWAP2 POP PUSH1 0x20 DUP2 RETURNDATASIZE PUSH1 0x20 GT PUSH2 0x1195 JUMPI JUMPDEST DUP2 PUSH2 0x1184 PUSH1 0x20 SWAP4 DUP4 PUSH2 0x321B JUMP JUMPDEST DUP2 ADD SUB SLT PUSH2 0x22F JUMPI MLOAD SWAP1 PUSH1 0x80 PUSH2 0x106D JUMP JUMPDEST RETURNDATASIZE SWAP2 POP PUSH2 0x1177 JUMP JUMPDEST PUSH1 0x1 DUP1 PUSH1 0xA0 SHL SUB DUP3 MLOAD AND PUSH1 0x20 DUP4 ADD MLOAD PUSH1 0x40 MLOAD SWAP1 PUSH4 0x31A9108F PUSH1 0xE1 SHL DUP3 MSTORE PUSH1 0x4 DUP3 ADD MSTORE PUSH1 0x20 DUP2 PUSH1 0x24 DUP2 DUP6 GAS STATICCALL SWAP1 DUP2 ISZERO PUSH2 0x1117 JUMPI PUSH1 0x0 SWAP2 PUSH2 0x134C JUMPI JUMPDEST POP PUSH1 0x1 PUSH1 0x1 PUSH1 0xA0 SHL SUB PUSH2 0x11EE PUSH2 0xAFC DUP8 DUP10 DUP12 PUSH2 0x302E JUMP JUMPDEST AND PUSH1 0x1 PUSH1 0x1 PUSH1 0xA0 SHL SUB SWAP1 SWAP2 AND SUB PUSH2 0x1307 JUMPI PUSH2 0x1242 SWAP3 PUSH1 0x20 PUSH2 0x1213 PUSH2 0xAFC DUP8 DUP10 DUP12 PUSH2 0x302E JUMP JUMPDEST PUSH1 0x40 MLOAD PUSH4 0xE985E9C5 PUSH1 0xE0 SHL DUP2 MSTORE PUSH1 0x1 PUSH1 0x1 PUSH1 0xA0 SHL SUB SWAP1 SWAP2 AND PUSH1 0x4 DUP3 ADD MSTORE ADDRESS PUSH1 0x24 DUP3 ADD MSTORE SWAP5 DUP6 SWAP1 DUP2 SWAP1 PUSH1 0x44 DUP3 ADD SWAP1 JUMP JUMPDEST SUB DUP2 DUP6 GAS STATICCALL SWAP4 DUP5 ISZERO PUSH2 0x1117 JUMPI PUSH1 0x0 SWAP5 PUSH2 0x12E6 JUMPI JUMPDEST POP DUP4 ISZERO PUSH2 0x126C JUMPI JUMPDEST POP POP PUSH2 0x10DE PUSH2 0x10E3 SWAP3 PUSH2 0x32D1 JUMP JUMPDEST PUSH1 0x20 SWAP2 SWAP4 POP DUP2 ADD MLOAD PUSH1 0x24 PUSH1 0x40 MLOAD DUP1 SWAP6 DUP2 SWAP4 PUSH4 0x20604BF PUSH1 0xE2 SHL DUP4 MSTORE PUSH1 0x4 DUP4 ADD MSTORE GAS STATICCALL SWAP2 DUP3 ISZERO PUSH2 0x1117 JUMPI PUSH2 0x10E3 SWAP3 PUSH2 0x10DE SWAP2 PUSH1 0x0 SWAP2 PUSH2 0x12B7 JUMPI JUMPDEST POP PUSH1 0x1 PUSH1 0x1 PUSH1 0xA0 SHL SUB AND ADDRESS EQ SWAP3 PUSH2 0x125E JUMP JUMPDEST PUSH2 0x12D9 SWAP2 POP PUSH1 0x20 RETURNDATASIZE PUSH1 0x20 GT PUSH2 0x12DF JUMPI JUMPDEST PUSH2 0x12D1 DUP2 DUP4 PUSH2 0x321B JUMP JUMPDEST DUP2 ADD SWAP1 PUSH2 0x329A JUMP JUMPDEST DUP8 PUSH2 0x12A5 JUMP JUMPDEST POP RETURNDATASIZE PUSH2 0x12C7 JUMP JUMPDEST PUSH2 0x1300 SWAP2 SWAP5 POP PUSH1 0x20 RETURNDATASIZE PUSH1 0x20 GT PUSH2 0x1110 JUMPI PUSH2 0x1102 DUP2 DUP4 PUSH2 0x321B JUMP JUMPDEST SWAP3 DUP8 PUSH2 0x1256 JUMP JUMPDEST PUSH1 0x40 MLOAD PUSH3 0x461BCD PUSH1 0xE5 SHL DUP2 MSTORE PUSH1 0x20 PUSH1 0x4 DUP3 ADD MSTORE PUSH1 0x1C PUSH1 0x24 DUP3 ADD MSTORE PUSH32 0x5061727469636970616E7420646F6573206E6F74206F776E204E465400000000 PUSH1 0x44 DUP3 ADD MSTORE PUSH1 0x64 SWAP1 REVERT JUMPDEST PUSH2 0x1365 SWAP2 POP PUSH1 0x20 RETURNDATASIZE PUSH1 0x20 GT PUSH2 0x12DF JUMPI PUSH2 0x12D1 DUP2 DUP4 PUSH2 0x321B JUMP JUMPDEST DUP8 PUSH2 0x11D7 JUMP JUMPDEST PUSH1 0x40 MLOAD PUSH3 0x461BCD PUSH1 0xE5 SHL DUP2 MSTORE PUSH1 0x20 PUSH1 0x4 DUP3 ADD MSTORE PUSH1 0x14 PUSH1 0x24 DUP3 ADD MSTORE PUSH20 0x125B9D985B1A59081391950818DBDB9D1C9858DD PUSH1 0x62 SHL PUSH1 0x44 DUP3 ADD MSTORE PUSH1 0x64 SWAP1 REVERT JUMPDEST POP PUSH2 0x13B1 SWAP1 PUSH2 0x301F JUMP JUMPDEST PUSH2 0x614 JUMP JUMPDEST PUSH2 0x13C4 PUSH2 0xAFC DUP4 DUP6 DUP8 PUSH2 0x302E JUMP JUMPDEST PUSH1 0x1 PUSH1 0x1 PUSH1 0xA0 SHL SUB PUSH2 0x13DA PUSH2 0xAFC DUP5 DUP8 DUP10 PUSH2 0x302E JUMP JUMPDEST PUSH1 0x1 PUSH1 0x1 PUSH1 0xA0 SHL SUB SWAP1 SWAP3 AND SWAP2 AND EQ PUSH2 0x13FA JUMPI PUSH2 0x13F5 SWAP1 PUSH2 0x301F JUMP JUMPDEST PUSH2 0xFB4 JUMP JUMPDEST PUSH1 0x40 MLOAD PUSH3 0x461BCD PUSH1 0xE5 SHL DUP2 MSTORE PUSH1 0x20 PUSH1 0x4 DUP3 ADD MSTORE PUSH1 0x15 PUSH1 0x24 DUP3 ADD MSTORE PUSH21 0x111D5C1B1A58D85D19481C185C9D1A58DA5C185B9D PUSH1 0x5A SHL PUSH1 0x44 DUP3 ADD MSTORE PUSH1 0x64 SWAP1 REVERT JUMPDEST PUSH1 0x40 MLOAD PUSH3 0x461BCD PUSH1 0xE5 SHL DUP2 MSTORE PUSH1 0x20 PUSH1 0x4 DUP3 ADD MSTORE PUSH1 0x29 PUSH1 0x24 DUP3 ADD MSTORE PUSH32 0x5061727469636970616E74206D7573742072656365697665206174206C656173 PUSH1 0x44 DUP3 ADD MSTORE PUSH9 0x1D081BDB9948139195 PUSH1 0xBA SHL PUSH1 0x64 DUP3 ADD MSTORE PUSH1 0x84 SWAP1 REVERT JUMPDEST PUSH1 0x40 MLOAD PUSH3 0x461BCD PUSH1 0xE5 SHL DUP2 MSTORE PUSH1 0x20 PUSH1 0x4 DUP3 ADD MSTORE PUSH1 0x26 PUSH1 0x24 DUP3 ADD MSTORE PUSH32 0x5061727469636970616E74206D7573742067697665206174206C65617374206F PUSH1 0x44 DUP3 ADD MSTORE PUSH6 0x1B9948139195 PUSH1 0xD2 SHL PUSH1 0x64 DUP3 ADD MSTORE PUSH1 0x84 SWAP1 REVERT JUMPDEST PUSH1 0x40 MLOAD PUSH3 0x461BCD PUSH1 0xE5 SHL DUP2 MSTORE PUSH1 0x20 PUSH1 0x4 DUP3 ADD MSTORE PUSH1 0x1B PUSH1 0x24 DUP3 ADD MSTORE PUSH32 0x496E76616C6964207061727469636970616E7420616464726573730000000000 PUSH1 0x44 DUP3 ADD MSTORE PUSH1 0x64 SWAP1 REVERT JUMPDEST PUSH1 0x40 MLOAD PUSH3 0x461BCD PUSH1 0xE5 SHL DUP2 MSTORE PUSH1 0x20 PUSH1 0x4 DUP3 ADD MSTORE PUSH1 0x11 PUSH1 0x24 DUP3 ADD MSTORE PUSH17 0x4475726174696F6E20746F6F206C6F6E67 PUSH1 0x78 SHL PUSH1 0x44 DUP3 ADD MSTORE PUSH1 0x64 SWAP1 REVERT JUMPDEST PUSH1 0x40 MLOAD PUSH3 0x461BCD PUSH1 0xE5 SHL DUP2 MSTORE PUSH1 0x20 PUSH1 0x4 DUP3 ADD MSTORE PUSH1 0x12 PUSH1 0x24 DUP3 ADD MSTORE PUSH18 0x111D5C985D1A5BDB881D1BDBC81CDA1BDC9D PUSH1 0x72 SHL PUSH1 0x44 DUP3 ADD MSTORE PUSH1 0x64 SWAP1 REVERT JUMPDEST PUSH1 0x40 MLOAD PUSH3 0x461BCD PUSH1 0xE5 SHL DUP2 MSTORE PUSH1 0x20 PUSH1 0x4 DUP3 ADD MSTORE PUSH1 0x1F PUSH1 0x24 DUP3 ADD MSTORE PUSH32 0x4D696E696D756D2032207061727469636970616E747320726571756972656400 PUSH1 0x44 DUP3 ADD MSTORE PUSH1 0x64 SWAP1 REVERT JUMPDEST PUSH1 0x40 MLOAD PUSH3 0x461BCD PUSH1 0xE5 SHL DUP2 MSTORE PUSH1 0x20 PUSH1 0x4 DUP3 ADD MSTORE PUSH1 0x13 PUSH1 0x24 DUP3 ADD MSTORE PUSH19 0x5377617020616C726561647920657869737473 PUSH1 0x68 SHL PUSH1 0x44 DUP3 ADD MSTORE PUSH1 0x64 SWAP1 REVERT JUMPDEST CALLVALUE PUSH2 0x22F JUMPI PUSH1 0x0 CALLDATASIZE PUSH1 0x3 NOT ADD SLT PUSH2 0x22F JUMPI PUSH1 0x20 PUSH1 0xCF SLOAD PUSH1 0x40 MLOAD SWAP1 DUP2 MSTORE RETURN JUMPDEST CALLVALUE PUSH2 0x22F JUMPI PUSH1 0x40 CALLDATASIZE PUSH1 0x3 NOT ADD SLT PUSH2 0x22F JUMPI PUSH1 0x20 PUSH2 0x165E PUSH2 0x1656 PUSH2 0x2D9D JUMP JUMPDEST PUSH1 0x4 CALLDATALOAD PUSH2 0x3754 JUMP JUMPDEST PUSH1 0x40 MLOAD SWAP1 ISZERO ISZERO DUP2 MSTORE RETURN JUMPDEST CALLVALUE PUSH2 0x22F JUMPI PUSH1 0xA0 CALLDATASIZE PUSH1 0x3 NOT ADD SLT PUSH2 0x22F JUMPI PUSH2 0x1681 PUSH2 0x2D87 JUMP JUMPDEST POP PUSH2 0x168A PUSH2 0x2D9D JUMP JUMPDEST POP PUSH1 0x1 PUSH1 0x1 PUSH1 0x40 SHL SUB PUSH1 0x44 CALLDATALOAD DUP2 DUP2 GT PUSH2 0x22F JUMPI PUSH2 0x16AB SWAP1 CALLDATASIZE SWAP1 PUSH1 0x4 ADD PUSH2 0x2E01 JUMP JUMPDEST POP POP PUSH1 0x64 CALLDATALOAD DUP2 DUP2 GT PUSH2 0x22F JUMPI PUSH2 0x16C5 SWAP1 CALLDATASIZE SWAP1 PUSH1 0x4 ADD PUSH2 0x2E01 JUMP JUMPDEST POP POP PUSH1 0x84 CALLDATALOAD SWAP1 DUP2 GT PUSH2 0x22F JUMPI PUSH2 0x16DF SWAP1 CALLDATASIZE SWAP1 PUSH1 0x4 ADD PUSH2 0x2DC7 JUMP JUMPDEST POP POP PUSH1 0x40 MLOAD PUSH4 0xBC197C81 PUSH1 0xE0 SHL DUP2 MSTORE PUSH1 0x20 SWAP1 RETURN JUMPDEST CALLVALUE PUSH2 0x22F JUMPI PUSH1 0x40 CALLDATASIZE PUSH1 0x3 NOT ADD SLT PUSH2 0x22F JUMPI PUSH1 0x4 CALLDATALOAD PUSH2 0x170F PUSH2 0x2D9D JUMP JUMPDEST PUSH2 0x1717 PUSH2 0x2ECD JUMP JUMPDEST PUSH2 0x1F4 DUP3 GT PUSH2 0x1787 JUMPI PUSH32 0x75FB21C92262816A2D319654F21A740DA5DDA05951B9650BB4506B6733589670 SWAP2 PUSH1 0x80 SWAP2 PUSH1 0xCF SLOAD SWAP2 PUSH1 0xD0 SLOAD SWAP2 DUP2 PUSH1 0xCF SSTORE PUSH1 0x1 DUP1 PUSH1 0xA0 SHL SUB DUP1 SWAP2 AND SWAP3 DUP4 PUSH1 0x1 PUSH1 0x1 PUSH1 0x60 SHL SUB PUSH1 0xA0 SHL DUP3 AND OR PUSH1 0xD0 SSTORE PUSH1 0x40 MLOAD SWAP5 DUP6 MSTORE AND PUSH1 0x20 DUP5 ADD MSTORE PUSH1 0x40 DUP4 ADD MSTORE PUSH1 0x60 DUP3 ADD MSTORE LOG1 STOP JUMPDEST PUSH1 0x40 MLOAD PUSH3 0x461BCD PUSH1 0xE5 SHL DUP2 MSTORE PUSH1 0x20 PUSH1 0x4 DUP3 ADD MSTORE PUSH1 0xC PUSH1 0x24 DUP3 ADD MSTORE PUSH12 0x8CCACA40E8DEDE40D0D2CED PUSH1 0xA3 SHL PUSH1 0x44 DUP3 ADD MSTORE PUSH1 0x64 SWAP1 REVERT JUMPDEST CALLVALUE PUSH2 0x22F JUMPI PUSH1 0x20 DUP1 PUSH1 0x3 NOT CALLDATASIZE ADD SLT PUSH2 0x22F JUMPI PUSH1 0x4 CALLDATALOAD DUP1 PUSH1 0x0 MSTORE PUSH1 0xCA DUP3 MSTORE PUSH1 0xFF SWAP1 PUSH2 0x17EB DUP3 PUSH1 0x40 PUSH1 0x0 KECCAK256 SLOAD AND PUSH2 0x315C JUMP JUMPDEST PUSH1 0x0 MSTORE PUSH1 0xC9 DUP3 MSTORE PUSH1 0x1 SWAP2 DUP3 PUSH1 0x40 PUSH1 0x0 KECCAK256 ADD SWAP1 DUP2 SLOAD PUSH2 0x1808 DUP2 PUSH2 0x358F JUMP JUMPDEST SWAP4 PUSH2 0x1816 PUSH1 0x40 MLOAD SWAP6 DUP7 PUSH2 0x321B JUMP JUMPDEST DUP2 DUP6 MSTORE DUP3 DUP6 ADD DUP1 SWAP5 PUSH1 0x0 MSTORE DUP4 PUSH1 0x0 KECCAK256 PUSH1 0x0 SWAP2 JUMPDEST DUP5 DUP4 LT PUSH2 0x18D4 JUMPI POP POP POP POP POP PUSH1 0x40 MLOAD SWAP4 DUP5 SWAP4 DUP3 DUP6 ADD SWAP1 DUP4 DUP7 MSTORE MLOAD DUP1 SWAP2 MSTORE PUSH1 0x40 DUP6 ADD SWAP3 PUSH1 0x40 DUP3 PUSH1 0x5 SHL DUP8 ADD ADD SWAP5 SWAP4 PUSH1 0x0 SWAP1 JUMPDEST DUP4 DUP3 LT PUSH2 0x1867 JUMPI DUP8 DUP8 SUB DUP9 RETURN JUMPDEST SWAP2 DUP5 SWAP7 DUP2 SWAP6 SWAP3 SWAP5 SWAP7 SWAP9 POP DUP2 SWAP1 PUSH1 0x3F NOT DUP12 DUP3 SUB ADD DUP6 MSTORE DUP10 MLOAD SWAP1 PUSH1 0x1 DUP1 PUSH1 0xA0 SHL SUB DUP3 MLOAD AND DUP2 MSTORE PUSH2 0x18B6 PUSH2 0x18A4 DUP5 DUP5 ADD MLOAD PUSH1 0x80 DUP1 DUP8 DUP7 ADD MSTORE DUP5 ADD SWAP1 PUSH2 0x2E31 JUMP JUMPDEST PUSH1 0x40 DUP5 ADD MLOAD DUP4 DUP3 SUB PUSH1 0x40 DUP6 ADD MSTORE PUSH2 0x2E31 JUMP JUMPDEST SWAP2 PUSH1 0x60 DUP1 SWAP2 ADD MLOAD ISZERO ISZERO SWAP2 ADD MSTORE SWAP9 ADD SWAP3 ADD SWAP3 ADD DUP8 SWAP7 SWAP6 SWAP4 SWAP2 SWAP5 SWAP3 PUSH2 0x185A JUMP JUMPDEST PUSH1 0x40 SWAP9 SWAP7 SWAP8 SWAP6 SWAP9 MLOAD PUSH1 0x80 DUP2 ADD DUP2 DUP2 LT PUSH1 0x1 PUSH1 0x1 PUSH1 0x40 SHL SUB DUP3 GT OR PUSH2 0xB5C JUMPI PUSH1 0x40 MSTORE DUP3 SLOAD PUSH1 0x1 PUSH1 0x1 PUSH1 0xA0 SHL SUB AND DUP2 MSTORE DUP8 SWAP2 PUSH1 0x4 SWAP2 DUP12 SWAP2 SWAP1 PUSH2 0x1915 DUP7 DUP7 ADD PUSH2 0x37C8 JUMP JUMPDEST DUP4 DUP3 ADD MSTORE PUSH2 0x1925 PUSH1 0x2 DUP8 ADD PUSH2 0x37C8 JUMP JUMPDEST PUSH1 0x40 DUP3 ADD MSTORE DUP8 PUSH1 0x3 DUP8 ADD SLOAD AND ISZERO ISZERO PUSH1 0x60 DUP3 ADD MSTORE DUP2 MSTORE ADD SWAP3 ADD SWAP3 ADD SWAP2 SWAP1 SWAP8 SWAP5 SWAP7 SWAP6 SWAP8 PUSH2 0x1829 JUMP JUMPDEST CALLVALUE PUSH2 0x22F JUMPI PUSH1 0x0 CALLDATASIZE PUSH1 0x3 NOT ADD SLT PUSH2 0x22F JUMPI PUSH1 0x20 PUSH1 0xCD SLOAD PUSH1 0x40 MLOAD SWAP1 DUP2 MSTORE RETURN JUMPDEST CALLVALUE PUSH2 0x22F JUMPI PUSH1 0x0 CALLDATASIZE PUSH1 0x3 NOT ADD SLT PUSH2 0x22F JUMPI PUSH1 0x20 PUSH1 0xCE SLOAD PUSH1 0x40 MLOAD SWAP1 DUP2 MSTORE RETURN JUMPDEST CALLVALUE PUSH2 0x22F JUMPI PUSH1 0x20 CALLDATASIZE PUSH1 0x3 NOT ADD SLT PUSH2 0x22F JUMPI PUSH1 0x4 CALLDATALOAD PUSH1 0x0 MSTORE PUSH1 0xCA PUSH1 0x20 MSTORE PUSH2 0x19B4 PUSH1 0xFF PUSH1 0x40 PUSH1 0x0 KECCAK256 SLOAD AND PUSH2 0x315C JUMP JUMPDEST PUSH1 0x4 CALLDATALOAD PUSH1 0x0 MSTORE PUSH1 0xC9 PUSH1 0x20 MSTORE PUSH2 0x19D2 PUSH1 0x3 PUSH1 0x40 PUSH1 0x0 KECCAK256 ADD SLOAD TIMESTAMP LT PUSH2 0x319E JUMP JUMPDEST PUSH2 0x19DA PUSH2 0x3106 JUMP JUMPDEST PUSH2 0x19E2 PUSH2 0x30C2 JUMP JUMPDEST PUSH1 0x4 CALLDATALOAD PUSH1 0x0 MSTORE PUSH1 0xC9 PUSH1 0x20 MSTORE PUSH1 0x40 PUSH1 0x0 KECCAK256 PUSH1 0xFF PUSH1 0x4 DUP3 ADD SLOAD AND PUSH1 0x5 DUP2 LT ISZERO PUSH2 0x532 JUMPI PUSH1 0x1 SUB PUSH2 0x1FD9 JUMPI PUSH1 0x4 CALLDATALOAD PUSH1 0x0 MSTORE PUSH1 0xC9 PUSH1 0x20 MSTORE PUSH1 0x40 PUSH1 0x0 KECCAK256 PUSH1 0x0 SWAP1 PUSH1 0x1 DUP2 ADD SLOAD SWAP2 JUMPDEST DUP3 DUP2 LT PUSH2 0x1C95 JUMPI PUSH1 0x4 DUP1 CALLDATALOAD PUSH1 0x0 SWAP1 DUP2 MSTORE PUSH1 0xC9 PUSH1 0x20 MSTORE PUSH1 0x40 DUP2 KECCAK256 SWAP2 DUP3 ADD DUP1 SLOAD PUSH1 0xFF NOT AND PUSH1 0x2 OR SWAP1 SSTORE DUP6 JUMPDEST PUSH1 0x1 DUP4 ADD SLOAD DUP3 LT ISZERO PUSH2 0x1C00 JUMPI PUSH2 0x1A66 DUP3 PUSH1 0x1 DUP6 ADD PUSH2 0x3050 JUMP JUMPDEST POP SWAP3 PUSH1 0x0 JUMPDEST PUSH1 0x1 DUP6 ADD DUP1 SLOAD DUP3 LT ISZERO PUSH2 0x1BEB JUMPI DUP2 PUSH2 0x1A82 SWAP2 PUSH2 0x3050 JUMP JUMPDEST POP DUP1 SLOAD PUSH1 0x1 DUP3 ADD SLOAD SWAP2 SWAP3 SWAP2 PUSH1 0x1 PUSH1 0x1 PUSH1 0xA0 SHL SUB SWAP2 DUP3 AND SWAP2 PUSH2 0x1AA6 DUP3 DUP5 PUSH1 0x4 CALLDATALOAD PUSH2 0x362E JUMP JUMPDEST AND SWAP1 DUP2 ISZERO PUSH2 0x1BA6 JUMPI PUSH1 0x2 DUP6 ADD SLOAD PUSH1 0xA0 SWAP4 SWAP1 DUP5 SHR PUSH1 0xFF AND ISZERO PUSH2 0x1B4E JUMPI POP POP DUP4 SLOAD DUP9 SLOAD PUSH1 0x1 DUP7 ADD SLOAD PUSH1 0x3 SWAP1 SWAP7 ADD SLOAD PUSH1 0x1 PUSH1 0x1 PUSH1 0xA0 SHL SUB SWAP3 DUP4 AND SWAP5 SWAP3 SWAP1 SWAP2 AND SWAP1 DUP5 EXTCODESIZE ISZERO PUSH2 0x22F JUMPI PUSH1 0x0 SWAP5 PUSH1 0xC4 SWAP4 DUP7 SWAP3 PUSH1 0x40 MLOAD SWAP10 DUP11 SWAP8 DUP9 SWAP7 PUSH4 0x79212195 PUSH1 0xE1 SHL DUP9 MSTORE PUSH1 0x4 DUP9 ADD MSTORE PUSH1 0x24 DUP8 ADD MSTORE PUSH1 0x44 DUP7 ADD MSTORE PUSH1 0x64 DUP6 ADD MSTORE PUSH1 0x84 DUP5 ADD MSTORE DUP2 PUSH1 0xA4 DUP5 ADD MSTORE GAS CALL SWAP2 DUP3 ISZERO PUSH2 0x1117 JUMPI PUSH2 0x1B3A SWAP3 PUSH2 0x1B3F JUMPI POP PUSH2 0x301F JUMP JUMPDEST PUSH2 0x1A6B JUMP JUMPDEST PUSH2 0x1B48 SWAP1 PUSH2 0x31ED JUMP JUMPDEST DUP7 PUSH2 0xDF0 JUMP JUMPDEST DUP10 SLOAD SWAP2 SWAP6 POP PUSH1 0x1 PUSH1 0x1 PUSH1 0xA0 SHL SUB SWAP1 SWAP2 AND SWAP3 POP DUP1 EXTCODESIZE ISZERO PUSH2 0x22F JUMPI PUSH1 0x0 SWAP3 DUP4 PUSH1 0x64 SWAP3 PUSH1 0x40 MLOAD SWAP8 DUP9 SWAP6 DUP7 SWAP5 PUSH4 0x21421707 PUSH1 0xE1 SHL DUP7 MSTORE PUSH1 0x4 DUP7 ADD MSTORE PUSH1 0x24 DUP6 ADD MSTORE PUSH1 0x44 DUP5 ADD MSTORE GAS CALL SWAP2 DUP3 ISZERO PUSH2 0x1117 JUMPI PUSH2 0x1B3A SWAP3 PUSH2 0x1B3F JUMPI POP PUSH2 0x301F JUMP JUMPDEST PUSH1 0x40 MLOAD PUSH3 0x461BCD PUSH1 0xE5 SHL DUP2 MSTORE PUSH1 0x20 PUSH1 0x4 DUP3 ADD MSTORE PUSH1 0x1A PUSH1 0x24 DUP3 ADD MSTORE PUSH32 0x4E6F20726563697069656E7420666F756E6420666F72204E4654000000000000 PUSH1 0x44 DUP3 ADD MSTORE PUSH1 0x64 SWAP1 REVERT JUMPDEST POP POP SWAP2 PUSH2 0x1BF9 SWAP2 SWAP4 POP PUSH2 0x301F JUMP JUMPDEST SWAP1 SWAP2 PUSH2 0x1A4D JUMP JUMPDEST PUSH1 0x1 SWAP1 PUSH1 0xCF SLOAD ISZERO ISZERO DUP1 PUSH2 0x1C83 JUMPI JUMPDEST PUSH2 0x1C73 JUMPI JUMPDEST PUSH1 0x4 DUP2 DUP2 ADD DUP1 SLOAD PUSH1 0xFF NOT AND PUSH1 0x2 OR SWAP1 SSTORE PUSH2 0x1C2D SWAP1 CALLDATALOAD PUSH2 0x33CA JUMP JUMPDEST ADD SLOAD PUSH2 0x1C3A PUSH1 0x4 CALLDATALOAD PUSH2 0x3538 JUMP JUMPDEST PUSH1 0x40 MLOAD SWAP2 DUP3 MSTORE PUSH1 0x20 DUP3 ADD MSTORE PUSH32 0x40CAD0FC6608AB3D2AE001F577AB42BCFB812D314E78770986CFC1D2025FBE12 PUSH1 0x40 PUSH1 0x4 CALLDATALOAD SWAP3 LOG2 PUSH1 0x1 DUP1 SSTORE STOP JUMPDEST PUSH2 0x1C7E PUSH1 0x4 CALLDATALOAD PUSH2 0x36DF JUMP JUMPDEST PUSH2 0x1C13 JUMP JUMPDEST POP DUP2 DUP1 PUSH1 0xA0 SHL SUB PUSH1 0xD0 SLOAD AND ISZERO ISZERO PUSH2 0x1C0E JUMP JUMPDEST PUSH2 0x1CA2 DUP2 PUSH1 0x1 DUP5 ADD PUSH2 0x3050 JUMP JUMPDEST POP PUSH1 0x1 DUP2 ADD SLOAD PUSH1 0x0 JUMPDEST DUP2 DUP2 LT PUSH2 0x1CC3 JUMPI POP POP POP PUSH2 0x1CBE SWAP1 PUSH2 0x301F JUMP JUMPDEST PUSH2 0x1A24 JUMP JUMPDEST PUSH2 0x1CD0 DUP2 PUSH1 0x1 DUP6 ADD PUSH2 0x3050 JUMP JUMPDEST POP SWAP1 PUSH1 0xFF PUSH1 0x2 DUP4 ADD SLOAD PUSH1 0xA0 SHR AND PUSH1 0x0 EQ PUSH2 0x1E34 JUMPI DUP2 SLOAD DUP5 SLOAD PUSH1 0x1 DUP5 ADD SLOAD PUSH1 0x40 MLOAD PUSH3 0x7EEAC7 PUSH1 0xE1 SHL DUP2 MSTORE PUSH1 0x1 PUSH1 0x1 PUSH1 0xA0 SHL SUB SWAP3 DUP4 AND PUSH1 0x4 DUP3 ADD DUP2 SWAP1 MSTORE PUSH1 0x24 DUP3 ADD SWAP3 SWAP1 SWAP3 MSTORE SWAP1 SWAP5 SWAP2 SWAP1 SWAP3 AND SWAP2 SWAP1 PUSH1 0x20 DUP3 PUSH1 0x44 DUP2 DUP7 GAS STATICCALL SWAP2 DUP3 ISZERO PUSH2 0x1117 JUMPI PUSH1 0x0 SWAP3 PUSH2 0x1DFF JUMPI JUMPDEST POP PUSH1 0x3 ADD SLOAD GT PUSH2 0x1DAE JUMPI PUSH1 0x40 MLOAD PUSH4 0xE985E9C5 PUSH1 0xE0 SHL DUP2 MSTORE PUSH1 0x1 PUSH1 0x1 PUSH1 0xA0 SHL SUB SWAP4 SWAP1 SWAP4 AND PUSH1 0x4 DUP5 ADD MSTORE ADDRESS PUSH1 0x24 DUP5 ADD MSTORE PUSH1 0x20 SWAP1 DUP4 SWAP1 PUSH1 0x44 SWAP1 DUP3 SWAP1 GAS STATICCALL SWAP2 DUP3 ISZERO PUSH2 0x1117 JUMPI PUSH2 0x1D8A SWAP3 PUSH2 0x10DE SWAP2 PUSH1 0x0 SWAP2 PUSH2 0x1D8F JUMPI JUMPDEST POP PUSH2 0x331D JUMP JUMPDEST PUSH2 0x1CAB JUMP JUMPDEST PUSH2 0x1DA8 SWAP2 POP PUSH1 0x20 RETURNDATASIZE PUSH1 0x20 GT PUSH2 0x1110 JUMPI PUSH2 0x1102 DUP2 DUP4 PUSH2 0x321B JUMP JUMPDEST DUP11 PUSH2 0x1D84 JUMP JUMPDEST PUSH1 0x40 MLOAD PUSH3 0x461BCD PUSH1 0xE5 SHL DUP2 MSTORE PUSH1 0x20 PUSH1 0x4 DUP3 ADD MSTORE PUSH1 0x24 DUP1 DUP3 ADD MSTORE PUSH32 0x4E46542062616C616E6365206368616E676564206265666F7265206578656375 PUSH1 0x44 DUP3 ADD MSTORE PUSH4 0x3A34B7B7 PUSH1 0xE1 SHL PUSH1 0x64 DUP3 ADD MSTORE PUSH1 0x84 SWAP1 REVERT JUMPDEST SWAP1 SWAP2 POP PUSH1 0x20 DUP2 RETURNDATASIZE PUSH1 0x20 GT PUSH2 0x1E2C JUMPI JUMPDEST DUP2 PUSH2 0x1E1B PUSH1 0x20 SWAP4 DUP4 PUSH2 0x321B JUMP JUMPDEST DUP2 ADD SUB SLT PUSH2 0x22F JUMPI MLOAD SWAP1 PUSH1 0x3 PUSH2 0x1D33 JUMP JUMPDEST RETURNDATASIZE SWAP2 POP PUSH2 0x1E0E JUMP JUMPDEST DUP2 SLOAD PUSH1 0x1 SWAP1 SWAP3 ADD SLOAD PUSH1 0x40 MLOAD PUSH4 0x31A9108F PUSH1 0xE1 SHL DUP2 MSTORE PUSH1 0x4 DUP2 ADD DUP3 SWAP1 MSTORE SWAP3 PUSH1 0x1 PUSH1 0x1 PUSH1 0xA0 SHL SUB AND SWAP1 PUSH1 0x20 DUP5 PUSH1 0x24 DUP2 DUP6 GAS STATICCALL SWAP4 DUP5 ISZERO PUSH2 0x1117 JUMPI PUSH1 0x0 SWAP5 PUSH2 0x1FB8 JUMPI JUMPDEST POP DUP6 SLOAD PUSH1 0x1 PUSH1 0x1 PUSH1 0xA0 SHL SUB SWAP1 DUP2 AND SWAP5 AND DUP5 SWAP1 SUB PUSH2 0x1F64 JUMPI PUSH1 0x40 MLOAD PUSH4 0xE985E9C5 PUSH1 0xE0 SHL DUP2 MSTORE PUSH1 0x1 PUSH1 0x1 PUSH1 0xA0 SHL SUB SWAP5 SWAP1 SWAP5 AND PUSH1 0x4 DUP6 ADD MSTORE ADDRESS PUSH1 0x24 DUP6 ADD MSTORE PUSH1 0x20 DUP5 PUSH1 0x44 DUP2 DUP6 GAS STATICCALL SWAP4 DUP5 ISZERO PUSH2 0x1117 JUMPI PUSH1 0x0 SWAP5 PUSH2 0x1F43 JUMPI JUMPDEST POP DUP4 ISZERO PUSH2 0x1EDC JUMPI JUMPDEST POP POP PUSH2 0x10DE PUSH2 0x1D8A SWAP3 PUSH2 0x331D JUMP JUMPDEST PUSH1 0x20 SWAP2 SWAP4 POP PUSH1 0x24 PUSH1 0x40 MLOAD DUP1 SWAP6 DUP2 SWAP4 PUSH4 0x20604BF PUSH1 0xE2 SHL DUP4 MSTORE PUSH1 0x4 DUP4 ADD MSTORE GAS STATICCALL SWAP2 DUP3 ISZERO PUSH2 0x1117 JUMPI PUSH2 0x1D8A SWAP3 PUSH2 0x10DE SWAP2 PUSH1 0x0 SWAP2 PUSH2 0x1F24 JUMPI JUMPDEST POP PUSH1 0x1 PUSH1 0x1 PUSH1 0xA0 SHL SUB AND ADDRESS EQ SWAP3 PUSH2 0x1ECE JUMP JUMPDEST PUSH2 0x1F3D SWAP2 POP PUSH1 0x20 RETURNDATASIZE PUSH1 0x20 GT PUSH2 0x12DF JUMPI PUSH2 0x12D1 DUP2 DUP4 PUSH2 0x321B JUMP JUMPDEST DUP11 PUSH2 0x1F12 JUMP JUMPDEST PUSH2 0x1F5D SWAP2 SWAP5 POP PUSH1 0x20 RETURNDATASIZE PUSH1 0x20 GT PUSH2 0x1110 JUMPI PUSH2 0x1102 DUP2 DUP4 PUSH2 0x321B JUMP JUMPDEST SWAP3 DUP11 PUSH2 0x1EC6 JUMP JUMPDEST PUSH1 0x40 MLOAD PUSH3 0x461BCD PUSH1 0xE5 SHL DUP2 MSTORE PUSH1 0x20 PUSH1 0x4 DUP3 ADD MSTORE PUSH1 0x26 PUSH1 0x24 DUP3 ADD MSTORE PUSH32 0x4E4654206F776E657273686970206368616E676564206265666F726520657865 PUSH1 0x44 DUP3 ADD MSTORE PUSH6 0x31BABA34B7B7 PUSH1 0xD1 SHL PUSH1 0x64 DUP3 ADD MSTORE PUSH1 0x84 SWAP1 REVERT JUMPDEST PUSH2 0x1FD2 SWAP2 SWAP5 POP PUSH1 0x20 RETURNDATASIZE PUSH1 0x20 GT PUSH2 0x12DF JUMPI PUSH2 0x12D1 DUP2 DUP4 PUSH2 0x321B JUMP JUMPDEST SWAP3 DUP11 PUSH2 0x1E73 JUMP JUMPDEST PUSH1 0x40 MLOAD PUSH3 0x461BCD PUSH1 0xE5 SHL DUP2 MSTORE PUSH1 0x20 PUSH1 0x4 DUP3 ADD MSTORE PUSH1 0x17 PUSH1 0x24 DUP3 ADD MSTORE PUSH32 0x53776170206E6F742066756C6C7920617070726F766564000000000000000000 PUSH1 0x44 DUP3 ADD MSTORE PUSH1 0x64 SWAP1 REVERT JUMPDEST CALLVALUE PUSH2 0x22F JUMPI PUSH1 0x0 CALLDATASIZE PUSH1 0x3 NOT ADD SLT PUSH2 0x22F JUMPI PUSH1 0x97 SLOAD PUSH1 0x40 MLOAD PUSH1 0x1 PUSH1 0x1 PUSH1 0xA0 SHL SUB SWAP1 SWAP2 AND DUP2 MSTORE PUSH1 0x20 SWAP1 RETURN JUMPDEST CALLVALUE PUSH2 0x22F JUMPI PUSH1 0x40 CALLDATASIZE PUSH1 0x3 NOT ADD SLT PUSH2 0x22F JUMPI PUSH2 0x2060 PUSH2 0x2D87 JUMP JUMPDEST PUSH1 0x24 CALLDATALOAD SWAP1 PUSH2 0x206C PUSH2 0x2ECD JUMP JUMPDEST PUSH1 0x1 PUSH1 0x1 PUSH1 0xA0 SHL SUB SWAP1 DUP2 AND SWAP1 DUP2 ISZERO PUSH2 0x215A JUMPI DUP3 ISZERO PUSH2 0x2115 JUMPI PUSH1 0x97 SLOAD PUSH1 0x40 MLOAD PUSH4 0xA9059CBB PUSH1 0xE0 SHL DUP2 MSTORE SWAP1 DUP3 AND PUSH1 0x1 PUSH1 0x1 PUSH1 0xA0 SHL SUB AND PUSH1 0x4 DUP3 ADD MSTORE PUSH1 0x24 DUP2 ADD DUP5 SWAP1 MSTORE SWAP1 PUSH1 0x20 DUP3 PUSH1 0x44 DUP2 PUSH1 0x0 DUP8 GAS CALL SWAP1 DUP2 ISZERO PUSH2 0x1117 JUMPI PUSH32 0xFB475A842BAD10D3800B61BD1A92E716051AFBA979B124B583BD99A2D1D7BFD5 SWAP3 PUSH1 0x20 SWAP3 PUSH2 0x20F8 JUMPI JUMPDEST POP PUSH1 0x97 SLOAD AND SWAP4 PUSH1 0x40 MLOAD SWAP1 DUP2 MSTORE LOG3 STOP JUMPDEST PUSH2 0x210E SWAP1 DUP4 RETURNDATASIZE DUP2 GT PUSH2 0x1110 JUMPI PUSH2 0x1102 DUP2 DUP4 PUSH2 0x321B JUMP JUMPDEST POP DUP6 PUSH2 0x20E9 JUMP JUMPDEST PUSH1 0x40 MLOAD PUSH3 0x461BCD PUSH1 0xE5 SHL DUP2 MSTORE PUSH1 0x20 PUSH1 0x4 DUP3 ADD MSTORE PUSH1 0x1D PUSH1 0x24 DUP3 ADD MSTORE PUSH32 0x416D6F756E74206D7573742062652067726561746572207468616E2030000000 PUSH1 0x44 DUP3 ADD MSTORE PUSH1 0x64 SWAP1 REVERT JUMPDEST PUSH1 0x40 MLOAD PUSH3 0x461BCD PUSH1 0xE5 SHL DUP2 MSTORE PUSH1 0x20 PUSH1 0x4 DUP3 ADD MSTORE PUSH1 0x15 PUSH1 0x24 DUP3 ADD MSTORE PUSH21 0x496E76616C696420746F6B656E2061646472657373 PUSH1 0x58 SHL PUSH1 0x44 DUP3 ADD MSTORE PUSH1 0x64 SWAP1 REVERT JUMPDEST CALLVALUE PUSH2 0x22F JUMPI PUSH1 0x40 CALLDATASIZE PUSH1 0x3 NOT ADD SLT PUSH2 0x22F JUMPI PUSH1 0x4 CALLDATALOAD PUSH1 0x24 CALLDATALOAD PUSH1 0x1 PUSH1 0x1 PUSH1 0x40 SHL SUB DUP2 GT PUSH2 0x22F JUMPI PUSH2 0x21CA SWAP1 CALLDATASIZE SWAP1 PUSH1 0x4 ADD PUSH2 0x2DC7 JUMP JUMPDEST SWAP2 SWAP1 DUP2 PUSH1 0x0 MSTORE PUSH1 0x20 SWAP1 PUSH1 0xCA DUP3 MSTORE PUSH2 0x21E8 PUSH1 0xFF PUSH1 0x40 PUSH1 0x0 KECCAK256 SLOAD AND PUSH2 0x315C JUMP JUMPDEST PUSH2 0x21F0 PUSH2 0x3106 JUMP JUMPDEST DUP3 PUSH1 0x0 MSTORE PUSH1 0xC9 DUP3 MSTORE PUSH1 0x40 PUSH1 0x0 KECCAK256 PUSH1 0x4 DUP2 ADD SWAP1 DUP2 SLOAD SWAP1 PUSH1 0xFF DUP3 AND PUSH1 0x5 DUP2 LT ISZERO PUSH2 0x532 JUMPI DUP1 ISZERO SWAP1 DUP2 ISZERO PUSH2 0x2356 JUMPI JUMPDEST POP ISZERO PUSH2 0x2311 JUMPI PUSH2 0x222C CALLER DUP8 PUSH2 0x3754 JUMP JUMPDEST SWAP1 DUP2 ISZERO PUSH2 0x2302 JUMPI JUMPDEST POP DUP1 ISZERO PUSH2 0x22EE JUMPI JUMPDEST ISZERO PUSH2 0x22A9 JUMPI PUSH1 0xFF NOT AND PUSH1 0x3 OR SWAP1 SSTORE PUSH32 0x29ADBAE4FF5B8C2237359749739C137328CB4681C1FFF7CFD20FA91FEF974392 SWAP2 SWAP1 DUP5 SWAP1 PUSH2 0x2278 DUP6 PUSH2 0x33CA JUMP JUMPDEST DUP2 PUSH1 0x40 MLOAD SWAP4 DUP1 DUP6 MSTORE DUP5 ADD MSTORE PUSH1 0x40 DUP4 ADD CALLDATACOPY PUSH1 0x0 PUSH1 0x40 DUP6 DUP4 ADD ADD MSTORE PUSH1 0x40 DUP2 CALLER SWAP6 PUSH1 0x1F DUP1 NOT SWAP2 ADD AND DUP2 ADD SUB ADD SWAP1 LOG3 PUSH1 0x1 DUP1 SSTORE STOP JUMPDEST PUSH1 0x40 MLOAD PUSH3 0x461BCD PUSH1 0xE5 SHL DUP2 MSTORE PUSH1 0x4 DUP2 ADD DUP6 SWAP1 MSTORE PUSH1 0x18 PUSH1 0x24 DUP3 ADD MSTORE PUSH32 0x4E6F7420617574686F72697A656420746F2063616E63656C0000000000000000 PUSH1 0x44 DUP3 ADD MSTORE PUSH1 0x64 SWAP1 REVERT JUMPDEST POP PUSH1 0x97 SLOAD PUSH1 0x1 PUSH1 0x1 PUSH1 0xA0 SHL SUB AND CALLER EQ PUSH2 0x223C JUMP JUMPDEST PUSH1 0x3 SWAP2 POP ADD SLOAD TIMESTAMP LT ISZERO DUP8 PUSH2 0x2234 JUMP JUMPDEST PUSH1 0x40 MLOAD PUSH3 0x461BCD PUSH1 0xE5 SHL DUP2 MSTORE PUSH1 0x4 DUP2 ADD DUP7 SWAP1 MSTORE PUSH1 0x1B PUSH1 0x24 DUP3 ADD MSTORE PUSH32 0x43616E6E6F742063616E63656C20657865637574656420737761700000000000 PUSH1 0x44 DUP3 ADD MSTORE PUSH1 0x64 SWAP1 REVERT JUMPDEST PUSH1 0x1 SWAP2 POP EQ DUP9 PUSH2 0x221C JUMP JUMPDEST CALLVALUE PUSH2 0x22F JUMPI PUSH1 0x0 CALLDATASIZE PUSH1 0x3 NOT ADD SLT PUSH2 0x22F JUMPI PUSH2 0x237A PUSH2 0x2ECD JUMP JUMPDEST PUSH1 0x97 DUP1 SLOAD PUSH1 0x1 PUSH1 0x1 PUSH1 0xA0 SHL SUB NOT DUP2 AND SWAP1 SWAP2 SSTORE PUSH1 0x0 SWAP1 PUSH1 0x1 PUSH1 0x1 PUSH1 0xA0 SHL SUB AND PUSH32 0x8BE0079C531659141344CD1FD0A4F28419497F9722A3DAAFE3B4186F6B6457E0 DUP3 DUP1 LOG3 STOP JUMPDEST CALLVALUE PUSH2 0x22F JUMPI PUSH1 0x20 DUP1 PUSH1 0x3 NOT CALLDATASIZE ADD SLT PUSH2 0x22F JUMPI PUSH1 0x4 CALLDATALOAD PUSH1 0x1 PUSH1 0x1 PUSH1 0x40 SHL SUB DUP2 GT PUSH2 0x22F JUMPI PUSH2 0x23EF SWAP1 CALLDATASIZE SWAP1 PUSH1 0x4 ADD PUSH2 0x2E01 JUMP JUMPDEST SWAP1 SWAP2 PUSH1 0x0 JUMPDEST DUP3 DUP2 LT PUSH2 0x23FD JUMPI STOP JUMPDEST DUP1 PUSH2 0x2429 SWAP2 PUSH1 0x5 SHL DUP6 ADD CALLDATALOAD DUP1 PUSH1 0x0 MSTORE PUSH1 0xCA DUP5 MSTORE PUSH1 0xFF PUSH1 0x40 PUSH1 0x0 KECCAK256 SLOAD AND DUP1 PUSH2 0x248D JUMPI JUMPDEST PUSH2 0x242E JUMPI POP PUSH2 0x301F JUMP JUMPDEST PUSH2 0x23F4 JUMP JUMPDEST PUSH1 0xC9 DUP1 DUP6 MSTORE PUSH1 0x4 PUSH1 0x40 PUSH1 0x0 KECCAK256 ADD PUSH1 0x4 PUSH1 0xFF NOT DUP3 SLOAD AND OR SWAP1 SSTORE PUSH2 0x244F DUP3 PUSH2 0x33CA JUMP JUMPDEST DUP2 PUSH1 0x0 MSTORE DUP5 MSTORE PUSH32 0xB48EF62FFB44E6804BF61BA9E20B5439E423723B6C24763E06D8024F3BC2BBA0 DUP5 PUSH1 0x3 PUSH1 0x40 PUSH1 0x0 KECCAK256 ADD SLOAD PUSH1 0x40 MLOAD SWAP1 DUP2 MSTORE LOG2 DUP6 PUSH2 0xDF0 JUMP JUMPDEST POP PUSH1 0xC9 DUP5 MSTORE PUSH1 0x3 PUSH1 0x40 PUSH1 0x0 KECCAK256 ADD SLOAD TIMESTAMP LT ISZERO PUSH2 0x241F JUMP JUMPDEST CALLVALUE PUSH2 0x22F JUMPI PUSH1 0x20 CALLDATASIZE PUSH1 0x3 NOT ADD SLT PUSH2 0x22F JUMPI PUSH1 0x4 CALLDATALOAD DUP1 PUSH1 0x0 MSTORE PUSH1 0xCA PUSH1 0x20 MSTORE PUSH2 0x24D1 PUSH1 0xFF PUSH1 0x40 PUSH1 0x0 KECCAK256 SLOAD AND PUSH2 0x315C JUMP JUMPDEST PUSH1 0x0 MSTORE PUSH1 0xC9 PUSH1 0x20 MSTORE PUSH1 0xA0 PUSH1 0x40 PUSH1 0x0 KECCAK256 PUSH1 0x4 DUP2 ADD SLOAD PUSH1 0x1 DUP3 ADD SLOAD SWAP2 PUSH1 0x3 PUSH1 0x2 DUP3 ADD SLOAD SWAP2 ADD SLOAD SWAP1 PUSH1 0x40 MLOAD SWAP4 PUSH2 0x2507 DUP6 PUSH1 0xFF DUP7 AND PUSH2 0x2DF4 JUMP JUMPDEST PUSH1 0x20 DUP6 ADD MSTORE PUSH1 0x40 DUP5 ADD MSTORE PUSH1 0x60 DUP4 ADD MSTORE PUSH1 0x8 SHR PUSH1 0x0 NOT PUSH1 0x1 DUP5 SHL ADD AND PUSH1 0x80 DUP3 ADD MSTORE RETURN JUMPDEST CALLVALUE PUSH2 0x22F JUMPI PUSH1 0x0 CALLDATASIZE PUSH1 0x3 NOT ADD SLT PUSH2 0x22F JUMPI PUSH1 0x20 PUSH1 0xFF PUSH1 0x65 SLOAD AND PUSH1 0x40 MLOAD SWAP1 ISZERO ISZERO DUP2 MSTORE RETURN JUMPDEST CALLVALUE PUSH2 0x22F JUMPI PUSH1 0x0 CALLDATASIZE PUSH1 0x3 NOT ADD SLT PUSH2 0x22F JUMPI PUSH2 0x2565 PUSH2 0x2ECD JUMP JUMPDEST PUSH2 0x256D PUSH2 0x30C2 JUMP JUMPDEST PUSH1 0x1 PUSH1 0xFF NOT PUSH1 0x65 SLOAD AND OR PUSH1 0x65 SSTORE PUSH32 0x62E78CEA01BEE320CD4E420270B5EA74000D11B0C9F74754EBDBFC544B05A258 PUSH1 0x20 PUSH1 0x40 MLOAD CALLER DUP2 MSTORE LOG1 PUSH1 0x40 MLOAD TIMESTAMP DUP2 MSTORE PUSH32 0x9506E519F3E4CE17DDA1136D3BA3D3465DC873C49A6191E0FD209F33959A00CD PUSH1 0x20 CALLER SWAP3 LOG2 STOP JUMPDEST CALLVALUE PUSH2 0x22F JUMPI PUSH1 0x20 CALLDATASIZE PUSH1 0x3 NOT ADD SLT PUSH2 0x22F JUMPI PUSH1 0x4 CALLDATALOAD DUP1 PUSH1 0x0 MSTORE PUSH1 0xCA PUSH1 0x20 MSTORE PUSH1 0xFF SWAP1 PUSH2 0x2602 DUP3 PUSH1 0x40 PUSH1 0x0 KECCAK256 SLOAD AND PUSH2 0x315C JUMP JUMPDEST PUSH1 0x0 MSTORE PUSH1 0xC9 PUSH1 0x20 MSTORE PUSH1 0x40 PUSH1 0x0 KECCAK256 SWAP1 PUSH1 0x0 SWAP1 PUSH1 0x0 SWAP1 PUSH1 0x1 DUP5 ADD SWAP4 DUP5 SLOAD SWAP3 JUMPDEST DUP4 DUP2 LT PUSH2 0x2652 JUMPI POP PUSH1 0x80 SWAP5 POP PUSH1 0x4 ADD SLOAD AND SWAP2 PUSH2 0x263E PUSH1 0x40 MLOAD DUP1 SWAP5 PUSH2 0x2DF4 JUMP JUMPDEST DUP2 DUP2 EQ PUSH1 0x20 DUP5 ADD MSTORE PUSH1 0x40 DUP4 ADD MSTORE PUSH1 0x60 DUP3 ADD MSTORE RETURN JUMPDEST DUP3 PUSH1 0x3 PUSH2 0x265F DUP4 DUP10 PUSH2 0x3050 JUMP JUMPDEST POP ADD SLOAD AND PUSH2 0x2676 JUMPI JUMPDEST PUSH2 0x2671 SWAP1 PUSH2 0x301F JUMP JUMPDEST PUSH2 0x261F JUMP JUMPDEST SWAP4 PUSH2 0x2683 PUSH2 0x2671 SWAP2 PUSH2 0x301F JUMP JUMPDEST SWAP5 SWAP1 POP PUSH2 0x2668 JUMP JUMPDEST CALLVALUE PUSH2 0x22F JUMPI PUSH1 0x0 CALLDATASIZE PUSH1 0x3 NOT ADD SLT PUSH2 0x22F JUMPI PUSH2 0x26A4 PUSH2 0x2ECD JUMP JUMPDEST PUSH1 0x65 SLOAD PUSH1 0xFF DUP2 AND ISZERO PUSH2 0x270F JUMPI PUSH1 0xFF NOT AND PUSH1 0x65 SSTORE PUSH32 0x5DB9EE0A495BF2E6FF9C91A7834C1BA4FDD244A5E8AA4E537BD38AEAE4B073AA PUSH1 0x20 PUSH1 0x40 MLOAD CALLER DUP2 MSTORE LOG1 PUSH1 0x40 MLOAD TIMESTAMP DUP2 MSTORE PUSH32 0xDB5C0BC39850EB0DDB99FAE67EECD7EE594120D92D1C0DB6C3252252A4FC3356 PUSH1 0x20 CALLER SWAP3 LOG2 STOP JUMPDEST PUSH1 0x40 MLOAD PUSH3 0x461BCD PUSH1 0xE5 SHL DUP2 MSTORE PUSH1 0x20 PUSH1 0x4 DUP3 ADD MSTORE PUSH1 0x14 PUSH1 0x24 DUP3 ADD MSTORE PUSH20 0x14185D5CD8589B194E881B9BDD081C185D5CD959 PUSH1 0x62 SHL PUSH1 0x44 DUP3 ADD MSTORE PUSH1 0x64 SWAP1 REVERT JUMPDEST CALLVALUE PUSH2 0x22F JUMPI PUSH1 0x40 CALLDATASIZE PUSH1 0x3 NOT ADD SLT PUSH2 0x22F JUMPI PUSH2 0x2764 PUSH2 0x2D87 JUMP JUMPDEST PUSH2 0x276C PUSH2 0x2D9D JUMP JUMPDEST PUSH1 0x0 SLOAD PUSH1 0xFF DUP2 PUSH1 0x8 SHR AND ISZERO SWAP3 DUP4 DUP1 SWAP5 PUSH2 0x28F1 JUMPI JUMPDEST DUP1 ISZERO PUSH2 0x28DA JUMPI JUMPDEST ISZERO PUSH2 0x287E JUMPI PUSH2 0x27EE PUSH2 0x27FC SWAP3 PUSH1 0xFF NOT SWAP1 DUP7 PUSH1 0x1 DUP4 DUP4 AND OR PUSH1 0x0 SSTORE PUSH2 0x286C JUMPI JUMPDEST POP PUSH1 0xFF PUSH1 0x0 SLOAD PUSH1 0x8 SHR AND SWAP1 PUSH2 0x27BA DUP3 PUSH2 0x2F6E JUMP JUMPDEST PUSH2 0x27C3 DUP3 PUSH2 0x2F6E JUMP JUMPDEST PUSH1 0x1 DUP1 SSTORE PUSH2 0x27D0 DUP3 PUSH2 0x2F6E JUMP JUMPDEST PUSH2 0x27D9 DUP3 PUSH2 0x2F6E JUMP JUMPDEST PUSH1 0x65 SLOAD AND PUSH1 0x65 SSTORE PUSH2 0x27E9 DUP2 PUSH2 0x2F6E JUMP JUMPDEST PUSH2 0x2F6E JUMP JUMPDEST PUSH2 0x27F7 CALLER PUSH2 0x2F25 JUMP JUMPDEST PUSH2 0x2F25 JUMP JUMPDEST PUSH1 0x1 DUP1 PUSH1 0xA0 SHL SUB AND PUSH1 0x1 PUSH1 0x1 PUSH1 0x60 SHL SUB PUSH1 0xA0 SHL PUSH1 0xD0 SLOAD AND OR PUSH1 0xD0 SSTORE PUSH1 0xA PUSH1 0xCC SSTORE PUSH3 0x15180 PUSH1 0xCD SSTORE PUSH2 0xE10 PUSH1 0xCE SSTORE PUSH1 0x0 PUSH1 0xCF SSTORE PUSH2 0x2834 JUMPI STOP JUMPDEST PUSH2 0xFF00 NOT PUSH1 0x0 SLOAD AND PUSH1 0x0 SSTORE PUSH32 0x7F26B83FF96E1F2B6A682F133852F6798A09C465DA95921460CEFB3847402498 PUSH1 0x20 PUSH1 0x40 MLOAD PUSH1 0x1 DUP2 MSTORE LOG1 STOP JUMPDEST PUSH2 0xFFFF NOT AND PUSH2 0x101 OR PUSH1 0x0 SSTORE DUP7 PUSH2 0x27A6 JUMP JUMPDEST PUSH1 0x40 MLOAD PUSH3 0x461BCD PUSH1 0xE5 SHL DUP2 MSTORE PUSH1 0x20 PUSH1 0x4 DUP3 ADD MSTORE PUSH1 0x2E PUSH1 0x24 DUP3 ADD MSTORE PUSH32 0x496E697469616C697A61626C653A20636F6E747261637420697320616C726561 PUSH1 0x44 DUP3 ADD MSTORE PUSH14 0x191E481A5B9A5D1A585B1A5E9959 PUSH1 0x92 SHL PUSH1 0x64 DUP3 ADD MSTORE PUSH1 0x84 SWAP1 REVERT JUMPDEST POP ADDRESS EXTCODESIZE ISZERO DUP1 ISZERO PUSH2 0x2787 JUMPI POP PUSH1 0x1 PUSH1 0xFF DUP4 AND EQ PUSH2 0x2787 JUMP JUMPDEST POP PUSH1 0x1 PUSH1 0xFF DUP4 AND LT PUSH2 0x2780 JUMP JUMPDEST CALLVALUE PUSH2 0x22F JUMPI PUSH1 0x0 CALLDATASIZE PUSH1 0x3 NOT ADD SLT PUSH2 0x22F JUMPI PUSH1 0xD0 SLOAD PUSH1 0x40 MLOAD PUSH1 0x1 PUSH1 0x1 PUSH1 0xA0 SHL SUB SWAP1 SWAP2 AND DUP2 MSTORE PUSH1 0x20 SWAP1 RETURN JUMPDEST CALLVALUE PUSH2 0x22F JUMPI PUSH1 0x40 CALLDATASIZE PUSH1 0x3 NOT ADD SLT PUSH2 0x22F JUMPI PUSH1 0x4 CALLDATALOAD PUSH1 0x24 CALLDATALOAD PUSH2 0x2946 PUSH2 0x2ECD JUMP JUMPDEST DUP1 DUP3 LT ISZERO PUSH2 0x299A JUMPI PUSH32 0xA2FEFB4D31C92AB985FD34ADE48D3864316CBA244F7126A2779E83B082C16220 SWAP2 PUSH1 0x80 SWAP2 PUSH1 0xCE SLOAD SWAP2 PUSH1 0xCD SLOAD DUP2 PUSH1 0xCE SSTORE DUP3 PUSH1 0xCD SSTORE PUSH1 0x40 MLOAD SWAP4 DUP5 MSTORE PUSH1 0x20 DUP5 ADD MSTORE PUSH1 0x40 DUP4 ADD MSTORE PUSH1 0x60 DUP3 ADD MSTORE LOG1 STOP JUMPDEST PUSH1 0x40 MLOAD PUSH3 0x461BCD PUSH1 0xE5 SHL DUP2 MSTORE PUSH1 0x20 PUSH1 0x4 DUP3 ADD MSTORE PUSH1 0x17 PUSH1 0x24 DUP3 ADD MSTORE PUSH32 0x496E76616C6964206475726174696F6E206C696D697473000000000000000000 PUSH1 0x44 DUP3 ADD MSTORE PUSH1 0x64 SWAP1 REVERT JUMPDEST CALLVALUE PUSH2 0x22F JUMPI PUSH1 0x20 CALLDATASIZE PUSH1 0x3 NOT ADD SLT PUSH2 0x22F JUMPI PUSH1 0x4 CALLDATALOAD PUSH1 0x0 MSTORE PUSH1 0xCA PUSH1 0x20 MSTORE PUSH1 0x20 PUSH1 0xFF PUSH1 0x40 PUSH1 0x0 KECCAK256 SLOAD AND PUSH1 0x40 MLOAD SWAP1 ISZERO ISZERO DUP2 MSTORE RETURN JUMPDEST CALLVALUE PUSH2 0x22F JUMPI PUSH1 0x20 CALLDATASIZE PUSH1 0x3 NOT ADD SLT PUSH2 0x22F JUMPI PUSH1 0x4 CALLDATALOAD PUSH2 0x2A2C PUSH2 0x2ECD JUMP JUMPDEST PUSH1 0x2 DUP2 LT PUSH2 0x2A7A JUMPI PUSH1 0x40 DUP2 PUSH2 0x2A65 PUSH1 0x32 PUSH32 0x43F71DFD216EAAF2F75BDB23D66AE4F5B7E2975E422538B68EF11B46B3874098 SWAP5 GT ISZERO PUSH2 0x2FCE JUMP JUMPDEST PUSH1 0xCC SLOAD SWAP1 DUP1 PUSH1 0xCC SSTORE DUP3 MLOAD SWAP2 DUP3 MSTORE PUSH1 0x20 DUP3 ADD MSTORE LOG1 STOP JUMPDEST PUSH1 0x40 MLOAD PUSH3 0x461BCD PUSH1 0xE5 SHL DUP2 MSTORE PUSH1 0x20 PUSH1 0x4 DUP3 ADD MSTORE PUSH1 0x16 PUSH1 0x24 DUP3 ADD MSTORE PUSH22 0x4D696E696D756D2032207061727469636970616E7473 PUSH1 0x50 SHL PUSH1 0x44 DUP3 ADD MSTORE PUSH1 0x64 SWAP1 REVERT JUMPDEST CALLVALUE PUSH2 0x22F JUMPI PUSH1 0x0 CALLDATASIZE PUSH1 0x3 NOT ADD SLT PUSH2 0x22F JUMPI PUSH1 0x20 PUSH1 0xCC SLOAD PUSH1 0x40 MLOAD SWAP1 DUP2 MSTORE RETURN JUMPDEST CALLVALUE PUSH2 0x22F JUMPI PUSH1 0x0 CALLDATASIZE PUSH1 0x3 NOT ADD SLT PUSH2 0x22F JUMPI PUSH2 0x2AEF PUSH2 0x2ECD JUMP JUMPDEST SELFBALANCE DUP1 ISZERO PUSH2 0x2B41 JUMPI PUSH1 0x1 DUP1 PUSH1 0xA0 SHL SUB PUSH1 0x0 DUP1 DUP1 DUP1 DUP6 DUP6 PUSH1 0x97 SLOAD AND DUP3 CALL ISZERO PUSH2 0x1117 JUMPI PUSH1 0x20 PUSH32 0xCD7FEF3A642DCF99CE1004B2A15D31E91398F01974500B64EAB8FC50FEF2D3B1 SWAP2 PUSH1 0x97 SLOAD AND SWAP3 PUSH1 0x40 MLOAD SWAP1 DUP2 MSTORE LOG2 STOP JUMPDEST PUSH1 0x40 MLOAD PUSH3 0x461BCD PUSH1 0xE5 SHL DUP2 MSTORE PUSH1 0x20 PUSH1 0x4 DUP3 ADD MSTORE PUSH1 0x10 PUSH1 0x24 DUP3 ADD MSTORE PUSH16 0x4E6F2045544820746F20726573637565 PUSH1 0x80 SHL PUSH1 0x44 DUP3 ADD MSTORE PUSH1 0x64 SWAP1 REVERT JUMPDEST CALLVALUE PUSH2 0x22F JUMPI PUSH1 0x80 CALLDATASIZE PUSH1 0x3 NOT ADD SLT PUSH2 0x22F JUMPI PUSH2 0x2B92 PUSH2 0x2D87 JUMP JUMPDEST POP PUSH2 0x2B9B PUSH2 0x2D9D JUMP JUMPDEST POP PUSH1 0x64 CALLDATALOAD PUSH1 0x1 PUSH1 0x1 PUSH1 0x40 SHL SUB DUP2 GT PUSH2 0x22F JUMPI PUSH2 0x2BBB SWAP1 CALLDATASIZE SWAP1 PUSH1 0x4 ADD PUSH2 0x2DC7 JUMP JUMPDEST POP POP PUSH1 0x40 MLOAD PUSH4 0xA85BD01 PUSH1 0xE1 SHL DUP2 MSTORE PUSH1 0x20 SWAP1 RETURN JUMPDEST CALLVALUE PUSH2 0x22F JUMPI PUSH1 0x20 DUP1 PUSH1 0x3 NOT CALLDATASIZE ADD SLT PUSH2 0x22F JUMPI PUSH1 0x1 PUSH1 0x1 PUSH1 0xA0 SHL SUB PUSH2 0x2BF1 PUSH2 0x2D87 JUMP JUMPDEST AND PUSH1 0x0 MSTORE PUSH1 0xCB DUP2 MSTORE PUSH1 0x40 PUSH1 0x0 KECCAK256 PUSH1 0x40 MLOAD SWAP1 DUP2 DUP4 DUP3 SLOAD SWAP2 DUP3 DUP2 MSTORE ADD SWAP1 DUP2 SWAP3 PUSH1 0x0 MSTORE DUP5 PUSH1 0x0 KECCAK256 SWAP1 PUSH1 0x0 JUMPDEST DUP7 DUP3 DUP3 LT PUSH2 0x2C6F JUMPI DUP7 DUP7 PUSH2 0x2C2F DUP3 DUP9 SUB DUP4 PUSH2 0x321B JUMP JUMPDEST PUSH1 0x40 MLOAD SWAP3 DUP4 SWAP3 DUP2 DUP5 ADD SWAP1 DUP3 DUP6 MSTORE MLOAD DUP1 SWAP2 MSTORE PUSH1 0x40 DUP5 ADD SWAP3 SWAP2 PUSH1 0x0 JUMPDEST DUP3 DUP2 LT PUSH2 0x2C58 JUMPI POP POP POP POP SUB SWAP1 RETURN JUMPDEST DUP4 MLOAD DUP6 MSTORE DUP7 SWAP6 POP SWAP4 DUP2 ADD SWAP4 SWAP3 DUP2 ADD SWAP3 PUSH1 0x1 ADD PUSH2 0x2C49 JUMP JUMPDEST DUP4 SLOAD DUP6 MSTORE SWAP1 SWAP4 ADD SWAP3 PUSH1 0x1 SWAP3 DUP4 ADD SWAP3 ADD PUSH2 0x2C19 JUMP JUMPDEST CALLVALUE PUSH2 0x22F JUMPI PUSH1 0x0 CALLDATASIZE PUSH1 0x3 NOT ADD SLT PUSH2 0x22F JUMPI PUSH1 0x40 MLOAD PUSH1 0x40 DUP2 ADD DUP2 DUP2 LT PUSH1 0x1 PUSH1 0x1 PUSH1 0x40 SHL SUB DUP3 GT OR PUSH2 0xB5C JUMPI PUSH1 0x40 MSTORE PUSH1 0xD DUP2 MSTORE PUSH1 0x20 SWAP1 PUSH13 0xC4B8C4B8C0B585D591A5D1959 PUSH1 0x9A SHL DUP3 DUP3 ADD MSTORE PUSH1 0x40 MLOAD DUP3 DUP2 SWAP4 DUP3 MSTORE DUP3 MLOAD SWAP1 DUP2 DUP2 DUP5 ADD MSTORE PUSH1 0x0 SWAP4 JUMPDEST DUP3 DUP6 LT PUSH2 0x2D03 JUMPI POP POP PUSH1 0x40 SWAP3 POP PUSH1 0x0 DUP4 DUP3 DUP5 ADD ADD MSTORE PUSH1 0x1F DUP1 NOT SWAP2 ADD AND DUP2 ADD SUB ADD SWAP1 RETURN JUMPDEST DUP5 DUP2 ADD DUP3 ADD MLOAD DUP7 DUP7 ADD PUSH1 0x40 ADD MSTORE SWAP4 DUP2 ADD SWAP4 DUP6 SWAP4 POP PUSH2 0x2CE0 JUMP JUMPDEST CALLVALUE PUSH2 0x22F JUMPI PUSH1 0x20 CALLDATASIZE PUSH1 0x3 NOT ADD SLT PUSH2 0x22F JUMPI PUSH1 0x4 CALLDATALOAD SWAP1 PUSH4 0xFFFFFFFF PUSH1 0xE0 SHL DUP3 AND DUP1 SWAP3 SUB PUSH2 0x22F JUMPI PUSH1 0x20 SWAP2 PUSH4 0xA85BD01 PUSH1 0xE1 SHL DUP2 EQ SWAP1 DUP2 ISZERO PUSH2 0x2D76 JUMPI JUMPDEST DUP2 ISZERO PUSH2 0x2D65 JUMPI JUMPDEST POP ISZERO ISZERO DUP2 MSTORE RETURN JUMPDEST PUSH4 0x1FFC9A7 PUSH1 0xE0 SHL EQ SWAP1 POP DUP4 PUSH2 0x2D5E JUMP JUMPDEST PUSH4 0x2711897 PUSH1 0xE5 SHL DUP2 EQ SWAP2 POP PUSH2 0x2D57 JUMP JUMPDEST PUSH1 0x4 CALLDATALOAD SWAP1 PUSH1 0x1 PUSH1 0x1 PUSH1 0xA0 SHL SUB DUP3 AND DUP3 SUB PUSH2 0x22F JUMPI JUMP JUMPDEST PUSH1 0x24 CALLDATALOAD SWAP1 PUSH1 0x1 PUSH1 0x1 PUSH1 0xA0 SHL SUB DUP3 AND DUP3 SUB PUSH2 0x22F JUMPI JUMP JUMPDEST CALLDATALOAD SWAP1 PUSH1 0x1 PUSH1 0x1 PUSH1 0xA0 SHL SUB DUP3 AND DUP3 SUB PUSH2 0x22F JUMPI JUMP JUMPDEST SWAP2 DUP2 PUSH1 0x1F DUP5 ADD SLT ISZERO PUSH2 0x22F JUMPI DUP3 CALLDATALOAD SWAP2 PUSH1 0x1 PUSH1 0x1 PUSH1 0x40 SHL SUB DUP4 GT PUSH2 0x22F JUMPI PUSH1 0x20 DUP4 DUP2 DUP7 ADD SWAP6 ADD ADD GT PUSH2 0x22F JUMPI JUMP JUMPDEST SWAP1 PUSH1 0x5 DUP3 LT ISZERO PUSH2 0x532 JUMPI MSTORE JUMP JUMPDEST SWAP2 DUP2 PUSH1 0x1F DUP5 ADD SLT ISZERO PUSH2 0x22F JUMPI DUP3 CALLDATALOAD SWAP2 PUSH1 0x1 PUSH1 0x1 PUSH1 0x40 SHL SUB DUP4 GT PUSH2 0x22F JUMPI PUSH1 0x20 DUP1 DUP6 ADD SWAP5 DUP5 PUSH1 0x5 SHL ADD ADD GT PUSH2 0x22F JUMPI JUMP JUMPDEST SWAP1 DUP2 MLOAD DUP1 DUP3 MSTORE PUSH1 0x20 DUP1 DUP1 SWAP4 ADD SWAP4 ADD SWAP2 PUSH1 0x0 JUMPDEST DUP3 DUP2 LT PUSH2 0x2E51 JUMPI POP POP POP POP SWAP1 JUMP JUMPDEST DUP4 MLOAD DUP1 MLOAD PUSH1 0x1 PUSH1 0x1 PUSH1 0xA0 SHL SUB SWAP1 DUP2 AND DUP8 MSTORE DUP2 DUP5 ADD MLOAD DUP8 DUP6 ADD MSTORE PUSH1 0x40 DUP1 DUP4 ADD MLOAD SWAP1 SWAP2 AND SWAP1 DUP8 ADD MSTORE PUSH1 0x60 DUP1 DUP3 ADD MLOAD ISZERO ISZERO SWAP1 DUP8 ADD MSTORE PUSH1 0x80 SWAP1 DUP2 ADD MLOAD SWAP1 DUP7 ADD MSTORE PUSH1 0xA0 SWAP1 SWAP5 ADD SWAP4 SWAP3 DUP2 ADD SWAP3 PUSH1 0x1 ADD PUSH2 0x2E43 JUMP JUMPDEST DUP1 SLOAD DUP3 LT ISZERO PUSH2 0x2EB7 JUMPI PUSH1 0x0 MSTORE PUSH1 0x20 PUSH1 0x0 KECCAK256 ADD SWAP1 PUSH1 0x0 SWAP1 JUMP JUMPDEST PUSH4 0x4E487B71 PUSH1 0xE0 SHL PUSH1 0x0 MSTORE PUSH1 0x32 PUSH1 0x4 MSTORE PUSH1 0x24 PUSH1 0x0 REVERT JUMPDEST PUSH1 0x97 SLOAD PUSH1 0x1 PUSH1 0x1 PUSH1 0xA0 SHL SUB AND CALLER SUB PUSH2 0x2EE1 JUMPI JUMP JUMPDEST PUSH1 0x64 PUSH1 0x40 MLOAD PUSH3 0x461BCD PUSH1 0xE5 SHL DUP2 MSTORE PUSH1 0x20 PUSH1 0x4 DUP3 ADD MSTORE PUSH1 0x20 PUSH1 0x24 DUP3 ADD MSTORE PUSH32 0x4F776E61626C653A2063616C6C6572206973206E6F7420746865206F776E6572 PUSH1 0x44 DUP3 ADD MSTORE REVERT JUMPDEST PUSH1 0x97 DUP1 SLOAD PUSH1 0x1 PUSH1 0x1 PUSH1 0xA0 SHL SUB SWAP3 DUP4 AND PUSH1 0x1 PUSH1 0x1 PUSH1 0xA0 SHL SUB NOT DUP3 AND DUP2 OR SWAP1 SWAP3 SSTORE SWAP1 SWAP2 AND PUSH32 0x8BE0079C531659141344CD1FD0A4F28419497F9722A3DAAFE3B4186F6B6457E0 PUSH1 0x0 DUP1 LOG3 JUMP JUMPDEST ISZERO PUSH2 0x2F75 JUMPI JUMP JUMPDEST PUSH1 0x40 MLOAD PUSH3 0x461BCD PUSH1 0xE5 SHL DUP2 MSTORE PUSH1 0x20 PUSH1 0x4 DUP3 ADD MSTORE PUSH1 0x2B PUSH1 0x24 DUP3 ADD MSTORE PUSH32 0x496E697469616C697A61626C653A20636F6E7472616374206973206E6F742069 PUSH1 0x44 DUP3 ADD MSTORE PUSH11 0x6E697469616C697A696E67 PUSH1 0xA8 SHL PUSH1 0x64 DUP3 ADD MSTORE PUSH1 0x84 SWAP1 REVERT JUMPDEST ISZERO PUSH2 0x2FD5 JUMPI JUMP JUMPDEST PUSH1 0x40 MLOAD PUSH3 0x461BCD PUSH1 0xE5 SHL DUP2 MSTORE PUSH1 0x20 PUSH1 0x4 DUP3 ADD MSTORE PUSH1 0x15 PUSH1 0x24 DUP3 ADD MSTORE PUSH21 0x546F6F206D616E79207061727469636970616E7473 PUSH1 0x58 SHL PUSH1 0x44 DUP3 ADD MSTORE PUSH1 0x64 SWAP1 REVERT JUMPDEST SWAP2 SWAP1 DUP3 ADD DUP1 SWAP3 GT PUSH2 0xC66 JUMPI JUMP JUMPDEST PUSH1 0x0 NOT DUP2 EQ PUSH2 0xC66 JUMPI PUSH1 0x1 ADD SWAP1 JUMP JUMPDEST SWAP2 SWAP1 DUP2 LT ISZERO PUSH2 0x2EB7 JUMPI PUSH1 0x5 SHL DUP2 ADD CALLDATALOAD SWAP1 PUSH1 0x7E NOT DUP2 CALLDATASIZE SUB ADD DUP3 SLT ISZERO PUSH2 0x22F JUMPI ADD SWAP1 JUMP JUMPDEST DUP1 SLOAD DUP3 LT ISZERO PUSH2 0x2EB7 JUMPI PUSH1 0x0 MSTORE PUSH1 0x20 PUSH1 0x0 KECCAK256 SWAP1 PUSH1 0x2 SHL ADD SWAP1 PUSH1 0x0 SWAP1 JUMP JUMPDEST CALLDATALOAD PUSH1 0x1 PUSH1 0x1 PUSH1 0xA0 SHL SUB DUP2 AND DUP2 SUB PUSH2 0x22F JUMPI SWAP1 JUMP JUMPDEST SWAP1 CALLDATALOAD SWAP1 PUSH1 0x1E NOT DUP2 CALLDATASIZE SUB ADD DUP3 SLT ISZERO PUSH2 0x22F JUMPI ADD DUP1 CALLDATALOAD SWAP1 PUSH1 0x1 PUSH1 0x1 PUSH1 0x40 SHL SUB DUP3 GT PUSH2 0x22F JUMPI PUSH1 0x20 ADD SWAP2 PUSH1 0xA0 DUP3 MUL CALLDATASIZE SUB DUP4 SGT PUSH2 0x22F JUMPI JUMP JUMPDEST CALLDATALOAD DUP1 ISZERO ISZERO DUP2 SUB PUSH2 0x22F JUMPI SWAP1 JUMP JUMPDEST PUSH1 0xFF PUSH1 0x65 SLOAD AND PUSH2 0x30CE JUMPI JUMP JUMPDEST PUSH1 0x40 MLOAD PUSH3 0x461BCD PUSH1 0xE5 SHL DUP2 MSTORE PUSH1 0x20 PUSH1 0x4 DUP3 ADD MSTORE PUSH1 0x10 PUSH1 0x24 DUP3 ADD MSTORE PUSH16 0x14185D5CD8589B194E881C185D5CD959 PUSH1 0x82 SHL PUSH1 0x44 DUP3 ADD MSTORE PUSH1 0x64 SWAP1 REVERT JUMPDEST PUSH1 0x2 PUSH1 0x1 SLOAD EQ PUSH2 0x3117 JUMPI PUSH1 0x2 PUSH1 0x1 SSTORE JUMP JUMPDEST PUSH1 0x40 MLOAD PUSH3 0x461BCD PUSH1 0xE5 SHL DUP2 MSTORE PUSH1 0x20 PUSH1 0x4 DUP3 ADD MSTORE PUSH1 0x1F PUSH1 0x24 DUP3 ADD MSTORE PUSH32 0x5265656E7472616E637947756172643A207265656E7472616E742063616C6C00 PUSH1 0x44 DUP3 ADD MSTORE PUSH1 0x64 SWAP1 REVERT JUMPDEST ISZERO PUSH2 0x3163 JUMPI JUMP JUMPDEST PUSH1 0x40 MLOAD PUSH3 0x461BCD PUSH1 0xE5 SHL DUP2 MSTORE PUSH1 0x20 PUSH1 0x4 DUP3 ADD MSTORE PUSH1 0x13 PUSH1 0x24 DUP3 ADD MSTORE PUSH19 0x14DDD85C08191BD95CC81B9BDD08195E1A5CDD PUSH1 0x6A SHL PUSH1 0x44 DUP3 ADD MSTORE PUSH1 0x64 SWAP1 REVERT JUMPDEST ISZERO PUSH2 0x31A5 JUMPI JUMP JUMPDEST PUSH1 0x40 MLOAD PUSH3 0x461BCD PUSH1 0xE5 SHL DUP2 MSTORE PUSH1 0x20 PUSH1 0x4 DUP3 ADD MSTORE PUSH1 0x10 PUSH1 0x24 DUP3 ADD MSTORE PUSH16 0x14DDD85C081A185CC8195E1C1A5C9959 PUSH1 0x82 SHL PUSH1 0x44 DUP3 ADD MSTORE PUSH1 0x64 SWAP1 REVERT JUMPDEST SWAP2 SWAP1 DUP2 LT ISZERO PUSH2 0x2EB7 JUMPI PUSH1 0xA0 MUL ADD SWAP1 JUMP JUMPDEST PUSH1 0x1 PUSH1 0x1 PUSH1 0x40 SHL SUB DUP2 GT PUSH2 0xB5C JUMPI PUSH1 0x40 MSTORE JUMP JUMPDEST PUSH1 0xA0 DUP2 ADD SWAP1 DUP2 LT PUSH1 0x1 PUSH1 0x1 PUSH1 0x40 SHL SUB DUP3 GT OR PUSH2 0xB5C JUMPI PUSH1 0x40 MSTORE JUMP JUMPDEST SWAP1 PUSH1 0x1F DUP1 NOT SWAP2 ADD AND DUP2 ADD SWAP1 DUP2 LT PUSH1 0x1 PUSH1 0x1 PUSH1 0x40 SHL SUB DUP3 GT OR PUSH2 0xB5C JUMPI PUSH1 0x40 MSTORE JUMP JUMPDEST PUSH1 0xA0 DUP2 CALLDATASIZE SUB SLT PUSH2 0x22F JUMPI PUSH1 0x40 MLOAD SWAP1 PUSH2 0x3253 DUP3 PUSH2 0x3200 JUMP JUMPDEST PUSH2 0x325C DUP2 PUSH2 0x2DB3 JUMP JUMPDEST DUP3 MSTORE PUSH1 0x20 DUP2 ADD CALLDATALOAD PUSH1 0x20 DUP4 ADD MSTORE PUSH2 0x3274 PUSH1 0x40 DUP3 ADD PUSH2 0x2DB3 JUMP JUMPDEST PUSH1 0x40 DUP4 ADD MSTORE PUSH1 0x60 DUP2 ADD CALLDATALOAD SWAP1 DUP2 ISZERO ISZERO DUP3 SUB PUSH2 0x22F JUMPI PUSH1 0x80 SWAP2 PUSH1 0x60 DUP5 ADD MSTORE ADD CALLDATALOAD PUSH1 0x80 DUP3 ADD MSTORE SWAP1 JUMP JUMPDEST SWAP1 DUP2 PUSH1 0x20 SWAP2 SUB SLT PUSH2 0x22F JUMPI MLOAD PUSH1 0x1 PUSH1 0x1 PUSH1 0xA0 SHL SUB DUP2 AND DUP2 SUB PUSH2 0x22F JUMPI SWAP1 JUMP JUMPDEST SWAP1 DUP2 PUSH1 0x20 SWAP2 SUB SLT PUSH2 0x22F JUMPI MLOAD DUP1 ISZERO ISZERO DUP2 SUB PUSH2 0x22F JUMPI SWAP1 JUMP JUMPDEST ISZERO PUSH2 0x32D8 JUMPI JUMP JUMPDEST PUSH1 0x40 MLOAD PUSH3 0x461BCD PUSH1 0xE5 SHL DUP2 MSTORE PUSH1 0x20 PUSH1 0x4 DUP3 ADD MSTORE PUSH1 0x19 PUSH1 0x24 DUP3 ADD MSTORE PUSH32 0x4E4654206E6F7420617070726F76656420666F72207377617000000000000000 PUSH1 0x44 DUP3 ADD MSTORE PUSH1 0x64 SWAP1 REVERT JUMPDEST ISZERO PUSH2 0x3324 JUMPI JUMP JUMPDEST PUSH1 0x40 MLOAD PUSH3 0x461BCD PUSH1 0xE5 SHL DUP2 MSTORE PUSH1 0x20 PUSH1 0x4 DUP3 ADD MSTORE PUSH1 0x25 PUSH1 0x24 DUP3 ADD MSTORE PUSH32 0x4E465420617070726F76616C207265766F6B6564206265666F72652065786563 PUSH1 0x44 DUP3 ADD MSTORE PUSH5 0x3ABA34B7B7 PUSH1 0xD9 SHL PUSH1 0x64 DUP3 ADD MSTORE PUSH1 0x84 SWAP1 REVERT JUMPDEST PUSH1 0x0 SWAP1 DUP2 MSTORE PUSH1 0xC9 PUSH1 0x20 MSTORE PUSH1 0x40 DUP2 KECCAK256 PUSH1 0x1 ADD DUP1 SLOAD SWAP2 SWAP1 DUP2 JUMPDEST DUP4 DUP2 LT PUSH2 0x339E JUMPI POP POP POP POP PUSH1 0x1 SWAP1 JUMP JUMPDEST PUSH1 0xFF PUSH1 0x3 PUSH2 0x33AC DUP4 DUP6 PUSH2 0x3050 JUMP JUMPDEST POP ADD SLOAD AND ISZERO PUSH2 0x33C3 JUMPI PUSH2 0x33BE SWAP1 PUSH2 0x301F JUMP JUMPDEST PUSH2 0x338E JUMP JUMPDEST POP POP SWAP1 POP SWAP1 JUMP JUMPDEST PUSH1 0x0 SWAP1 DUP1 DUP3 MSTORE PUSH1 0x20 SWAP1 PUSH1 0xC9 DUP3 MSTORE PUSH1 0x40 DUP1 DUP5 KECCAK256 SWAP3 DUP5 SWAP4 PUSH1 0x1 SWAP5 DUP6 DUP1 SWAP3 ADD SWAP2 JUMPDEST PUSH2 0x33F6 JUMPI JUMPDEST POP POP POP POP POP POP POP JUMP JUMPDEST DUP2 SLOAD DUP2 LT ISZERO PUSH2 0x3533 JUMPI SWAP7 SWAP6 SWAP5 SWAP4 SWAP3 SWAP2 SWAP1 PUSH2 0x3410 DUP9 DUP3 PUSH2 0x3050 JUMP JUMPDEST POP SLOAD PUSH1 0x1 PUSH1 0x1 PUSH1 0xA0 SHL SUB AND DUP7 MSTORE PUSH1 0xCB DUP3 MSTORE DUP3 DUP7 KECCAK256 DUP7 DUP7 JUMPDEST PUSH2 0x3444 JUMPI JUMPDEST POP POP PUSH2 0x343A DUP6 SWAP7 SWAP8 SWAP9 PUSH2 0x301F JUMP JUMPDEST SWAP1 SWAP2 SWAP3 SWAP4 SWAP5 PUSH2 0x33E8 JUMP JUMPDEST DUP2 SLOAD DUP1 DUP3 LT ISZERO PUSH2 0x352D JUMPI DUP7 SWAP1 PUSH2 0x345A DUP4 DUP6 PUSH2 0x2E9F JUMP JUMPDEST SWAP3 SWAP1 SLOAD PUSH1 0x3 SWAP4 DUP5 SHL SHR EQ PUSH2 0x348A JUMPI POP POP SWAP6 PUSH2 0x347C DUP2 SWAP9 SWAP10 SWAP11 SWAP4 SWAP5 SWAP6 SWAP7 SWAP8 PUSH2 0x301F JUMP JUMPDEST SWAP1 SWAP7 SWAP6 SWAP5 SWAP4 SWAP3 SWAP10 SWAP9 SWAP8 PUSH2 0x3427 JUMP JUMPDEST SWAP1 SWAP3 SWAP2 PUSH1 0x0 NOT SWAP2 DUP3 DUP2 ADD SWAP1 DUP2 GT PUSH2 0x3519 JUMPI PUSH2 0x34B8 PUSH2 0x34AB PUSH2 0x34CF SWAP3 DUP7 PUSH2 0x2E9F JUMP JUMPDEST SWAP1 SLOAD SWAP1 DUP8 SHL SHR SWAP3 DUP6 PUSH2 0x2E9F JUMP JUMPDEST DUP2 SWAP4 SWAP2 SLOAD SWAP1 PUSH1 0x3 SHL SWAP2 DUP3 SHL SWAP2 PUSH1 0x0 NOT SWAP1 SHL NOT AND OR SWAP1 JUMP JUMPDEST SWAP1 SSTORE DUP2 SLOAD DUP1 ISZERO PUSH2 0x3505 JUMPI SWAP2 DUP2 PUSH2 0x343A SWAP5 SWAP3 DUP11 SWAP12 SWAP13 SWAP14 SWAP5 ADD SWAP3 PUSH2 0x34F1 DUP5 DUP5 PUSH2 0x2E9F JUMP JUMPDEST DUP2 SWAP4 SWAP2 SLOAD SWAP3 SHL SHL NOT AND SWAP1 SSTORE SSTORE SWAP9 SWAP8 SWAP7 PUSH2 0x342C JUMP JUMPDEST PUSH4 0x4E487B71 PUSH1 0xE0 SHL DUP11 MSTORE PUSH1 0x31 PUSH1 0x4 MSTORE PUSH1 0x24 DUP11 REVERT JUMPDEST PUSH4 0x4E487B71 PUSH1 0xE0 SHL DUP12 MSTORE PUSH1 0x11 PUSH1 0x4 MSTORE PUSH1 0x24 DUP12 REVERT JUMPDEST POP PUSH2 0x342C JUMP JUMPDEST PUSH2 0x33ED JUMP JUMPDEST PUSH1 0x0 MSTORE PUSH1 0xC9 PUSH1 0x20 MSTORE PUSH1 0x40 PUSH1 0x0 KECCAK256 PUSH1 0x0 SWAP1 DUP2 SWAP1 PUSH1 0x1 DUP1 SWAP2 ADD SWAP1 DUP2 SLOAD SWAP2 JUMPDEST DUP3 DUP5 LT PUSH2 0x3562 JUMPI POP POP POP POP SWAP1 JUMP JUMPDEST SWAP1 SWAP2 SWAP3 SWAP4 PUSH2 0x3581 PUSH2 0x3587 SWAP2 DUP5 PUSH2 0x3578 DUP9 DUP7 PUSH2 0x3050 JUMP JUMPDEST POP ADD SLOAD SWAP1 PUSH2 0x3012 JUMP JUMPDEST SWAP5 PUSH2 0x301F JUMP JUMPDEST SWAP3 SWAP2 SWAP1 PUSH2 0x3554 JUMP JUMPDEST PUSH1 0x1 PUSH1 0x1 PUSH1 0x40 SHL SUB DUP2 GT PUSH2 0xB5C JUMPI PUSH1 0x5 SHL PUSH1 0x20 ADD SWAP1 JUMP JUMPDEST SWAP1 PUSH2 0x35B0 DUP3 PUSH2 0x358F JUMP JUMPDEST PUSH1 0x40 SWAP1 PUSH2 0x35BF DUP3 MLOAD SWAP2 DUP3 PUSH2 0x321B JUMP JUMPDEST DUP4 DUP2 MSTORE DUP1 SWAP4 PUSH2 0x35D0 PUSH1 0x1F NOT SWAP2 PUSH2 0x358F JUMP JUMPDEST ADD SWAP2 PUSH1 0x0 JUMPDEST DUP4 DUP2 LT PUSH2 0x35E2 JUMPI POP POP POP POP JUMP JUMPDEST PUSH1 0x20 SWAP1 DUP3 MLOAD PUSH2 0x35F0 DUP2 PUSH2 0x3200 JUMP JUMPDEST PUSH1 0x0 DUP2 MSTORE DUP3 PUSH1 0x0 DUP2 DUP4 ADD MSTORE PUSH1 0x0 DUP6 DUP4 ADD MSTORE PUSH1 0x0 PUSH1 0x60 DUP4 ADD MSTORE PUSH1 0x0 PUSH1 0x80 DUP4 ADD MSTORE DUP3 DUP7 ADD ADD MSTORE ADD PUSH2 0x35D5 JUMP JUMPDEST DUP1 MLOAD DUP3 LT ISZERO PUSH2 0x2EB7 JUMPI PUSH1 0x20 SWAP2 PUSH1 0x5 SHL ADD ADD SWAP1 JUMP JUMPDEST SWAP2 PUSH1 0x0 SWAP3 DUP4 MSTORE PUSH1 0xC9 PUSH1 0x20 MSTORE PUSH1 0x40 DUP4 KECCAK256 SWAP2 DUP4 SWAP3 PUSH1 0x1 DUP1 SWAP2 ADD DUP1 SLOAD SWAP5 JUMPDEST DUP6 DUP2 LT PUSH2 0x3659 JUMPI POP POP POP POP POP POP SWAP1 JUMP JUMPDEST PUSH2 0x3663 DUP2 DUP4 PUSH2 0x3050 JUMP JUMPDEST POP DUP8 SWAP1 PUSH1 0x2 DUP2 ADD DUP1 SLOAD SWAP3 JUMPDEST DUP4 DUP2 LT PUSH2 0x3687 JUMPI POP POP POP POP PUSH2 0x3682 SWAP1 PUSH2 0x301F JUMP JUMPDEST PUSH2 0x3649 JUMP JUMPDEST PUSH2 0x3691 DUP2 DUP4 PUSH2 0x3050 JUMP JUMPDEST POP PUSH1 0x1 DUP1 PUSH1 0xA0 SHL SUB SWAP1 DUP11 DUP10 DUP4 DUP4 SLOAD AND DUP5 DUP14 AND EQ SWAP3 DUP4 PUSH2 0x36D2 JUMPI JUMPDEST POP POP POP PUSH2 0x36C1 JUMPI POP PUSH2 0x36BC SWAP1 PUSH2 0x301F JUMP JUMPDEST PUSH2 0x366E JUMP JUMPDEST SWAP11 POP POP POP SWAP7 POP POP POP POP POP POP POP SLOAD AND SWAP1 JUMP JUMPDEST ADD SLOAD EQ SWAP1 POP DUP11 DUP10 CODESIZE PUSH2 0x36AB JUMP JUMPDEST PUSH1 0xCF SLOAD DUP1 ISZERO DUP1 ISZERO PUSH2 0x3741 JUMPI JUMPDEST PUSH2 0x373D JUMPI DUP2 PUSH1 0x0 MSTORE PUSH1 0xC9 PUSH1 0x20 MSTORE PUSH2 0x3701 DUP3 PUSH2 0x3538 JUMP JUMPDEST DUP1 DUP3 DUP2 MUL DIV DUP3 EQ SWAP1 ISZERO OR ISZERO PUSH2 0xC66 JUMPI PUSH1 0x20 PUSH32 0xF45996501352220C0143BB7D4599E869F72CE0391BCDCF0C0CA59BD0810DD45A SWAP2 PUSH1 0x40 MLOAD SWAP1 DUP2 MSTORE LOG2 JUMP JUMPDEST POP POP JUMP JUMPDEST POP PUSH1 0xD0 SLOAD PUSH1 0x1 PUSH1 0x1 PUSH1 0xA0 SHL SUB AND ISZERO PUSH2 0x36EB JUMP JUMPDEST SWAP1 PUSH1 0x0 SWAP2 DUP3 MSTORE PUSH1 0xCA PUSH1 0x20 MSTORE PUSH1 0xFF PUSH1 0x40 DUP4 KECCAK256 SLOAD AND ISZERO PUSH2 0x37C4 JUMPI PUSH1 0xC9 PUSH1 0x20 MSTORE PUSH1 0x40 DUP3 KECCAK256 DUP3 SWAP2 PUSH1 0x1 DUP1 SWAP3 ADD DUP1 SLOAD SWAP4 JUMPDEST DUP5 DUP2 LT PUSH2 0x378F JUMPI POP POP POP POP POP SWAP1 JUMP JUMPDEST PUSH2 0x3799 DUP2 DUP4 PUSH2 0x3050 JUMP JUMPDEST POP SLOAD PUSH1 0x1 PUSH1 0x1 PUSH1 0xA0 SHL SUB DUP5 DUP2 AND SWAP2 AND EQ PUSH2 0x37BB JUMPI PUSH2 0x37B6 SWAP1 PUSH2 0x301F JUMP JUMPDEST PUSH2 0x3780 JUMP JUMPDEST POP POP POP SWAP2 POP POP SWAP1 JUMP JUMPDEST POP SWAP1 JUMP JUMPDEST SWAP1 DUP2 SLOAD PUSH2 0x37D4 DUP2 PUSH2 0x358F JUMP JUMPDEST SWAP3 PUSH1 0x40 SWAP4 PUSH2 0x37E4 DUP6 MLOAD SWAP2 DUP3 PUSH2 0x321B JUMP JUMPDEST DUP3 DUP2 MSTORE DUP1 SWAP5 PUSH1 0x20 DUP1 SWAP3 ADD SWAP3 PUSH1 0x0 MSTORE DUP2 PUSH1 0x0 KECCAK256 SWAP1 PUSH1 0x0 SWAP4 JUMPDEST DUP6 DUP6 LT PUSH2 0x380A JUMPI POP POP POP POP POP POP JUMP JUMPDEST PUSH1 0x4 DUP5 PUSH1 0x1 SWAP3 DUP5 MLOAD PUSH2 0x381B DUP2 PUSH2 0x3200 JUMP JUMPDEST PUSH1 0xFF DUP6 DUP1 PUSH1 0xA0 SHL SUB DUP1 DUP10 SLOAD AND DUP4 MSTORE DUP7 DUP10 ADD SLOAD DUP6 DUP5 ADD MSTORE PUSH1 0x2 DUP10 ADD SLOAD SWAP1 DUP2 AND DUP9 DUP5 ADD MSTORE PUSH1 0xA0 SHR AND ISZERO ISZERO PUSH1 0x60 DUP3 ADD MSTORE PUSH1 0x3 DUP8 ADD SLOAD PUSH1 0x80 DUP3 ADD MSTORE DUP2 MSTORE ADD SWAP4 ADD SWAP5 ADD SWAP4 SWAP2 PUSH2 0x37FB JUMP INVALID LOG2 PUSH5 0x6970667358 0x22 SLT KECCAK256 0xDC 0xC4 0xE6 MSTORE SWAP12 0xBA DUP4 0xCA PUSH13 0x11A10FBF385179F32145A19ACA 0xE9 0xB6 CODESIZE 0xCA CALLVALUE SIGNEXTEND 0xBE 0xD8 PUSH9 0x9364736F6C63430008 SGT STOP CALLER "},"methodIdentifiers":{"approveSwap(bytes32)":"e35468cb","batchCancelExpiredSwaps(bytes32[])":"6e492d1c","cancelSwap(bytes32,string)":"7444ddfc","createSwap(bytes32,(address,(address,uint256,address,bool,uint256)[],(address,uint256,address,bool,uint256)[],bool)[],uint256)":"ce44c364","emergencyPause()":"51858e27","emergencyUnpause()":"4a4e3bd5","executeSwap(bytes32)":"92654efa","feeRecipient()":"46904840","getSwapDetails(bytes32)":"6bfec360","getSwapParticipants(bytes32)":"b1ff6e0a","getSwapStatus(bytes32)":"4c000575","getUserActiveSwaps(address)":"118c12de","getVersion()":"0d8e6e2c","initialize(address,address)":"485cc955","isParticipant(bytes32,address)":"c44a8923","maxParticipants()":"24924bf7","maxSwapDuration()":"9fe79777","minSwapDuration()":"999dc5c1","onERC1155BatchReceived(address,address,uint256[],uint256[],bytes)":"bc197c81","onERC1155Received(address,address,uint256,uint256,bytes)":"f23a6e61","onERC721Received(address,address,uint256,bytes)":"150b7a02","owner()":"8da5cb5b","paused()":"5c975abb","platformFeePercentage()":"cdd78cfc","renounceOwnership()":"715018a6","rescueERC20(address,uint256)":"8cd4426d","rescueETH()":"20800a00","setMaxParticipants(uint256)":"2bf7299b","setPlatformFee(uint256,address)":"b4d884f6","setSwapDurationLimits(uint256,uint256)":"3b1cc44e","supportsInterface(bytes4)":"01ffc9a7","swapExists(bytes32)":"2d53ca96","swaps(bytes32)":"eb84e7f2","transferOwnership(address)":"f2fde38b","userActiveSwaps(address,uint256)":"f2f93de2"}},"storageLayout":{"storage":[{"astId":139,"contract":"contracts/MultiPartyNFTSwap.sol:MultiPartyNFTSwap","label":"_initialized","offset":0,"slot":"0","type":"t_uint8"},{"astId":142,"contract":"contracts/MultiPartyNFTSwap.sol:MultiPartyNFTSwap","label":"_initializing","offset":1,"slot":"0","type":"t_bool"},{"astId":444,"contract":"contracts/MultiPartyNFTSwap.sol:MultiPartyNFTSwap","label":"_status","offset":0,"slot":"1","type":"t_uint256"},{"astId":513,"contract":"contracts/MultiPartyNFTSwap.sol:MultiPartyNFTSwap","label":"__gap","offset":0,"slot":"2","type":"t_array(t_uint256)49_storage"},{"astId":894,"contract":"contracts/MultiPartyNFTSwap.sol:MultiPartyNFTSwap","label":"__gap","offset":0,"slot":"51","type":"t_array(t_uint256)50_storage"},{"astId":323,"contract":"contracts/MultiPartyNFTSwap.sol:MultiPartyNFTSwap","label":"_paused","offset":0,"slot":"101","type":"t_bool"},{"astId":428,"contract":"contracts/MultiPartyNFTSwap.sol:MultiPartyNFTSwap","label":"__gap","offset":0,"slot":"102","type":"t_array(t_uint256)49_storage"},{"astId":11,"contract":"contracts/MultiPartyNFTSwap.sol:MultiPartyNFTSwap","label":"_owner","offset":0,"slot":"151","type":"t_address"},{"astId":131,"contract":"contracts/MultiPartyNFTSwap.sol:MultiPartyNFTSwap","label":"__gap","offset":0,"slot":"152","type":"t_array(t_uint256)49_storage"},{"astId":1384,"contract":"contracts/MultiPartyNFTSwap.sol:MultiPartyNFTSwap","label":"swaps","offset":0,"slot":"201","type":"t_mapping(t_bytes32,t_struct(Swap)1373_storage)"},{"astId":1388,"contract":"contracts/MultiPartyNFTSwap.sol:MultiPartyNFTSwap","label":"swapExists","offset":0,"slot":"202","type":"t_mapping(t_bytes32,t_bool)"},{"astId":1393,"contract":"contracts/MultiPartyNFTSwap.sol:MultiPartyNFTSwap","label":"userActiveSwaps","offset":0,"slot":"203","type":"t_mapping(t_address,t_array(t_bytes32)dyn_storage)"},{"astId":1395,"contract":"contracts/MultiPartyNFTSwap.sol:MultiPartyNFTSwap","label":"maxParticipants","offset":0,"slot":"204","type":"t_uint256"},{"astId":1397,"contract":"contracts/MultiPartyNFTSwap.sol:MultiPartyNFTSwap","label":"maxSwapDuration","offset":0,"slot":"205","type":"t_uint256"},{"astId":1399,"contract":"contracts/MultiPartyNFTSwap.sol:MultiPartyNFTSwap","label":"minSwapDuration","offset":0,"slot":"206","type":"t_uint256"},{"astId":1401,"contract":"contracts/MultiPartyNFTSwap.sol:MultiPartyNFTSwap","label":"platformFeePercentage","offset":0,"slot":"207","type":"t_uint256"},{"astId":1403,"contract":"contracts/MultiPartyNFTSwap.sol:MultiPartyNFTSwap","label":"feeRecipient","offset":0,"slot":"208","type":"t_address"}],"types":{"t_address":{"encoding":"inplace","label":"address","numberOfBytes":"20"},"t_array(t_bytes32)dyn_storage":{"base":"t_bytes32","encoding":"dynamic_array","label":"bytes32[]","numberOfBytes":"32"},"t_array(t_struct(NFTAsset)1344_storage)dyn_storage":{"base":"t_struct(NFTAsset)1344_storage","encoding":"dynamic_array","label":"struct MultiPartyNFTSwap.NFTAsset[]","numberOfBytes":"32"},"t_array(t_struct(SwapParticipant)1357_storage)dyn_storage":{"base":"t_struct(SwapParticipant)1357_storage","encoding":"dynamic_array","label":"struct MultiPartyNFTSwap.SwapParticipant[]","numberOfBytes":"32"},"t_array(t_uint256)49_storage":{"base":"t_uint256","encoding":"inplace","label":"uint256[49]","numberOfBytes":"1568"},"t_array(t_uint256)50_storage":{"base":"t_uint256","encoding":"inplace","label":"uint256[50]","numberOfBytes":"1600"},"t_bool":{"encoding":"inplace","label":"bool","numberOfBytes":"1"},"t_bytes32":{"encoding":"inplace","label":"bytes32","numberOfBytes":"32"},"t_enum(SwapStatus)1379":{"encoding":"inplace","label":"enum MultiPartyNFTSwap.SwapStatus","numberOfBytes":"1"},"t_mapping(t_address,t_array(t_bytes32)dyn_storage)":{"encoding":"mapping","key":"t_address","label":"mapping(address => bytes32[])","numberOfBytes":"32","value":"t_array(t_bytes32)dyn_storage"},"t_mapping(t_bytes32,t_bool)":{"encoding":"mapping","key":"t_bytes32","label":"mapping(bytes32 => bool)","numberOfBytes":"32","value":"t_bool"},"t_mapping(t_bytes32,t_struct(Swap)1373_storage)":{"encoding":"mapping","key":"t_bytes32","label":"mapping(bytes32 => struct MultiPartyNFTSwap.Swap)","numberOfBytes":"32","value":"t_struct(Swap)1373_storage"},"t_struct(NFTAsset)1344_storage":{"encoding":"inplace","label":"struct MultiPartyNFTSwap.NFTAsset","members":[{"astId":1335,"contract":"contracts/MultiPartyNFTSwap.sol:MultiPartyNFTSwap","label":"contractAddress","offset":0,"slot":"0","type":"t_address"},{"astId":1337,"contract":"contracts/MultiPartyNFTSwap.sol:MultiPartyNFTSwap","label":"tokenId","offset":0,"slot":"1","type":"t_uint256"},{"astId":1339,"contract":"contracts/MultiPartyNFTSwap.sol:MultiPartyNFTSwap","label":"currentOwner","offset":0,"slot":"2","type":"t_address"},{"astId":1341,"contract":"contracts/MultiPartyNFTSwap.sol:MultiPartyNFTSwap","label":"isERC1155","offset":20,"slot":"2","type":"t_bool"},{"astId":1343,"contract":"contracts/MultiPartyNFTSwap.sol:MultiPartyNFTSwap","label":"amount","offset":0,"slot":"3","type":"t_uint256"}],"numberOfBytes":"128"},"t_struct(Swap)1373_storage":{"encoding":"inplace","label":"struct MultiPartyNFTSwap.Swap","members":[{"astId":1359,"contract":"contracts/MultiPartyNFTSwap.sol:MultiPartyNFTSwap","label":"swapId","offset":0,"slot":"0","type":"t_bytes32"},{"astId":1363,"contract":"contracts/MultiPartyNFTSwap.sol:MultiPartyNFTSwap","label":"participants","offset":0,"slot":"1","type":"t_array(t_struct(SwapParticipant)1357_storage)dyn_storage"},{"astId":1365,"contract":"contracts/MultiPartyNFTSwap.sol:MultiPartyNFTSwap","label":"createdAt","offset":0,"slot":"2","type":"t_uint256"},{"astId":1367,"contract":"contracts/MultiPartyNFTSwap.sol:MultiPartyNFTSwap","label":"expiresAt","offset":0,"slot":"3","type":"t_uint256"},{"astId":1370,"contract":"contracts/MultiPartyNFTSwap.sol:MultiPartyNFTSwap","label":"status","offset":0,"slot":"4","type":"t_enum(SwapStatus)1379"},{"astId":1372,"contract":"contracts/MultiPartyNFTSwap.sol:MultiPartyNFTSwap","label":"initiator","offset":1,"slot":"4","type":"t_address"}],"numberOfBytes":"160"},"t_struct(SwapParticipant)1357_storage":{"encoding":"inplace","label":"struct MultiPartyNFTSwap.SwapParticipant","members":[{"astId":1346,"contract":"contracts/MultiPartyNFTSwap.sol:MultiPartyNFTSwap","label":"wallet","offset":0,"slot":"0","type":"t_address"},{"astId":1350,"contract":"contracts/MultiPartyNFTSwap.sol:MultiPartyNFTSwap","label":"givingNFTs","offset":0,"slot":"1","type":"t_array(t_struct(NFTAsset)1344_storage)dyn_storage"},{"astId":1354,"contract":"contracts/MultiPartyNFTSwap.sol:MultiPartyNFTSwap","label":"receivingNFTs","offset":0,"slot":"2","type":"t_array(t_struct(NFTAsset)1344_storage)dyn_storage"},{"astId":1356,"contract":"contracts/MultiPartyNFTSwap.sol:MultiPartyNFTSwap","label":"hasApproved","offset":0,"slot":"3","type":"t_bool"}],"numberOfBytes":"128"},"t_uint256":{"encoding":"inplace","label":"uint256","numberOfBytes":"32"},"t_uint8":{"encoding":"inplace","label":"uint8","numberOfBytes":"1"}}}}}}