{"contracts/SimpleERC1155.sol":{"SimpleERC1155":{"abi":[{"inputs":[{"internalType":"string","name":"baseURI","type":"string"}],"stateMutability":"nonpayable","type":"constructor"},{"anonymous":false,"inputs":[{"indexed":true,"internalType":"address","name":"account","type":"address"},{"indexed":true,"internalType":"address","name":"operator","type":"address"},{"indexed":false,"internalType":"bool","name":"approved","type":"bool"}],"name":"ApprovalForAll","type":"event"},{"anonymous":false,"inputs":[{"indexed":true,"internalType":"address","name":"operator","type":"address"},{"indexed":true,"internalType":"address","name":"from","type":"address"},{"indexed":true,"internalType":"address","name":"to","type":"address"},{"indexed":false,"internalType":"uint256[]","name":"ids","type":"uint256[]"},{"indexed":false,"internalType":"uint256[]","name":"values","type":"uint256[]"}],"name":"TransferBatch","type":"event"},{"anonymous":false,"inputs":[{"indexed":true,"internalType":"address","name":"operator","type":"address"},{"indexed":true,"internalType":"address","name":"from","type":"address"},{"indexed":true,"internalType":"address","name":"to","type":"address"},{"indexed":false,"internalType":"uint256","name":"id","type":"uint256"},{"indexed":false,"internalType":"uint256","name":"value","type":"uint256"}],"name":"TransferSingle","type":"event"},{"anonymous":false,"inputs":[{"indexed":false,"internalType":"string","name":"value","type":"string"},{"indexed":true,"internalType":"uint256","name":"id","type":"uint256"}],"name":"URI","type":"event"},{"inputs":[{"internalType":"address","name":"account","type":"address"},{"internalType":"uint256","name":"id","type":"uint256"}],"name":"balanceOf","outputs":[{"internalType":"uint256","name":"","type":"uint256"}],"stateMutability":"view","type":"function"},{"inputs":[{"internalType":"address[]","name":"accounts","type":"address[]"},{"internalType":"uint256[]","name":"ids","type":"uint256[]"}],"name":"balanceOfBatch","outputs":[{"internalType":"uint256[]","name":"","type":"uint256[]"}],"stateMutability":"view","type":"function"},{"inputs":[{"internalType":"address","name":"account","type":"address"},{"internalType":"address","name":"operator","type":"address"}],"name":"isApprovedForAll","outputs":[{"internalType":"bool","name":"","type":"bool"}],"stateMutability":"view","type":"function"},{"inputs":[{"internalType":"address","name":"to","type":"address"},{"internalType":"uint256","name":"id","type":"uint256"},{"internalType":"uint256","name":"amount","type":"uint256"},{"internalType":"bytes","name":"data","type":"bytes"}],"name":"mint","outputs":[],"stateMutability":"nonpayable","type":"function"},{"inputs":[{"internalType":"address","name":"to","type":"address"},{"internalType":"uint256[]","name":"ids","type":"uint256[]"},{"internalType":"uint256[]","name":"amounts","type":"uint256[]"},{"internalType":"bytes","name":"data","type":"bytes"}],"name":"mintBatch","outputs":[],"stateMutability":"nonpayable","type":"function"},{"inputs":[],"name":"name","outputs":[{"internalType":"string","name":"","type":"string"}],"stateMutability":"view","type":"function"},{"inputs":[{"internalType":"address","name":"from","type":"address"},{"internalType":"address","name":"to","type":"address"},{"internalType":"uint256[]","name":"ids","type":"uint256[]"},{"internalType":"uint256[]","name":"amounts","type":"uint256[]"},{"internalType":"bytes","name":"data","type":"bytes"}],"name":"safeBatchTransferFrom","outputs":[],"stateMutability":"nonpayable","type":"function"},{"inputs":[{"internalType":"address","name":"from","type":"address"},{"internalType":"address","name":"to","type":"address"},{"internalType":"uint256","name":"id","type":"uint256"},{"internalType":"uint256","name":"amount","type":"uint256"},{"internalType":"bytes","name":"data","type":"bytes"}],"name":"safeTransferFrom","outputs":[],"stateMutability":"nonpayable","type":"function"},{"inputs":[{"internalType":"address","name":"operator","type":"address"},{"internalType":"bool","name":"approved","type":"bool"}],"name":"setApprovalForAll","outputs":[],"stateMutability":"nonpayable","type":"function"},{"inputs":[{"internalType":"bytes4","name":"interfaceId","type":"bytes4"}],"name":"supportsInterface","outputs":[{"internalType":"bool","name":"","type":"bool"}],"stateMutability":"view","type":"function"},{"inputs":[],"name":"symbol","outputs":[{"internalType":"string","name":"","type":"string"}],"stateMutability":"view","type":"function"},{"inputs":[{"internalType":"uint256","name":"id","type":"uint256"}],"name":"uri","outputs":[{"internalType":"string","name":"","type":"string"}],"stateMutability":"view","type":"function"}],"evm":{"bytecode":{"linkReferences":{},"object":"608060405234620002825762001a19803803806200001d8162000287565b9283398101906020918282820312620002825781516001600160401b039283821162000282570191601f9180838501121562000282578351938285116200025857601f1994620000738582018716880162000287565b928184528782840101116200028257869160005b8281106200026e575050906000918301015280519182116200025857620000b0600254620002ad565b8381116200021a575b508493838311600114620001b3575092819293600092620001a7575b50508160011b916000199060031b1c1916176002555b620000f8600354620002ad565b81811162000183575b507f53574150532054657374204552433131353500000000000000000000000000246003556004546200013490620002ad565b908082116200015f575b600e665354453131353560c81b016004556040516117159081620003048239f35b6200017a926004600052600020910160051c810190620002ea565b3880806200013e565b620001a09060036000528284600020910160051c810190620002ea565b3862000101565b015190503880620000d5565b8216936002600052856000209160005b8787821062000203575050836001959610620001e9575b505050811b01600255620000eb565b015160001960f88460031b161c19169055388080620001da565b6001849582939585015181550194019201620001c3565b62000247906002600052866000208580860160051c8201928987106200024e575b0160051c0190620002ea565b38620000b9565b925081926200023b565b634e487b7160e01b600052604160045260246000fd5b818101840151858201850152830162000087565b600080fd5b6040519190601f01601f191682016001600160401b038111838210176200025857604052565b90600182811c92168015620002df575b6020831014620002c957565b634e487b7160e01b600052602260045260246000fd5b91607f1691620002bd565b818110620002f6575050565b60008155600101620002ea56fe60406080815260048036101561001457600080fd5b600091823560e01c8062fdd58e1461106457806301ffc9a714610ff657806306fdde0314610f015780630e89341c14610dcf5780631f7fdffa14610bcb5780632eb2c2d61461091d5780634e1273f41461077f578063731133e9146105f157806395d89b41146104d3578063a22cb465146103f7578063e985e9c5146103a55763f242432a146100a357600080fd5b346103a15760a03660031901126103a1576100bc611094565b836100c56110af565b916044359060643560843567ffffffffffffffff811161039d576100ec90369089016111f3565b926001600160a01b0392831692338414801561037e575b61010c90611342565b86169061011a8215156113a5565b6101238161159d565b5061012d8361159d565b5080865260209686885288872085885288528389882054610150828210156113ff565b838952888a528a8920878a528a520389882055818752868852888720838852885288872061017f85825461145e565b905582858a51848152868b8201527fc3d58168c5ae7397731d063d5bbf3d657854427343f4c083240f7aacaa2d0f628c3392a43b6101bb578580f35b889587946101fc8a519788968795869463f23a6e6160e01b9c8d8752339087015260248601526044850152606484015260a0608484015260a483019061113c565b03925af186918161034f575b506102da57505060019061021a611510565b6308c379a0146102a7575b5061023a5750505b3880808381808080808580f35b5162461bcd60e51b8152915081906102a390820160809060208152603460208201527f455243313135353a207472616e7366657220746f206e6f6e2d455243313135356040820152732932b1b2b4bb32b91034b6b83632b6b2b73a32b960611b60608201520190565b0390fd5b6102af61152e565b806102ba5750610225565b6102a38591855193849362461bcd60e51b8552840152602483019061113c565b6001600160e01b0319160390506102f257505061022d565b5162461bcd60e51b8152915081906102a390820160809060208152602860208201527f455243313135353a204552433131353552656365697665722072656a656374656040820152676420746f6b656e7360c01b60608201520190565b610370919250843d8611610377575b61036881836110f7565b8101906114f0565b9038610208565b503d61035e565b508386526001602090815288872033885290528786205460ff16610103565b8480fd5b8280fd5b8382346103f357806003193601126103f35760ff816020936103c5611094565b6103cd6110af565b6001600160a01b0391821683526001875283832091168252855220549151911615158152f35b5080fd5b50346103a157806003193601126103a157610410611094565b906024359182151580930361039d576001600160a01b03169233841461047f5750338452600160205280842083855260205280842060ff1981541660ff8416179055519081527f17307eab39ab6107e8899845ad3d59bd9653f200f220920489ca2b5937696c3160203392a380f35b6020608492519162461bcd60e51b8352820152602960248201527f455243313135353a2073657474696e6720617070726f76616c20737461747573604482015268103337b91039b2b63360b91b6064820152fd5b5082346105ee57806003193601126105ee5781519181845492600184811c918186169586156105e4575b60209687851081146105d1579087899a92868b999a9b5291826000146105a757505060011461054c575b858861054889610539848a03856110f7565b5192828493845283019061113c565b0390f35b815286935091907f8a35acfbc15ff81a39ae7d344fd709f28e8600b4aa8c65c6b64bfe7fe36bd19b5b82841061058f575050508201018161053961054888610527565b8054848a018601528895508794909301928101610575565b60ff19168882015294151560051b8701909401945085935061053992506105489150899050610527565b634e487b7160e01b835260228a52602483fd5b92607f16926104fd565b80fd5b50346103a15760803660031901126103a15761060b611094565b6044358460243560643567ffffffffffffffff81116103a15761063190369088016111f3565b6001600160a01b0385166106468115156115c2565b61064f8361159d565b506106598561159d565b50828452602095848752878520828652875287852061067987825461145e565b905581858951868152888a8201527fc3d58168c5ae7397731d063d5bbf3d657854427343f4c083240f7aacaa2d0f628b3392a43b6106b5578380f35b87946106f894879489519687958694859363f23a6e6160e01b9b8c865233908601528560248601526044850152606484015260a0608484015260a483019061113c565b03925af1869181610760575b50610748575050600190610716611510565b6308c379a014610735575b5061023a5750505b38808080848180808380f35b61073d61152e565b806102ba5750610721565b6001600160e01b0319160390506102f2575050610729565b610778919250843d86116103775761036881836110f7565b9038610704565b5090346103a157816003193601126103a157803567ffffffffffffffff80821161039d573660238301121561039d5781830135906107bc82611161565b926107c9865194856110f7565b82845260209260248486019160051b8301019136831161091957602401905b8282106108f6575050506024359081116108f2576108099036908501611179565b92825184510361089f575081519461082086611161565b9561082d865197886110f7565b80875261083c601f1991611161565b0136838801375b825181101561088d57610888906108786001600160a01b036108658387611318565b51166108718388611318565b519061126e565b6108828289611318565b526112f3565b610843565b8451828152806105488185018961123a565b60849185519162461bcd60e51b8352820152602960248201527f455243313135353a206163636f756e747320616e6420696473206c656e677468604482015268040dad2e6dac2e8c6d60bb1b6064820152fd5b8580fd5b81356001600160a01b03811681036109155781529084019084016107e8565b8980fd5b8880fd5b5090346103a1576003199160a036840112610bc75761093a611094565b926109436110af565b9367ffffffffffffffff93604435858111610bc3576109659036908301611179565b906064358681116109195761097d9036908301611179565b956084359081116109195761099590369083016111f3565b936001600160a01b03938416933385148015610ba4575b6109b590611342565b6109c2845189511461146b565b8816946109d08615156113a5565b895b8a8551821015610a56579089610a4a8a610a51946109fb856109f4818d611318565b5195611318565b51938082526020908282528383208d84528252858d8585205490610a21838310156113ff565b838652858552868620908652845203848420558252818152828220908d8352522091825461145e565b90556112f3565b6109d2565b50509094939596929197848789517f4a39dc06d4c0dbc64b70af90fd698a233a518aa5d07e595d983b8c0526c8f7fb339180610a938a8a836114c8565b0390a43b610a9f578880f35b8651948593849363bc197c8160e01b98898652338c87015260248601526044850160a0905260a48501610ad19161123a565b82858203016064860152610ae49161123a565b90838203016084840152610af79161113c565b0381885a94602095f1859181610b84575b50610b6e5750506001610b19611510565b6308c379a014610b37575b61023a5750505b38808080808080808880f35b610b3f61152e565b80610b4a5750610b24565b90506102a391602094505193849362461bcd60e51b8552840152602483019061113c565b6001600160e01b031916036102f2575050610b2b565b610b9d91925060203d81116103775761036881836110f7565b9038610b08565b50848a5260016020908152878b20338c529052868a205460ff166109ac565b8780fd5b8380fd5b508290346103f357600319916080368401126105ee57610be9611094565b9267ffffffffffffffff602435818111610bc757610c0a9036908801611179565b9560443582811161039d57610c229036908301611179565b9160643590811161039d57610c3a90369083016111f3565b6001600160a01b03871693610c508515156115c2565b610c5d895185511461146b565b855b8951811015610ca45780610c76610c9f9287611318565b51610c81828d611318565b51895260208981528a8a2090898b5252610a4a8a8a2091825461145e565b610c5f565b5085989491939297828789517f4a39dc06d4c0dbc64b70af90fd698a233a518aa5d07e595d983b8c0526c8f7fb339180610cdf8a8d836114c8565b0390a43b610ceb578580f35b8795610d3c95610d4b610d2c936020978b51998a988997889663bc197c8160e01b9e8f8952339089015288602489015260a0604489015260a488019061123a565b908487830301606488015261123a565b9184830301608485015261113c565b03925af1859181610daf575b50610d995750506001610d68611510565b6308c379a014610d86575b61023a5750505b81808281808080808580f35b610d8e61152e565b80610b4a5750610d73565b6001600160e01b031916036102f2575050610d7a565b610dc891925060203d81116103775761036881836110f7565b9086610d57565b5090346103a157602092836003193601126105ee578251918160025492600184811c91818616958615610ef7575b8984108714610ee45783885289880196908115610ec65750600114610e73575b610e53896105488a610539838c8c610e418d610e3b848f03856110f7565b35611618565b90855198899351809286860190611119565b8201610e6782518093868085019101611119565b010380875201856110f7565b9250600283527f405787fa12a823e0f2b7631cc41b3ba8828b3321ca811111fa75cd3aa3bb5ace5b828410610eb357505050830185018383610e41610e1d565b80548785018a0152928801928101610e9b565b60ff19168752505050151560051b8401860190508383610e41610e1d565b634e487b7160e01b825260228652602482fd5b92607f1692610dfd565b5082346105ee57806003193601126105ee578151918160035492600184811c91818616958615610fec575b60209687851081146105d1578899509688969785829a529182600014610fc5575050600114610f69575b50505061054892916105399103856110f7565b9190869350600383527fc2575a0e9e593c00f959f8c92f12db2869c3395a3b0502d05e2516446f71f85b5b828410610fad5750505082010181610539610548610f56565b8054848a018601528895508794909301928101610f94565b60ff19168782015293151560051b8601909301935084925061053991506105489050610f56565b92607f1692610f2c565b5090346103a15760203660031901126103a157359063ffffffff60e01b82168092036103a15760209250636cdb3d1360e11b8214918215611053575b8215611042575b50519015158152f35b6301ffc9a760e01b14915038611039565b6303a24d0760e21b81149250611032565b8382346103f357806003193601126103f35760209061108d611084611094565b6024359061126e565b9051908152f35b600435906001600160a01b03821682036110aa57565b600080fd5b602435906001600160a01b03821682036110aa57565b6040810190811067ffffffffffffffff8211176110e157604052565b634e487b7160e01b600052604160045260246000fd5b90601f8019910116810190811067ffffffffffffffff8211176110e157604052565b60005b83811061112c5750506000910152565b818101518382015260200161111c565b9060209161115581518092818552858086019101611119565b601f01601f1916010190565b67ffffffffffffffff81116110e15760051b60200190565b81601f820112156110aa5780359161119083611161565b9261119e60405194856110f7565b808452602092838086019260051b8201019283116110aa578301905b8282106111c8575050505090565b813581529083019083016111ba565b67ffffffffffffffff81116110e157601f01601f191660200190565b81601f820112156110aa5780359061120a826111d7565b9261121860405194856110f7565b828452602083830101116110aa57816000926020809301838601378301015290565b90815180825260208080930193019160005b82811061125a575050505090565b83518552938101939281019260010161124c565b6001600160a01b031690811561129b57600052600060205260406000209060005260205260406000205490565b60405162461bcd60e51b815260206004820152602a60248201527f455243313135353a2061646472657373207a65726f206973206e6f742061207660448201526930b634b21037bbb732b960b11b6064820152608490fd5b60001981146113025760010190565b634e487b7160e01b600052601160045260246000fd5b805182101561132c5760209160051b010190565b634e487b7160e01b600052603260045260246000fd5b1561134957565b60405162461bcd60e51b815260206004820152602e60248201527f455243313135353a2063616c6c6572206973206e6f7420746f6b656e206f776e60448201526d195c881bdc88185c1c1c9bdd995960921b6064820152608490fd5b156113ac57565b60405162461bcd60e51b815260206004820152602560248201527f455243313135353a207472616e7366657220746f20746865207a65726f206164604482015264647265737360d81b6064820152608490fd5b1561140657565b60405162461bcd60e51b815260206004820152602a60248201527f455243313135353a20696e73756666696369656e742062616c616e636520666f60448201526939103a3930b739b332b960b11b6064820152608490fd5b9190820180921161130257565b1561147257565b60405162461bcd60e51b815260206004820152602860248201527f455243313135353a2069647320616e6420616d6f756e7473206c656e677468206044820152670dad2e6dac2e8c6d60c31b6064820152608490fd5b90916114df6114ed9360408452604084019061123a565b91602081840391015261123a565b90565b908160209103126110aa57516001600160e01b0319811681036110aa5790565b60009060033d1161151d57565b905060046000803e60005160e01c90565b600060443d106114ed57604051600319913d83016004833e815167ffffffffffffffff918282113d60248401111761158c57818401948551938411611594573d8501016020848701011161158c57506114ed929101602001906110f7565b949350505050565b50949350505050565b604051906115aa826110c5565b6001825260208201602036823782511561132c575290565b156115c957565b60405162461bcd60e51b815260206004820152602160248201527f455243313135353a206d696e7420746f20746865207a65726f206164647265736044820152607360f81b6064820152608490fd5b80156116c15780816000925b6116ab5750611632826111d7565b9161164060405193846110f7565b808352601f1961164f826111d7565b01908260209236848701375b6116655750505090565b6000198101908111611302578092600a916030838306810180911161130257865182101561132c5760f81b6001600160f81b03191660001a90860184015304918261165b565b90916116b8600a916112f3565b92910480611624565b506040516116ce816110c5565b60018152600360fc1b60208201529056fea2646970667358221220cc9f3fbdd32832e1c0c61438433b72d990a3fedffdf0f7a4a74f2bca2ab0e59d64736f6c63430008130033","opcodes":"PUSH1 0x80 PUSH1 0x40 MSTORE CALLVALUE PUSH3 0x282 JUMPI PUSH3 0x1A19 DUP1 CODESIZE SUB DUP1 PUSH3 0x1D DUP2 PUSH3 0x287 JUMP JUMPDEST SWAP3 DUP4 CODECOPY DUP2 ADD SWAP1 PUSH1 0x20 SWAP2 DUP3 DUP3 DUP3 SUB SLT PUSH3 0x282 JUMPI DUP2 MLOAD PUSH1 0x1 PUSH1 0x1 PUSH1 0x40 SHL SUB SWAP3 DUP4 DUP3 GT PUSH3 0x282 JUMPI ADD SWAP2 PUSH1 0x1F SWAP2 DUP1 DUP4 DUP6 ADD SLT ISZERO PUSH3 0x282 JUMPI DUP4 MLOAD SWAP4 DUP3 DUP6 GT PUSH3 0x258 JUMPI PUSH1 0x1F NOT SWAP5 PUSH3 0x73 DUP6 DUP3 ADD DUP8 AND DUP9 ADD PUSH3 0x287 JUMP JUMPDEST SWAP3 DUP2 DUP5 MSTORE DUP8 DUP3 DUP5 ADD ADD GT PUSH3 0x282 JUMPI DUP7 SWAP2 PUSH1 0x0 JUMPDEST DUP3 DUP2 LT PUSH3 0x26E JUMPI POP POP SWAP1 PUSH1 0x0 SWAP2 DUP4 ADD ADD MSTORE DUP1 MLOAD SWAP2 DUP3 GT PUSH3 0x258 JUMPI PUSH3 0xB0 PUSH1 0x2 SLOAD PUSH3 0x2AD JUMP JUMPDEST DUP4 DUP2 GT PUSH3 0x21A JUMPI JUMPDEST POP DUP5 SWAP4 DUP4 DUP4 GT PUSH1 0x1 EQ PUSH3 0x1B3 JUMPI POP SWAP3 DUP2 SWAP3 SWAP4 PUSH1 0x0 SWAP3 PUSH3 0x1A7 JUMPI JUMPDEST POP POP DUP2 PUSH1 0x1 SHL SWAP2 PUSH1 0x0 NOT SWAP1 PUSH1 0x3 SHL SHR NOT AND OR PUSH1 0x2 SSTORE JUMPDEST PUSH3 0xF8 PUSH1 0x3 SLOAD PUSH3 0x2AD JUMP JUMPDEST DUP2 DUP2 GT PUSH3 0x183 JUMPI JUMPDEST POP PUSH32 0x5357415053205465737420455243313135350000000000000000000000000024 PUSH1 0x3 SSTORE PUSH1 0x4 SLOAD PUSH3 0x134 SWAP1 PUSH3 0x2AD JUMP JUMPDEST SWAP1 DUP1 DUP3 GT PUSH3 0x15F JUMPI JUMPDEST PUSH1 0xE PUSH7 0x53544531313535 PUSH1 0xC8 SHL ADD PUSH1 0x4 SSTORE PUSH1 0x40 MLOAD PUSH2 0x1715 SWAP1 DUP2 PUSH3 0x304 DUP3 CODECOPY RETURN JUMPDEST PUSH3 0x17A SWAP3 PUSH1 0x4 PUSH1 0x0 MSTORE PUSH1 0x0 KECCAK256 SWAP2 ADD PUSH1 0x5 SHR DUP2 ADD SWAP1 PUSH3 0x2EA JUMP JUMPDEST CODESIZE DUP1 DUP1 PUSH3 0x13E JUMP JUMPDEST PUSH3 0x1A0 SWAP1 PUSH1 0x3 PUSH1 0x0 MSTORE DUP3 DUP5 PUSH1 0x0 KECCAK256 SWAP2 ADD PUSH1 0x5 SHR DUP2 ADD SWAP1 PUSH3 0x2EA JUMP JUMPDEST CODESIZE PUSH3 0x101 JUMP JUMPDEST ADD MLOAD SWAP1 POP CODESIZE DUP1 PUSH3 0xD5 JUMP JUMPDEST DUP3 AND SWAP4 PUSH1 0x2 PUSH1 0x0 MSTORE DUP6 PUSH1 0x0 KECCAK256 SWAP2 PUSH1 0x0 JUMPDEST DUP8 DUP8 DUP3 LT PUSH3 0x203 JUMPI POP POP DUP4 PUSH1 0x1 SWAP6 SWAP7 LT PUSH3 0x1E9 JUMPI JUMPDEST POP POP POP DUP2 SHL ADD PUSH1 0x2 SSTORE PUSH3 0xEB JUMP JUMPDEST ADD MLOAD PUSH1 0x0 NOT PUSH1 0xF8 DUP5 PUSH1 0x3 SHL AND SHR NOT AND SWAP1 SSTORE CODESIZE DUP1 DUP1 PUSH3 0x1DA JUMP JUMPDEST PUSH1 0x1 DUP5 SWAP6 DUP3 SWAP4 SWAP6 DUP6 ADD MLOAD DUP2 SSTORE ADD SWAP5 ADD SWAP3 ADD PUSH3 0x1C3 JUMP JUMPDEST PUSH3 0x247 SWAP1 PUSH1 0x2 PUSH1 0x0 MSTORE DUP7 PUSH1 0x0 KECCAK256 DUP6 DUP1 DUP7 ADD PUSH1 0x5 SHR DUP3 ADD SWAP3 DUP10 DUP8 LT PUSH3 0x24E JUMPI JUMPDEST ADD PUSH1 0x5 SHR ADD SWAP1 PUSH3 0x2EA JUMP JUMPDEST CODESIZE PUSH3 0xB9 JUMP JUMPDEST SWAP3 POP DUP2 SWAP3 PUSH3 0x23B JUMP JUMPDEST PUSH4 0x4E487B71 PUSH1 0xE0 SHL PUSH1 0x0 MSTORE PUSH1 0x41 PUSH1 0x4 MSTORE PUSH1 0x24 PUSH1 0x0 REVERT JUMPDEST DUP2 DUP2 ADD DUP5 ADD MLOAD DUP6 DUP3 ADD DUP6 ADD MSTORE DUP4 ADD PUSH3 0x87 JUMP JUMPDEST PUSH1 0x0 DUP1 REVERT JUMPDEST PUSH1 0x40 MLOAD SWAP2 SWAP1 PUSH1 0x1F ADD PUSH1 0x1F NOT AND DUP3 ADD PUSH1 0x1 PUSH1 0x1 PUSH1 0x40 SHL SUB DUP2 GT DUP4 DUP3 LT OR PUSH3 0x258 JUMPI PUSH1 0x40 MSTORE JUMP JUMPDEST SWAP1 PUSH1 0x1 DUP3 DUP2 SHR SWAP3 AND DUP1 ISZERO PUSH3 0x2DF JUMPI JUMPDEST PUSH1 0x20 DUP4 LT EQ PUSH3 0x2C9 JUMPI JUMP JUMPDEST PUSH4 0x4E487B71 PUSH1 0xE0 SHL PUSH1 0x0 MSTORE PUSH1 0x22 PUSH1 0x4 MSTORE PUSH1 0x24 PUSH1 0x0 REVERT JUMPDEST SWAP2 PUSH1 0x7F AND SWAP2 PUSH3 0x2BD JUMP JUMPDEST DUP2 DUP2 LT PUSH3 0x2F6 JUMPI POP POP JUMP JUMPDEST PUSH1 0x0 DUP2 SSTORE PUSH1 0x1 ADD PUSH3 0x2EA JUMP INVALID PUSH1 0x40 PUSH1 0x80 DUP2 MSTORE PUSH1 0x4 DUP1 CALLDATASIZE LT ISZERO PUSH2 0x14 JUMPI PUSH1 0x0 DUP1 REVERT JUMPDEST PUSH1 0x0 SWAP2 DUP3 CALLDATALOAD PUSH1 0xE0 SHR DUP1 PUSH3 0xFDD58E EQ PUSH2 0x1064 JUMPI DUP1 PUSH4 0x1FFC9A7 EQ PUSH2 0xFF6 JUMPI DUP1 PUSH4 0x6FDDE03 EQ PUSH2 0xF01 JUMPI DUP1 PUSH4 0xE89341C EQ PUSH2 0xDCF JUMPI DUP1 PUSH4 0x1F7FDFFA EQ PUSH2 0xBCB JUMPI DUP1 PUSH4 0x2EB2C2D6 EQ PUSH2 0x91D JUMPI DUP1 PUSH4 0x4E1273F4 EQ PUSH2 0x77F JUMPI DUP1 PUSH4 0x731133E9 EQ PUSH2 0x5F1 JUMPI DUP1 PUSH4 0x95D89B41 EQ PUSH2 0x4D3 JUMPI DUP1 PUSH4 0xA22CB465 EQ PUSH2 0x3F7 JUMPI DUP1 PUSH4 0xE985E9C5 EQ PUSH2 0x3A5 JUMPI PUSH4 0xF242432A EQ PUSH2 0xA3 JUMPI PUSH1 0x0 DUP1 REVERT JUMPDEST CALLVALUE PUSH2 0x3A1 JUMPI PUSH1 0xA0 CALLDATASIZE PUSH1 0x3 NOT ADD SLT PUSH2 0x3A1 JUMPI PUSH2 0xBC PUSH2 0x1094 JUMP JUMPDEST DUP4 PUSH2 0xC5 PUSH2 0x10AF JUMP JUMPDEST SWAP2 PUSH1 0x44 CALLDATALOAD SWAP1 PUSH1 0x64 CALLDATALOAD PUSH1 0x84 CALLDATALOAD PUSH8 0xFFFFFFFFFFFFFFFF DUP2 GT PUSH2 0x39D JUMPI PUSH2 0xEC SWAP1 CALLDATASIZE SWAP1 DUP10 ADD PUSH2 0x11F3 JUMP JUMPDEST SWAP3 PUSH1 0x1 PUSH1 0x1 PUSH1 0xA0 SHL SUB SWAP3 DUP4 AND SWAP3 CALLER DUP5 EQ DUP1 ISZERO PUSH2 0x37E JUMPI JUMPDEST PUSH2 0x10C SWAP1 PUSH2 0x1342 JUMP JUMPDEST DUP7 AND SWAP1 PUSH2 0x11A DUP3 ISZERO ISZERO PUSH2 0x13A5 JUMP JUMPDEST PUSH2 0x123 DUP2 PUSH2 0x159D JUMP JUMPDEST POP PUSH2 0x12D DUP4 PUSH2 0x159D JUMP JUMPDEST POP DUP1 DUP7 MSTORE PUSH1 0x20 SWAP7 DUP7 DUP9 MSTORE DUP9 DUP8 KECCAK256 DUP6 DUP9 MSTORE DUP9 MSTORE DUP4 DUP10 DUP9 KECCAK256 SLOAD PUSH2 0x150 DUP3 DUP3 LT ISZERO PUSH2 0x13FF JUMP JUMPDEST DUP4 DUP10 MSTORE DUP9 DUP11 MSTORE DUP11 DUP10 KECCAK256 DUP8 DUP11 MSTORE DUP11 MSTORE SUB DUP10 DUP9 KECCAK256 SSTORE DUP2 DUP8 MSTORE DUP7 DUP9 MSTORE DUP9 DUP8 KECCAK256 DUP4 DUP9 MSTORE DUP9 MSTORE DUP9 DUP8 KECCAK256 PUSH2 0x17F DUP6 DUP3 SLOAD PUSH2 0x145E JUMP JUMPDEST SWAP1 SSTORE DUP3 DUP6 DUP11 MLOAD DUP5 DUP2 MSTORE DUP7 DUP12 DUP3 ADD MSTORE PUSH32 0xC3D58168C5AE7397731D063D5BBF3D657854427343F4C083240F7AACAA2D0F62 DUP13 CALLER SWAP3 LOG4 EXTCODESIZE PUSH2 0x1BB JUMPI DUP6 DUP1 RETURN JUMPDEST DUP9 SWAP6 DUP8 SWAP5 PUSH2 0x1FC DUP11 MLOAD SWAP8 DUP9 SWAP7 DUP8 SWAP6 DUP7 SWAP5 PUSH4 0xF23A6E61 PUSH1 0xE0 SHL SWAP13 DUP14 DUP8 MSTORE CALLER SWAP1 DUP8 ADD MSTORE PUSH1 0x24 DUP7 ADD MSTORE PUSH1 0x44 DUP6 ADD MSTORE PUSH1 0x64 DUP5 ADD MSTORE PUSH1 0xA0 PUSH1 0x84 DUP5 ADD MSTORE PUSH1 0xA4 DUP4 ADD SWAP1 PUSH2 0x113C JUMP JUMPDEST SUB SWAP3 GAS CALL DUP7 SWAP2 DUP2 PUSH2 0x34F JUMPI JUMPDEST POP PUSH2 0x2DA JUMPI POP POP PUSH1 0x1 SWAP1 PUSH2 0x21A PUSH2 0x1510 JUMP JUMPDEST PUSH4 0x8C379A0 EQ PUSH2 0x2A7 JUMPI JUMPDEST POP PUSH2 0x23A JUMPI POP POP JUMPDEST CODESIZE DUP1 DUP1 DUP4 DUP2 DUP1 DUP1 DUP1 DUP1 DUP6 DUP1 RETURN JUMPDEST MLOAD PUSH3 0x461BCD PUSH1 0xE5 SHL DUP2 MSTORE SWAP2 POP DUP2 SWAP1 PUSH2 0x2A3 SWAP1 DUP3 ADD PUSH1 0x80 SWAP1 PUSH1 0x20 DUP2 MSTORE PUSH1 0x34 PUSH1 0x20 DUP3 ADD MSTORE PUSH32 0x455243313135353A207472616E7366657220746F206E6F6E2D45524331313535 PUSH1 0x40 DUP3 ADD MSTORE PUSH20 0x2932B1B2B4BB32B91034B6B83632B6B2B73A32B9 PUSH1 0x61 SHL PUSH1 0x60 DUP3 ADD MSTORE ADD SWAP1 JUMP JUMPDEST SUB SWAP1 REVERT JUMPDEST PUSH2 0x2AF PUSH2 0x152E JUMP JUMPDEST DUP1 PUSH2 0x2BA JUMPI POP PUSH2 0x225 JUMP JUMPDEST PUSH2 0x2A3 DUP6 SWAP2 DUP6 MLOAD SWAP4 DUP5 SWAP4 PUSH3 0x461BCD PUSH1 0xE5 SHL DUP6 MSTORE DUP5 ADD MSTORE PUSH1 0x24 DUP4 ADD SWAP1 PUSH2 0x113C JUMP JUMPDEST PUSH1 0x1 PUSH1 0x1 PUSH1 0xE0 SHL SUB NOT AND SUB SWAP1 POP PUSH2 0x2F2 JUMPI POP POP PUSH2 0x22D JUMP JUMPDEST MLOAD PUSH3 0x461BCD PUSH1 0xE5 SHL DUP2 MSTORE SWAP2 POP DUP2 SWAP1 PUSH2 0x2A3 SWAP1 DUP3 ADD PUSH1 0x80 SWAP1 PUSH1 0x20 DUP2 MSTORE PUSH1 0x28 PUSH1 0x20 DUP3 ADD MSTORE PUSH32 0x455243313135353A204552433131353552656365697665722072656A65637465 PUSH1 0x40 DUP3 ADD MSTORE PUSH8 0x6420746F6B656E73 PUSH1 0xC0 SHL PUSH1 0x60 DUP3 ADD MSTORE ADD SWAP1 JUMP JUMPDEST PUSH2 0x370 SWAP2 SWAP3 POP DUP5 RETURNDATASIZE DUP7 GT PUSH2 0x377 JUMPI JUMPDEST PUSH2 0x368 DUP2 DUP4 PUSH2 0x10F7 JUMP JUMPDEST DUP2 ADD SWAP1 PUSH2 0x14F0 JUMP JUMPDEST SWAP1 CODESIZE PUSH2 0x208 JUMP JUMPDEST POP RETURNDATASIZE PUSH2 0x35E JUMP JUMPDEST POP DUP4 DUP7 MSTORE PUSH1 0x1 PUSH1 0x20 SWAP1 DUP2 MSTORE DUP9 DUP8 KECCAK256 CALLER DUP9 MSTORE SWAP1 MSTORE DUP8 DUP7 KECCAK256 SLOAD PUSH1 0xFF AND PUSH2 0x103 JUMP JUMPDEST DUP5 DUP1 REVERT JUMPDEST DUP3 DUP1 REVERT JUMPDEST DUP4 DUP3 CALLVALUE PUSH2 0x3F3 JUMPI DUP1 PUSH1 0x3 NOT CALLDATASIZE ADD SLT PUSH2 0x3F3 JUMPI PUSH1 0xFF DUP2 PUSH1 0x20 SWAP4 PUSH2 0x3C5 PUSH2 0x1094 JUMP JUMPDEST PUSH2 0x3CD PUSH2 0x10AF JUMP JUMPDEST PUSH1 0x1 PUSH1 0x1 PUSH1 0xA0 SHL SUB SWAP2 DUP3 AND DUP4 MSTORE PUSH1 0x1 DUP8 MSTORE DUP4 DUP4 KECCAK256 SWAP2 AND DUP3 MSTORE DUP6 MSTORE KECCAK256 SLOAD SWAP2 MLOAD SWAP2 AND ISZERO ISZERO DUP2 MSTORE RETURN JUMPDEST POP DUP1 REVERT JUMPDEST POP CALLVALUE PUSH2 0x3A1 JUMPI DUP1 PUSH1 0x3 NOT CALLDATASIZE ADD SLT PUSH2 0x3A1 JUMPI PUSH2 0x410 PUSH2 0x1094 JUMP JUMPDEST SWAP1 PUSH1 0x24 CALLDATALOAD SWAP2 DUP3 ISZERO ISZERO DUP1 SWAP4 SUB PUSH2 0x39D JUMPI PUSH1 0x1 PUSH1 0x1 PUSH1 0xA0 SHL SUB AND SWAP3 CALLER DUP5 EQ PUSH2 0x47F JUMPI POP CALLER DUP5 MSTORE PUSH1 0x1 PUSH1 0x20 MSTORE DUP1 DUP5 KECCAK256 DUP4 DUP6 MSTORE PUSH1 0x20 MSTORE DUP1 DUP5 KECCAK256 PUSH1 0xFF NOT DUP2 SLOAD AND PUSH1 0xFF DUP5 AND OR SWAP1 SSTORE MLOAD SWAP1 DUP2 MSTORE PUSH32 0x17307EAB39AB6107E8899845AD3D59BD9653F200F220920489CA2B5937696C31 PUSH1 0x20 CALLER SWAP3 LOG3 DUP1 RETURN JUMPDEST PUSH1 0x20 PUSH1 0x84 SWAP3 MLOAD SWAP2 PUSH3 0x461BCD PUSH1 0xE5 SHL DUP4 MSTORE DUP3 ADD MSTORE PUSH1 0x29 PUSH1 0x24 DUP3 ADD MSTORE PUSH32 0x455243313135353A2073657474696E6720617070726F76616C20737461747573 PUSH1 0x44 DUP3 ADD MSTORE PUSH9 0x103337B91039B2B633 PUSH1 0xB9 SHL PUSH1 0x64 DUP3 ADD MSTORE REVERT JUMPDEST POP DUP3 CALLVALUE PUSH2 0x5EE JUMPI DUP1 PUSH1 0x3 NOT CALLDATASIZE ADD SLT PUSH2 0x5EE JUMPI DUP2 MLOAD SWAP2 DUP2 DUP5 SLOAD SWAP3 PUSH1 0x1 DUP5 DUP2 SHR SWAP2 DUP2 DUP7 AND SWAP6 DUP7 ISZERO PUSH2 0x5E4 JUMPI JUMPDEST PUSH1 0x20 SWAP7 DUP8 DUP6 LT DUP2 EQ PUSH2 0x5D1 JUMPI SWAP1 DUP8 DUP10 SWAP11 SWAP3 DUP7 DUP12 SWAP10 SWAP11 SWAP12 MSTORE SWAP2 DUP3 PUSH1 0x0 EQ PUSH2 0x5A7 JUMPI POP POP PUSH1 0x1 EQ PUSH2 0x54C JUMPI JUMPDEST DUP6 DUP9 PUSH2 0x548 DUP10 PUSH2 0x539 DUP5 DUP11 SUB DUP6 PUSH2 0x10F7 JUMP JUMPDEST MLOAD SWAP3 DUP3 DUP5 SWAP4 DUP5 MSTORE DUP4 ADD SWAP1 PUSH2 0x113C JUMP JUMPDEST SUB SWAP1 RETURN JUMPDEST DUP2 MSTORE DUP7 SWAP4 POP SWAP2 SWAP1 PUSH32 0x8A35ACFBC15FF81A39AE7D344FD709F28E8600B4AA8C65C6B64BFE7FE36BD19B JUMPDEST DUP3 DUP5 LT PUSH2 0x58F JUMPI POP POP POP DUP3 ADD ADD DUP2 PUSH2 0x539 PUSH2 0x548 DUP9 PUSH2 0x527 JUMP JUMPDEST DUP1 SLOAD DUP5 DUP11 ADD DUP7 ADD MSTORE DUP9 SWAP6 POP DUP8 SWAP5 SWAP1 SWAP4 ADD SWAP3 DUP2 ADD PUSH2 0x575 JUMP JUMPDEST PUSH1 0xFF NOT AND DUP9 DUP3 ADD MSTORE SWAP5 ISZERO ISZERO PUSH1 0x5 SHL DUP8 ADD SWAP1 SWAP5 ADD SWAP5 POP DUP6 SWAP4 POP PUSH2 0x539 SWAP3 POP PUSH2 0x548 SWAP2 POP DUP10 SWAP1 POP PUSH2 0x527 JUMP JUMPDEST PUSH4 0x4E487B71 PUSH1 0xE0 SHL DUP4 MSTORE PUSH1 0x22 DUP11 MSTORE PUSH1 0x24 DUP4 REVERT JUMPDEST SWAP3 PUSH1 0x7F AND SWAP3 PUSH2 0x4FD JUMP JUMPDEST DUP1 REVERT JUMPDEST POP CALLVALUE PUSH2 0x3A1 JUMPI PUSH1 0x80 CALLDATASIZE PUSH1 0x3 NOT ADD SLT PUSH2 0x3A1 JUMPI PUSH2 0x60B PUSH2 0x1094 JUMP JUMPDEST PUSH1 0x44 CALLDATALOAD DUP5 PUSH1 0x24 CALLDATALOAD PUSH1 0x64 CALLDATALOAD PUSH8 0xFFFFFFFFFFFFFFFF DUP2 GT PUSH2 0x3A1 JUMPI PUSH2 0x631 SWAP1 CALLDATASIZE SWAP1 DUP9 ADD PUSH2 0x11F3 JUMP JUMPDEST PUSH1 0x1 PUSH1 0x1 PUSH1 0xA0 SHL SUB DUP6 AND PUSH2 0x646 DUP2 ISZERO ISZERO PUSH2 0x15C2 JUMP JUMPDEST PUSH2 0x64F DUP4 PUSH2 0x159D JUMP JUMPDEST POP PUSH2 0x659 DUP6 PUSH2 0x159D JUMP JUMPDEST POP DUP3 DUP5 MSTORE PUSH1 0x20 SWAP6 DUP5 DUP8 MSTORE DUP8 DUP6 KECCAK256 DUP3 DUP7 MSTORE DUP8 MSTORE DUP8 DUP6 KECCAK256 PUSH2 0x679 DUP8 DUP3 SLOAD PUSH2 0x145E JUMP JUMPDEST SWAP1 SSTORE DUP2 DUP6 DUP10 MLOAD DUP7 DUP2 MSTORE DUP9 DUP11 DUP3 ADD MSTORE PUSH32 0xC3D58168C5AE7397731D063D5BBF3D657854427343F4C083240F7AACAA2D0F62 DUP12 CALLER SWAP3 LOG4 EXTCODESIZE PUSH2 0x6B5 JUMPI DUP4 DUP1 RETURN JUMPDEST DUP8 SWAP5 PUSH2 0x6F8 SWAP5 DUP8 SWAP5 DUP10 MLOAD SWAP7 DUP8 SWAP6 DUP7 SWAP5 DUP6 SWAP4 PUSH4 0xF23A6E61 PUSH1 0xE0 SHL SWAP12 DUP13 DUP7 MSTORE CALLER SWAP1 DUP7 ADD MSTORE DUP6 PUSH1 0x24 DUP7 ADD MSTORE PUSH1 0x44 DUP6 ADD MSTORE PUSH1 0x64 DUP5 ADD MSTORE PUSH1 0xA0 PUSH1 0x84 DUP5 ADD MSTORE PUSH1 0xA4 DUP4 ADD SWAP1 PUSH2 0x113C JUMP JUMPDEST SUB SWAP3 GAS CALL DUP7 SWAP2 DUP2 PUSH2 0x760 JUMPI JUMPDEST POP PUSH2 0x748 JUMPI POP POP PUSH1 0x1 SWAP1 PUSH2 0x716 PUSH2 0x1510 JUMP JUMPDEST PUSH4 0x8C379A0 EQ PUSH2 0x735 JUMPI JUMPDEST POP PUSH2 0x23A JUMPI POP POP JUMPDEST CODESIZE DUP1 DUP1 DUP1 DUP5 DUP2 DUP1 DUP1 DUP4 DUP1 RETURN JUMPDEST PUSH2 0x73D PUSH2 0x152E JUMP JUMPDEST DUP1 PUSH2 0x2BA JUMPI POP PUSH2 0x721 JUMP JUMPDEST PUSH1 0x1 PUSH1 0x1 PUSH1 0xE0 SHL SUB NOT AND SUB SWAP1 POP PUSH2 0x2F2 JUMPI POP POP PUSH2 0x729 JUMP JUMPDEST PUSH2 0x778 SWAP2 SWAP3 POP DUP5 RETURNDATASIZE DUP7 GT PUSH2 0x377 JUMPI PUSH2 0x368 DUP2 DUP4 PUSH2 0x10F7 JUMP JUMPDEST SWAP1 CODESIZE PUSH2 0x704 JUMP JUMPDEST POP SWAP1 CALLVALUE PUSH2 0x3A1 JUMPI DUP2 PUSH1 0x3 NOT CALLDATASIZE ADD SLT PUSH2 0x3A1 JUMPI DUP1 CALLDATALOAD PUSH8 0xFFFFFFFFFFFFFFFF DUP1 DUP3 GT PUSH2 0x39D JUMPI CALLDATASIZE PUSH1 0x23 DUP4 ADD SLT ISZERO PUSH2 0x39D JUMPI DUP2 DUP4 ADD CALLDATALOAD SWAP1 PUSH2 0x7BC DUP3 PUSH2 0x1161 JUMP JUMPDEST SWAP3 PUSH2 0x7C9 DUP7 MLOAD SWAP5 DUP6 PUSH2 0x10F7 JUMP JUMPDEST DUP3 DUP5 MSTORE PUSH1 0x20 SWAP3 PUSH1 0x24 DUP5 DUP7 ADD SWAP2 PUSH1 0x5 SHL DUP4 ADD ADD SWAP2 CALLDATASIZE DUP4 GT PUSH2 0x919 JUMPI PUSH1 0x24 ADD SWAP1 JUMPDEST DUP3 DUP3 LT PUSH2 0x8F6 JUMPI POP POP POP PUSH1 0x24 CALLDATALOAD SWAP1 DUP2 GT PUSH2 0x8F2 JUMPI PUSH2 0x809 SWAP1 CALLDATASIZE SWAP1 DUP6 ADD PUSH2 0x1179 JUMP JUMPDEST SWAP3 DUP3 MLOAD DUP5 MLOAD SUB PUSH2 0x89F JUMPI POP DUP2 MLOAD SWAP5 PUSH2 0x820 DUP7 PUSH2 0x1161 JUMP JUMPDEST SWAP6 PUSH2 0x82D DUP7 MLOAD SWAP8 DUP9 PUSH2 0x10F7 JUMP JUMPDEST DUP1 DUP8 MSTORE PUSH2 0x83C PUSH1 0x1F NOT SWAP2 PUSH2 0x1161 JUMP JUMPDEST ADD CALLDATASIZE DUP4 DUP9 ADD CALLDATACOPY JUMPDEST DUP3 MLOAD DUP2 LT ISZERO PUSH2 0x88D JUMPI PUSH2 0x888 SWAP1 PUSH2 0x878 PUSH1 0x1 PUSH1 0x1 PUSH1 0xA0 SHL SUB PUSH2 0x865 DUP4 DUP8 PUSH2 0x1318 JUMP JUMPDEST MLOAD AND PUSH2 0x871 DUP4 DUP9 PUSH2 0x1318 JUMP JUMPDEST MLOAD SWAP1 PUSH2 0x126E JUMP JUMPDEST PUSH2 0x882 DUP3 DUP10 PUSH2 0x1318 JUMP JUMPDEST MSTORE PUSH2 0x12F3 JUMP JUMPDEST PUSH2 0x843 JUMP JUMPDEST DUP5 MLOAD DUP3 DUP2 MSTORE DUP1 PUSH2 0x548 DUP2 DUP6 ADD DUP10 PUSH2 0x123A JUMP JUMPDEST PUSH1 0x84 SWAP2 DUP6 MLOAD SWAP2 PUSH3 0x461BCD PUSH1 0xE5 SHL DUP4 MSTORE DUP3 ADD MSTORE PUSH1 0x29 PUSH1 0x24 DUP3 ADD MSTORE PUSH32 0x455243313135353A206163636F756E747320616E6420696473206C656E677468 PUSH1 0x44 DUP3 ADD MSTORE PUSH9 0x40DAD2E6DAC2E8C6D PUSH1 0xBB SHL PUSH1 0x64 DUP3 ADD MSTORE REVERT JUMPDEST DUP6 DUP1 REVERT JUMPDEST DUP2 CALLDATALOAD PUSH1 0x1 PUSH1 0x1 PUSH1 0xA0 SHL SUB DUP2 AND DUP2 SUB PUSH2 0x915 JUMPI DUP2 MSTORE SWAP1 DUP5 ADD SWAP1 DUP5 ADD PUSH2 0x7E8 JUMP JUMPDEST DUP10 DUP1 REVERT JUMPDEST DUP9 DUP1 REVERT JUMPDEST POP SWAP1 CALLVALUE PUSH2 0x3A1 JUMPI PUSH1 0x3 NOT SWAP2 PUSH1 0xA0 CALLDATASIZE DUP5 ADD SLT PUSH2 0xBC7 JUMPI PUSH2 0x93A PUSH2 0x1094 JUMP JUMPDEST SWAP3 PUSH2 0x943 PUSH2 0x10AF JUMP JUMPDEST SWAP4 PUSH8 0xFFFFFFFFFFFFFFFF SWAP4 PUSH1 0x44 CALLDATALOAD DUP6 DUP2 GT PUSH2 0xBC3 JUMPI PUSH2 0x965 SWAP1 CALLDATASIZE SWAP1 DUP4 ADD PUSH2 0x1179 JUMP JUMPDEST SWAP1 PUSH1 0x64 CALLDATALOAD DUP7 DUP2 GT PUSH2 0x919 JUMPI PUSH2 0x97D SWAP1 CALLDATASIZE SWAP1 DUP4 ADD PUSH2 0x1179 JUMP JUMPDEST SWAP6 PUSH1 0x84 CALLDATALOAD SWAP1 DUP2 GT PUSH2 0x919 JUMPI PUSH2 0x995 SWAP1 CALLDATASIZE SWAP1 DUP4 ADD PUSH2 0x11F3 JUMP JUMPDEST SWAP4 PUSH1 0x1 PUSH1 0x1 PUSH1 0xA0 SHL SUB SWAP4 DUP5 AND SWAP4 CALLER DUP6 EQ DUP1 ISZERO PUSH2 0xBA4 JUMPI JUMPDEST PUSH2 0x9B5 SWAP1 PUSH2 0x1342 JUMP JUMPDEST PUSH2 0x9C2 DUP5 MLOAD DUP10 MLOAD EQ PUSH2 0x146B JUMP JUMPDEST DUP9 AND SWAP5 PUSH2 0x9D0 DUP7 ISZERO ISZERO PUSH2 0x13A5 JUMP JUMPDEST DUP10 JUMPDEST DUP11 DUP6 MLOAD DUP3 LT ISZERO PUSH2 0xA56 JUMPI SWAP1 DUP10 PUSH2 0xA4A DUP11 PUSH2 0xA51 SWAP5 PUSH2 0x9FB DUP6 PUSH2 0x9F4 DUP2 DUP14 PUSH2 0x1318 JUMP JUMPDEST MLOAD SWAP6 PUSH2 0x1318 JUMP JUMPDEST MLOAD SWAP4 DUP1 DUP3 MSTORE PUSH1 0x20 SWAP1 DUP3 DUP3 MSTORE DUP4 DUP4 KECCAK256 DUP14 DUP5 MSTORE DUP3 MSTORE DUP6 DUP14 DUP6 DUP6 KECCAK256 SLOAD SWAP1 PUSH2 0xA21 DUP4 DUP4 LT ISZERO PUSH2 0x13FF JUMP JUMPDEST DUP4 DUP7 MSTORE DUP6 DUP6 MSTORE DUP7 DUP7 KECCAK256 SWAP1 DUP7 MSTORE DUP5 MSTORE SUB DUP5 DUP5 KECCAK256 SSTORE DUP3 MSTORE DUP2 DUP2 MSTORE DUP3 DUP3 KECCAK256 SWAP1 DUP14 DUP4 MSTORE MSTORE KECCAK256 SWAP2 DUP3 SLOAD PUSH2 0x145E JUMP JUMPDEST SWAP1 SSTORE PUSH2 0x12F3 JUMP JUMPDEST PUSH2 0x9D2 JUMP JUMPDEST POP POP SWAP1 SWAP5 SWAP4 SWAP6 SWAP7 SWAP3 SWAP2 SWAP8 DUP5 DUP8 DUP10 MLOAD PUSH32 0x4A39DC06D4C0DBC64B70AF90FD698A233A518AA5D07E595D983B8C0526C8F7FB CALLER SWAP2 DUP1 PUSH2 0xA93 DUP11 DUP11 DUP4 PUSH2 0x14C8 JUMP JUMPDEST SUB SWAP1 LOG4 EXTCODESIZE PUSH2 0xA9F JUMPI DUP9 DUP1 RETURN JUMPDEST DUP7 MLOAD SWAP5 DUP6 SWAP4 DUP5 SWAP4 PUSH4 0xBC197C81 PUSH1 0xE0 SHL SWAP9 DUP10 DUP7 MSTORE CALLER DUP13 DUP8 ADD MSTORE PUSH1 0x24 DUP7 ADD MSTORE PUSH1 0x44 DUP6 ADD PUSH1 0xA0 SWAP1 MSTORE PUSH1 0xA4 DUP6 ADD PUSH2 0xAD1 SWAP2 PUSH2 0x123A JUMP JUMPDEST DUP3 DUP6 DUP3 SUB ADD PUSH1 0x64 DUP7 ADD MSTORE PUSH2 0xAE4 SWAP2 PUSH2 0x123A JUMP JUMPDEST SWAP1 DUP4 DUP3 SUB ADD PUSH1 0x84 DUP5 ADD MSTORE PUSH2 0xAF7 SWAP2 PUSH2 0x113C JUMP JUMPDEST SUB DUP2 DUP9 GAS SWAP5 PUSH1 0x20 SWAP6 CALL DUP6 SWAP2 DUP2 PUSH2 0xB84 JUMPI JUMPDEST POP PUSH2 0xB6E JUMPI POP POP PUSH1 0x1 PUSH2 0xB19 PUSH2 0x1510 JUMP JUMPDEST PUSH4 0x8C379A0 EQ PUSH2 0xB37 JUMPI JUMPDEST PUSH2 0x23A JUMPI POP POP JUMPDEST CODESIZE DUP1 DUP1 DUP1 DUP1 DUP1 DUP1 DUP1 DUP9 DUP1 RETURN JUMPDEST PUSH2 0xB3F PUSH2 0x152E JUMP JUMPDEST DUP1 PUSH2 0xB4A JUMPI POP PUSH2 0xB24 JUMP JUMPDEST SWAP1 POP PUSH2 0x2A3 SWAP2 PUSH1 0x20 SWAP5 POP MLOAD SWAP4 DUP5 SWAP4 PUSH3 0x461BCD PUSH1 0xE5 SHL DUP6 MSTORE DUP5 ADD MSTORE PUSH1 0x24 DUP4 ADD SWAP1 PUSH2 0x113C JUMP JUMPDEST PUSH1 0x1 PUSH1 0x1 PUSH1 0xE0 SHL SUB NOT AND SUB PUSH2 0x2F2 JUMPI POP POP PUSH2 0xB2B JUMP JUMPDEST PUSH2 0xB9D SWAP2 SWAP3 POP PUSH1 0x20 RETURNDATASIZE DUP2 GT PUSH2 0x377 JUMPI PUSH2 0x368 DUP2 DUP4 PUSH2 0x10F7 JUMP JUMPDEST SWAP1 CODESIZE PUSH2 0xB08 JUMP JUMPDEST POP DUP5 DUP11 MSTORE PUSH1 0x1 PUSH1 0x20 SWAP1 DUP2 MSTORE DUP8 DUP12 KECCAK256 CALLER DUP13 MSTORE SWAP1 MSTORE DUP7 DUP11 KECCAK256 SLOAD PUSH1 0xFF AND PUSH2 0x9AC JUMP JUMPDEST DUP8 DUP1 REVERT JUMPDEST DUP4 DUP1 REVERT JUMPDEST POP DUP3 SWAP1 CALLVALUE PUSH2 0x3F3 JUMPI PUSH1 0x3 NOT SWAP2 PUSH1 0x80 CALLDATASIZE DUP5 ADD SLT PUSH2 0x5EE JUMPI PUSH2 0xBE9 PUSH2 0x1094 JUMP JUMPDEST SWAP3 PUSH8 0xFFFFFFFFFFFFFFFF PUSH1 0x24 CALLDATALOAD DUP2 DUP2 GT PUSH2 0xBC7 JUMPI PUSH2 0xC0A SWAP1 CALLDATASIZE SWAP1 DUP9 ADD PUSH2 0x1179 JUMP JUMPDEST SWAP6 PUSH1 0x44 CALLDATALOAD DUP3 DUP2 GT PUSH2 0x39D JUMPI PUSH2 0xC22 SWAP1 CALLDATASIZE SWAP1 DUP4 ADD PUSH2 0x1179 JUMP JUMPDEST SWAP2 PUSH1 0x64 CALLDATALOAD SWAP1 DUP2 GT PUSH2 0x39D JUMPI PUSH2 0xC3A SWAP1 CALLDATASIZE SWAP1 DUP4 ADD PUSH2 0x11F3 JUMP JUMPDEST PUSH1 0x1 PUSH1 0x1 PUSH1 0xA0 SHL SUB DUP8 AND SWAP4 PUSH2 0xC50 DUP6 ISZERO ISZERO PUSH2 0x15C2 JUMP JUMPDEST PUSH2 0xC5D DUP10 MLOAD DUP6 MLOAD EQ PUSH2 0x146B JUMP JUMPDEST DUP6 JUMPDEST DUP10 MLOAD DUP2 LT ISZERO PUSH2 0xCA4 JUMPI DUP1 PUSH2 0xC76 PUSH2 0xC9F SWAP3 DUP8 PUSH2 0x1318 JUMP JUMPDEST MLOAD PUSH2 0xC81 DUP3 DUP14 PUSH2 0x1318 JUMP JUMPDEST MLOAD DUP10 MSTORE PUSH1 0x20 DUP10 DUP2 MSTORE DUP11 DUP11 KECCAK256 SWAP1 DUP10 DUP12 MSTORE MSTORE PUSH2 0xA4A DUP11 DUP11 KECCAK256 SWAP2 DUP3 SLOAD PUSH2 0x145E JUMP JUMPDEST PUSH2 0xC5F JUMP JUMPDEST POP DUP6 SWAP9 SWAP5 SWAP2 SWAP4 SWAP3 SWAP8 DUP3 DUP8 DUP10 MLOAD PUSH32 0x4A39DC06D4C0DBC64B70AF90FD698A233A518AA5D07E595D983B8C0526C8F7FB CALLER SWAP2 DUP1 PUSH2 0xCDF DUP11 DUP14 DUP4 PUSH2 0x14C8 JUMP JUMPDEST SUB SWAP1 LOG4 EXTCODESIZE PUSH2 0xCEB JUMPI DUP6 DUP1 RETURN JUMPDEST DUP8 SWAP6 PUSH2 0xD3C SWAP6 PUSH2 0xD4B PUSH2 0xD2C SWAP4 PUSH1 0x20 SWAP8 DUP12 MLOAD SWAP10 DUP11 SWAP9 DUP10 SWAP8 DUP9 SWAP7 PUSH4 0xBC197C81 PUSH1 0xE0 SHL SWAP15 DUP16 DUP10 MSTORE CALLER SWAP1 DUP10 ADD MSTORE DUP9 PUSH1 0x24 DUP10 ADD MSTORE PUSH1 0xA0 PUSH1 0x44 DUP10 ADD MSTORE PUSH1 0xA4 DUP9 ADD SWAP1 PUSH2 0x123A JUMP JUMPDEST SWAP1 DUP5 DUP8 DUP4 SUB ADD PUSH1 0x64 DUP9 ADD MSTORE PUSH2 0x123A JUMP JUMPDEST SWAP2 DUP5 DUP4 SUB ADD PUSH1 0x84 DUP6 ADD MSTORE PUSH2 0x113C JUMP JUMPDEST SUB SWAP3 GAS CALL DUP6 SWAP2 DUP2 PUSH2 0xDAF JUMPI JUMPDEST POP PUSH2 0xD99 JUMPI POP POP PUSH1 0x1 PUSH2 0xD68 PUSH2 0x1510 JUMP JUMPDEST PUSH4 0x8C379A0 EQ PUSH2 0xD86 JUMPI JUMPDEST PUSH2 0x23A JUMPI POP POP JUMPDEST DUP2 DUP1 DUP3 DUP2 DUP1 DUP1 DUP1 DUP1 DUP6 DUP1 RETURN JUMPDEST PUSH2 0xD8E PUSH2 0x152E JUMP JUMPDEST DUP1 PUSH2 0xB4A JUMPI POP PUSH2 0xD73 JUMP JUMPDEST PUSH1 0x1 PUSH1 0x1 PUSH1 0xE0 SHL SUB NOT AND SUB PUSH2 0x2F2 JUMPI POP POP PUSH2 0xD7A JUMP JUMPDEST PUSH2 0xDC8 SWAP2 SWAP3 POP PUSH1 0x20 RETURNDATASIZE DUP2 GT PUSH2 0x377 JUMPI PUSH2 0x368 DUP2 DUP4 PUSH2 0x10F7 JUMP JUMPDEST SWAP1 DUP7 PUSH2 0xD57 JUMP JUMPDEST POP SWAP1 CALLVALUE PUSH2 0x3A1 JUMPI PUSH1 0x20 SWAP3 DUP4 PUSH1 0x3 NOT CALLDATASIZE ADD SLT PUSH2 0x5EE JUMPI DUP3 MLOAD SWAP2 DUP2 PUSH1 0x2 SLOAD SWAP3 PUSH1 0x1 DUP5 DUP2 SHR SWAP2 DUP2 DUP7 AND SWAP6 DUP7 ISZERO PUSH2 0xEF7 JUMPI JUMPDEST DUP10 DUP5 LT DUP8 EQ PUSH2 0xEE4 JUMPI DUP4 DUP9 MSTORE DUP10 DUP9 ADD SWAP7 SWAP1 DUP2 ISZERO PUSH2 0xEC6 JUMPI POP PUSH1 0x1 EQ PUSH2 0xE73 JUMPI JUMPDEST PUSH2 0xE53 DUP10 PUSH2 0x548 DUP11 PUSH2 0x539 DUP4 DUP13 DUP13 PUSH2 0xE41 DUP14 PUSH2 0xE3B DUP5 DUP16 SUB DUP6 PUSH2 0x10F7 JUMP JUMPDEST CALLDATALOAD PUSH2 0x1618 JUMP JUMPDEST SWAP1 DUP6 MLOAD SWAP9 DUP10 SWAP4 MLOAD DUP1 SWAP3 DUP7 DUP7 ADD SWAP1 PUSH2 0x1119 JUMP JUMPDEST DUP3 ADD PUSH2 0xE67 DUP3 MLOAD DUP1 SWAP4 DUP7 DUP1 DUP6 ADD SWAP2 ADD PUSH2 0x1119 JUMP JUMPDEST ADD SUB DUP1 DUP8 MSTORE ADD DUP6 PUSH2 0x10F7 JUMP JUMPDEST SWAP3 POP PUSH1 0x2 DUP4 MSTORE PUSH32 0x405787FA12A823E0F2B7631CC41B3BA8828B3321CA811111FA75CD3AA3BB5ACE JUMPDEST DUP3 DUP5 LT PUSH2 0xEB3 JUMPI POP POP POP DUP4 ADD DUP6 ADD DUP4 DUP4 PUSH2 0xE41 PUSH2 0xE1D JUMP JUMPDEST DUP1 SLOAD DUP8 DUP6 ADD DUP11 ADD MSTORE SWAP3 DUP9 ADD SWAP3 DUP2 ADD PUSH2 0xE9B JUMP JUMPDEST PUSH1 0xFF NOT AND DUP8 MSTORE POP POP POP ISZERO ISZERO PUSH1 0x5 SHL DUP5 ADD DUP7 ADD SWAP1 POP DUP4 DUP4 PUSH2 0xE41 PUSH2 0xE1D JUMP JUMPDEST PUSH4 0x4E487B71 PUSH1 0xE0 SHL DUP3 MSTORE PUSH1 0x22 DUP7 MSTORE PUSH1 0x24 DUP3 REVERT JUMPDEST SWAP3 PUSH1 0x7F AND SWAP3 PUSH2 0xDFD JUMP JUMPDEST POP DUP3 CALLVALUE PUSH2 0x5EE JUMPI DUP1 PUSH1 0x3 NOT CALLDATASIZE ADD SLT PUSH2 0x5EE JUMPI DUP2 MLOAD SWAP2 DUP2 PUSH1 0x3 SLOAD SWAP3 PUSH1 0x1 DUP5 DUP2 SHR SWAP2 DUP2 DUP7 AND SWAP6 DUP7 ISZERO PUSH2 0xFEC JUMPI JUMPDEST PUSH1 0x20 SWAP7 DUP8 DUP6 LT DUP2 EQ PUSH2 0x5D1 JUMPI DUP9 SWAP10 POP SWAP7 DUP9 SWAP7 SWAP8 DUP6 DUP3 SWAP11 MSTORE SWAP2 DUP3 PUSH1 0x0 EQ PUSH2 0xFC5 JUMPI POP POP PUSH1 0x1 EQ PUSH2 0xF69 JUMPI JUMPDEST POP POP POP PUSH2 0x548 SWAP3 SWAP2 PUSH2 0x539 SWAP2 SUB DUP6 PUSH2 0x10F7 JUMP JUMPDEST SWAP2 SWAP1 DUP7 SWAP4 POP PUSH1 0x3 DUP4 MSTORE PUSH32 0xC2575A0E9E593C00F959F8C92F12DB2869C3395A3B0502D05E2516446F71F85B JUMPDEST DUP3 DUP5 LT PUSH2 0xFAD JUMPI POP POP POP DUP3 ADD ADD DUP2 PUSH2 0x539 PUSH2 0x548 PUSH2 0xF56 JUMP JUMPDEST DUP1 SLOAD DUP5 DUP11 ADD DUP7 ADD MSTORE DUP9 SWAP6 POP DUP8 SWAP5 SWAP1 SWAP4 ADD SWAP3 DUP2 ADD PUSH2 0xF94 JUMP JUMPDEST PUSH1 0xFF NOT AND DUP8 DUP3 ADD MSTORE SWAP4 ISZERO ISZERO PUSH1 0x5 SHL DUP7 ADD SWAP1 SWAP4 ADD SWAP4 POP DUP5 SWAP3 POP PUSH2 0x539 SWAP2 POP PUSH2 0x548 SWAP1 POP PUSH2 0xF56 JUMP JUMPDEST SWAP3 PUSH1 0x7F AND SWAP3 PUSH2 0xF2C JUMP JUMPDEST POP SWAP1 CALLVALUE PUSH2 0x3A1 JUMPI PUSH1 0x20 CALLDATASIZE PUSH1 0x3 NOT ADD SLT PUSH2 0x3A1 JUMPI CALLDATALOAD SWAP1 PUSH4 0xFFFFFFFF PUSH1 0xE0 SHL DUP3 AND DUP1 SWAP3 SUB PUSH2 0x3A1 JUMPI PUSH1 0x20 SWAP3 POP PUSH4 0x6CDB3D13 PUSH1 0xE1 SHL DUP3 EQ SWAP2 DUP3 ISZERO PUSH2 0x1053 JUMPI JUMPDEST DUP3 ISZERO PUSH2 0x1042 JUMPI JUMPDEST POP MLOAD SWAP1 ISZERO ISZERO DUP2 MSTORE RETURN JUMPDEST PUSH4 0x1FFC9A7 PUSH1 0xE0 SHL EQ SWAP2 POP CODESIZE PUSH2 0x1039 JUMP JUMPDEST PUSH4 0x3A24D07 PUSH1 0xE2 SHL DUP2 EQ SWAP3 POP PUSH2 0x1032 JUMP JUMPDEST DUP4 DUP3 CALLVALUE PUSH2 0x3F3 JUMPI DUP1 PUSH1 0x3 NOT CALLDATASIZE ADD SLT PUSH2 0x3F3 JUMPI PUSH1 0x20 SWAP1 PUSH2 0x108D PUSH2 0x1084 PUSH2 0x1094 JUMP JUMPDEST PUSH1 0x24 CALLDATALOAD SWAP1 PUSH2 0x126E JUMP JUMPDEST SWAP1 MLOAD SWAP1 DUP2 MSTORE RETURN JUMPDEST PUSH1 0x4 CALLDATALOAD SWAP1 PUSH1 0x1 PUSH1 0x1 PUSH1 0xA0 SHL SUB DUP3 AND DUP3 SUB PUSH2 0x10AA JUMPI JUMP JUMPDEST PUSH1 0x0 DUP1 REVERT JUMPDEST PUSH1 0x24 CALLDATALOAD SWAP1 PUSH1 0x1 PUSH1 0x1 PUSH1 0xA0 SHL SUB DUP3 AND DUP3 SUB PUSH2 0x10AA JUMPI JUMP JUMPDEST PUSH1 0x40 DUP2 ADD SWAP1 DUP2 LT PUSH8 0xFFFFFFFFFFFFFFFF DUP3 GT OR PUSH2 0x10E1 JUMPI PUSH1 0x40 MSTORE JUMP JUMPDEST PUSH4 0x4E487B71 PUSH1 0xE0 SHL PUSH1 0x0 MSTORE PUSH1 0x41 PUSH1 0x4 MSTORE PUSH1 0x24 PUSH1 0x0 REVERT JUMPDEST SWAP1 PUSH1 0x1F DUP1 NOT SWAP2 ADD AND DUP2 ADD SWAP1 DUP2 LT PUSH8 0xFFFFFFFFFFFFFFFF DUP3 GT OR PUSH2 0x10E1 JUMPI PUSH1 0x40 MSTORE JUMP JUMPDEST PUSH1 0x0 JUMPDEST DUP4 DUP2 LT PUSH2 0x112C JUMPI POP POP PUSH1 0x0 SWAP2 ADD MSTORE JUMP JUMPDEST DUP2 DUP2 ADD MLOAD DUP4 DUP3 ADD MSTORE PUSH1 0x20 ADD PUSH2 0x111C JUMP JUMPDEST SWAP1 PUSH1 0x20 SWAP2 PUSH2 0x1155 DUP2 MLOAD DUP1 SWAP3 DUP2 DUP6 MSTORE DUP6 DUP1 DUP7 ADD SWAP2 ADD PUSH2 0x1119 JUMP JUMPDEST PUSH1 0x1F ADD PUSH1 0x1F NOT AND ADD ADD SWAP1 JUMP JUMPDEST PUSH8 0xFFFFFFFFFFFFFFFF DUP2 GT PUSH2 0x10E1 JUMPI PUSH1 0x5 SHL PUSH1 0x20 ADD SWAP1 JUMP JUMPDEST DUP2 PUSH1 0x1F DUP3 ADD SLT ISZERO PUSH2 0x10AA JUMPI DUP1 CALLDATALOAD SWAP2 PUSH2 0x1190 DUP4 PUSH2 0x1161 JUMP JUMPDEST SWAP3 PUSH2 0x119E PUSH1 0x40 MLOAD SWAP5 DUP6 PUSH2 0x10F7 JUMP JUMPDEST DUP1 DUP5 MSTORE PUSH1 0x20 SWAP3 DUP4 DUP1 DUP7 ADD SWAP3 PUSH1 0x5 SHL DUP3 ADD ADD SWAP3 DUP4 GT PUSH2 0x10AA JUMPI DUP4 ADD SWAP1 JUMPDEST DUP3 DUP3 LT PUSH2 0x11C8 JUMPI POP POP POP POP SWAP1 JUMP JUMPDEST DUP2 CALLDATALOAD DUP2 MSTORE SWAP1 DUP4 ADD SWAP1 DUP4 ADD PUSH2 0x11BA JUMP JUMPDEST PUSH8 0xFFFFFFFFFFFFFFFF DUP2 GT PUSH2 0x10E1 JUMPI PUSH1 0x1F ADD PUSH1 0x1F NOT AND PUSH1 0x20 ADD SWAP1 JUMP JUMPDEST DUP2 PUSH1 0x1F DUP3 ADD SLT ISZERO PUSH2 0x10AA JUMPI DUP1 CALLDATALOAD SWAP1 PUSH2 0x120A DUP3 PUSH2 0x11D7 JUMP JUMPDEST SWAP3 PUSH2 0x1218 PUSH1 0x40 MLOAD SWAP5 DUP6 PUSH2 0x10F7 JUMP JUMPDEST DUP3 DUP5 MSTORE PUSH1 0x20 DUP4 DUP4 ADD ADD GT PUSH2 0x10AA JUMPI DUP2 PUSH1 0x0 SWAP3 PUSH1 0x20 DUP1 SWAP4 ADD DUP4 DUP7 ADD CALLDATACOPY DUP4 ADD ADD MSTORE SWAP1 JUMP JUMPDEST SWAP1 DUP2 MLOAD DUP1 DUP3 MSTORE PUSH1 0x20 DUP1 DUP1 SWAP4 ADD SWAP4 ADD SWAP2 PUSH1 0x0 JUMPDEST DUP3 DUP2 LT PUSH2 0x125A JUMPI POP POP POP POP SWAP1 JUMP JUMPDEST DUP4 MLOAD DUP6 MSTORE SWAP4 DUP2 ADD SWAP4 SWAP3 DUP2 ADD SWAP3 PUSH1 0x1 ADD PUSH2 0x124C JUMP JUMPDEST PUSH1 0x1 PUSH1 0x1 PUSH1 0xA0 SHL SUB AND SWAP1 DUP2 ISZERO PUSH2 0x129B JUMPI PUSH1 0x0 MSTORE PUSH1 0x0 PUSH1 0x20 MSTORE PUSH1 0x40 PUSH1 0x0 KECCAK256 SWAP1 PUSH1 0x0 MSTORE PUSH1 0x20 MSTORE PUSH1 0x40 PUSH1 0x0 KECCAK256 SLOAD SWAP1 JUMP JUMPDEST PUSH1 0x40 MLOAD PUSH3 0x461BCD PUSH1 0xE5 SHL DUP2 MSTORE PUSH1 0x20 PUSH1 0x4 DUP3 ADD MSTORE PUSH1 0x2A PUSH1 0x24 DUP3 ADD MSTORE PUSH32 0x455243313135353A2061646472657373207A65726F206973206E6F7420612076 PUSH1 0x44 DUP3 ADD MSTORE PUSH10 0x30B634B21037BBB732B9 PUSH1 0xB1 SHL PUSH1 0x64 DUP3 ADD MSTORE PUSH1 0x84 SWAP1 REVERT JUMPDEST PUSH1 0x0 NOT DUP2 EQ PUSH2 0x1302 JUMPI PUSH1 0x1 ADD SWAP1 JUMP JUMPDEST PUSH4 0x4E487B71 PUSH1 0xE0 SHL PUSH1 0x0 MSTORE PUSH1 0x11 PUSH1 0x4 MSTORE PUSH1 0x24 PUSH1 0x0 REVERT JUMPDEST DUP1 MLOAD DUP3 LT ISZERO PUSH2 0x132C JUMPI PUSH1 0x20 SWAP2 PUSH1 0x5 SHL ADD ADD SWAP1 JUMP JUMPDEST PUSH4 0x4E487B71 PUSH1 0xE0 SHL PUSH1 0x0 MSTORE PUSH1 0x32 PUSH1 0x4 MSTORE PUSH1 0x24 PUSH1 0x0 REVERT JUMPDEST ISZERO PUSH2 0x1349 JUMPI JUMP JUMPDEST PUSH1 0x40 MLOAD PUSH3 0x461BCD PUSH1 0xE5 SHL DUP2 MSTORE PUSH1 0x20 PUSH1 0x4 DUP3 ADD MSTORE PUSH1 0x2E PUSH1 0x24 DUP3 ADD MSTORE PUSH32 0x455243313135353A2063616C6C6572206973206E6F7420746F6B656E206F776E PUSH1 0x44 DUP3 ADD MSTORE PUSH14 0x195C881BDC88185C1C1C9BDD9959 PUSH1 0x92 SHL PUSH1 0x64 DUP3 ADD MSTORE PUSH1 0x84 SWAP1 REVERT JUMPDEST ISZERO PUSH2 0x13AC JUMPI JUMP JUMPDEST PUSH1 0x40 MLOAD PUSH3 0x461BCD PUSH1 0xE5 SHL DUP2 MSTORE PUSH1 0x20 PUSH1 0x4 DUP3 ADD MSTORE PUSH1 0x25 PUSH1 0x24 DUP3 ADD MSTORE PUSH32 0x455243313135353A207472616E7366657220746F20746865207A65726F206164 PUSH1 0x44 DUP3 ADD MSTORE PUSH5 0x6472657373 PUSH1 0xD8 SHL PUSH1 0x64 DUP3 ADD MSTORE PUSH1 0x84 SWAP1 REVERT JUMPDEST ISZERO PUSH2 0x1406 JUMPI JUMP JUMPDEST PUSH1 0x40 MLOAD PUSH3 0x461BCD PUSH1 0xE5 SHL DUP2 MSTORE PUSH1 0x20 PUSH1 0x4 DUP3 ADD MSTORE PUSH1 0x2A PUSH1 0x24 DUP3 ADD MSTORE PUSH32 0x455243313135353A20696E73756666696369656E742062616C616E636520666F PUSH1 0x44 DUP3 ADD MSTORE PUSH10 0x39103A3930B739B332B9 PUSH1 0xB1 SHL PUSH1 0x64 DUP3 ADD MSTORE PUSH1 0x84 SWAP1 REVERT JUMPDEST SWAP2 SWAP1 DUP3 ADD DUP1 SWAP3 GT PUSH2 0x1302 JUMPI JUMP JUMPDEST ISZERO PUSH2 0x1472 JUMPI JUMP JUMPDEST PUSH1 0x40 MLOAD PUSH3 0x461BCD PUSH1 0xE5 SHL DUP2 MSTORE PUSH1 0x20 PUSH1 0x4 DUP3 ADD MSTORE PUSH1 0x28 PUSH1 0x24 DUP3 ADD MSTORE PUSH32 0x455243313135353A2069647320616E6420616D6F756E7473206C656E67746820 PUSH1 0x44 DUP3 ADD MSTORE PUSH8 0xDAD2E6DAC2E8C6D PUSH1 0xC3 SHL PUSH1 0x64 DUP3 ADD MSTORE PUSH1 0x84 SWAP1 REVERT JUMPDEST SWAP1 SWAP2 PUSH2 0x14DF PUSH2 0x14ED SWAP4 PUSH1 0x40 DUP5 MSTORE PUSH1 0x40 DUP5 ADD SWAP1 PUSH2 0x123A JUMP JUMPDEST SWAP2 PUSH1 0x20 DUP2 DUP5 SUB SWAP2 ADD MSTORE PUSH2 0x123A JUMP JUMPDEST SWAP1 JUMP JUMPDEST SWAP1 DUP2 PUSH1 0x20 SWAP2 SUB SLT PUSH2 0x10AA JUMPI MLOAD PUSH1 0x1 PUSH1 0x1 PUSH1 0xE0 SHL SUB NOT DUP2 AND DUP2 SUB PUSH2 0x10AA JUMPI SWAP1 JUMP JUMPDEST PUSH1 0x0 SWAP1 PUSH1 0x3 RETURNDATASIZE GT PUSH2 0x151D JUMPI JUMP JUMPDEST SWAP1 POP PUSH1 0x4 PUSH1 0x0 DUP1 RETURNDATACOPY PUSH1 0x0 MLOAD PUSH1 0xE0 SHR SWAP1 JUMP JUMPDEST PUSH1 0x0 PUSH1 0x44 RETURNDATASIZE LT PUSH2 0x14ED JUMPI PUSH1 0x40 MLOAD PUSH1 0x3 NOT SWAP2 RETURNDATASIZE DUP4 ADD PUSH1 0x4 DUP4 RETURNDATACOPY DUP2 MLOAD PUSH8 0xFFFFFFFFFFFFFFFF SWAP2 DUP3 DUP3 GT RETURNDATASIZE PUSH1 0x24 DUP5 ADD GT OR PUSH2 0x158C JUMPI DUP2 DUP5 ADD SWAP5 DUP6 MLOAD SWAP4 DUP5 GT PUSH2 0x1594 JUMPI RETURNDATASIZE DUP6 ADD ADD PUSH1 0x20 DUP5 DUP8 ADD ADD GT PUSH2 0x158C JUMPI POP PUSH2 0x14ED SWAP3 SWAP2 ADD PUSH1 0x20 ADD SWAP1 PUSH2 0x10F7 JUMP JUMPDEST SWAP5 SWAP4 POP POP POP POP JUMP JUMPDEST POP SWAP5 SWAP4 POP POP POP POP JUMP JUMPDEST PUSH1 0x40 MLOAD SWAP1 PUSH2 0x15AA DUP3 PUSH2 0x10C5 JUMP JUMPDEST PUSH1 0x1 DUP3 MSTORE PUSH1 0x20 DUP3 ADD PUSH1 0x20 CALLDATASIZE DUP3 CALLDATACOPY DUP3 MLOAD ISZERO PUSH2 0x132C JUMPI MSTORE SWAP1 JUMP JUMPDEST ISZERO PUSH2 0x15C9 JUMPI JUMP JUMPDEST PUSH1 0x40 MLOAD PUSH3 0x461BCD PUSH1 0xE5 SHL DUP2 MSTORE PUSH1 0x20 PUSH1 0x4 DUP3 ADD MSTORE PUSH1 0x21 PUSH1 0x24 DUP3 ADD MSTORE PUSH32 0x455243313135353A206D696E7420746F20746865207A65726F20616464726573 PUSH1 0x44 DUP3 ADD MSTORE PUSH1 0x73 PUSH1 0xF8 SHL PUSH1 0x64 DUP3 ADD MSTORE PUSH1 0x84 SWAP1 REVERT JUMPDEST DUP1 ISZERO PUSH2 0x16C1 JUMPI DUP1 DUP2 PUSH1 0x0 SWAP3 JUMPDEST PUSH2 0x16AB JUMPI POP PUSH2 0x1632 DUP3 PUSH2 0x11D7 JUMP JUMPDEST SWAP2 PUSH2 0x1640 PUSH1 0x40 MLOAD SWAP4 DUP5 PUSH2 0x10F7 JUMP JUMPDEST DUP1 DUP4 MSTORE PUSH1 0x1F NOT PUSH2 0x164F DUP3 PUSH2 0x11D7 JUMP JUMPDEST ADD SWAP1 DUP3 PUSH1 0x20 SWAP3 CALLDATASIZE DUP5 DUP8 ADD CALLDATACOPY JUMPDEST PUSH2 0x1665 JUMPI POP POP POP SWAP1 JUMP JUMPDEST PUSH1 0x0 NOT DUP2 ADD SWAP1 DUP2 GT PUSH2 0x1302 JUMPI DUP1 SWAP3 PUSH1 0xA SWAP2 PUSH1 0x30 DUP4 DUP4 MOD DUP2 ADD DUP1 SWAP2 GT PUSH2 0x1302 JUMPI DUP7 MLOAD DUP3 LT ISZERO PUSH2 0x132C JUMPI PUSH1 0xF8 SHL PUSH1 0x1 PUSH1 0x1 PUSH1 0xF8 SHL SUB NOT AND PUSH1 0x0 BYTE SWAP1 DUP7 ADD DUP5 ADD MSTORE8 DIV SWAP2 DUP3 PUSH2 0x165B JUMP JUMPDEST SWAP1 SWAP2 PUSH2 0x16B8 PUSH1 0xA SWAP2 PUSH2 0x12F3 JUMP JUMPDEST SWAP3 SWAP2 DIV DUP1 PUSH2 0x1624 JUMP JUMPDEST POP PUSH1 0x40 MLOAD PUSH2 0x16CE DUP2 PUSH2 0x10C5 JUMP JUMPDEST PUSH1 0x1 DUP2 MSTORE PUSH1 0x3 PUSH1 0xFC SHL PUSH1 0x20 DUP3 ADD MSTORE SWAP1 JUMP INVALID LOG2 PUSH5 0x6970667358 0x22 SLT KECCAK256 0xCC SWAP16 EXTCODEHASH 0xBD 0xD3 0x28 ORIGIN 0xE1 0xC0 0xC6 EQ CODESIZE NUMBER EXTCODESIZE PUSH19 0xD990A3FEDFFDF0F7A4A74F2BCA2AB0E59D6473 PUSH16 0x6C634300081300330000000000000000 "},"methodIdentifiers":{"balanceOf(address,uint256)":"00fdd58e","balanceOfBatch(address[],uint256[])":"4e1273f4","isApprovedForAll(address,address)":"e985e9c5","mint(address,uint256,uint256,bytes)":"731133e9","mintBatch(address,uint256[],uint256[],bytes)":"1f7fdffa","name()":"06fdde03","safeBatchTransferFrom(address,address,uint256[],uint256[],bytes)":"2eb2c2d6","safeTransferFrom(address,address,uint256,uint256,bytes)":"f242432a","setApprovalForAll(address,bool)":"a22cb465","supportsInterface(bytes4)":"01ffc9a7","symbol()":"95d89b41","uri(uint256)":"0e89341c"}},"storageLayout":{"storage":[{"astId":921,"contract":"contracts/SimpleERC1155.sol:SimpleERC1155","label":"_balances","offset":0,"slot":"0","type":"t_mapping(t_uint256,t_mapping(t_address,t_uint256))"},{"astId":927,"contract":"contracts/SimpleERC1155.sol:SimpleERC1155","label":"_operatorApprovals","offset":0,"slot":"1","type":"t_mapping(t_address,t_mapping(t_address,t_bool))"},{"astId":929,"contract":"contracts/SimpleERC1155.sol:SimpleERC1155","label":"_uri","offset":0,"slot":"2","type":"t_string_storage"},{"astId":7478,"contract":"contracts/SimpleERC1155.sol:SimpleERC1155","label":"name","offset":0,"slot":"3","type":"t_string_storage"},{"astId":7481,"contract":"contracts/SimpleERC1155.sol:SimpleERC1155","label":"symbol","offset":0,"slot":"4","type":"t_string_storage"}],"types":{"t_address":{"encoding":"inplace","label":"address","numberOfBytes":"20"},"t_bool":{"encoding":"inplace","label":"bool","numberOfBytes":"1"},"t_mapping(t_address,t_bool)":{"encoding":"mapping","key":"t_address","label":"mapping(address => bool)","numberOfBytes":"32","value":"t_bool"},"t_mapping(t_address,t_mapping(t_address,t_bool))":{"encoding":"mapping","key":"t_address","label":"mapping(address => mapping(address => bool))","numberOfBytes":"32","value":"t_mapping(t_address,t_bool)"},"t_mapping(t_address,t_uint256)":{"encoding":"mapping","key":"t_address","label":"mapping(address => uint256)","numberOfBytes":"32","value":"t_uint256"},"t_mapping(t_uint256,t_mapping(t_address,t_uint256))":{"encoding":"mapping","key":"t_uint256","label":"mapping(uint256 => mapping(address => uint256))","numberOfBytes":"32","value":"t_mapping(t_address,t_uint256)"},"t_string_storage":{"encoding":"bytes","label":"string","numberOfBytes":"32"},"t_uint256":{"encoding":"inplace","label":"uint256","numberOfBytes":"32"}}}}}}